{
  "contractName": "Tasks",
  "abi": [
    {
      "inputs": [],
      "stateMutability": "nonpayable",
      "type": "constructor"
    },
    {
      "anonymous": false,
      "inputs": [
        {
          "indexed": true,
          "internalType": "address",
          "name": "owner",
          "type": "address"
        },
        {
          "indexed": true,
          "internalType": "address",
          "name": "approved",
          "type": "address"
        },
        {
          "indexed": true,
          "internalType": "uint256",
          "name": "tokenId",
          "type": "uint256"
        }
      ],
      "name": "Approval",
      "type": "event"
    },
    {
      "anonymous": false,
      "inputs": [
        {
          "indexed": true,
          "internalType": "address",
          "name": "owner",
          "type": "address"
        },
        {
          "indexed": true,
          "internalType": "address",
          "name": "operator",
          "type": "address"
        },
        {
          "indexed": false,
          "internalType": "bool",
          "name": "approved",
          "type": "bool"
        }
      ],
      "name": "ApprovalForAll",
      "type": "event"
    },
    {
      "anonymous": false,
      "inputs": [
        {
          "indexed": true,
          "internalType": "address",
          "name": "previousOwner",
          "type": "address"
        },
        {
          "indexed": true,
          "internalType": "address",
          "name": "newOwner",
          "type": "address"
        }
      ],
      "name": "OwnershipTransferred",
      "type": "event"
    },
    {
      "anonymous": false,
      "inputs": [
        {
          "indexed": true,
          "internalType": "uint256",
          "name": "taskId",
          "type": "uint256"
        },
        {
          "indexed": false,
          "internalType": "address",
          "name": "winner",
          "type": "address"
        }
      ],
      "name": "TaskCompleted",
      "type": "event"
    },
    {
      "anonymous": false,
      "inputs": [
        {
          "indexed": true,
          "internalType": "uint256",
          "name": "taskId",
          "type": "uint256"
        },
        {
          "indexed": false,
          "internalType": "address",
          "name": "owner",
          "type": "address"
        },
        {
          "indexed": false,
          "internalType": "string",
          "name": "title",
          "type": "string"
        },
        {
          "indexed": false,
          "internalType": "string",
          "name": "description",
          "type": "string"
        },
        {
          "indexed": false,
          "internalType": "string",
          "name": "imageURI",
          "type": "string"
        },
        {
          "indexed": false,
          "internalType": "uint256",
          "name": "reward",
          "type": "uint256"
        }
      ],
      "name": "TaskCreated",
      "type": "event"
    },
    {
      "anonymous": false,
      "inputs": [
        {
          "indexed": true,
          "internalType": "address",
          "name": "from",
          "type": "address"
        },
        {
          "indexed": true,
          "internalType": "address",
          "name": "to",
          "type": "address"
        },
        {
          "indexed": true,
          "internalType": "uint256",
          "name": "tokenId",
          "type": "uint256"
        }
      ],
      "name": "Transfer",
      "type": "event"
    },
    {
      "inputs": [
        {
          "internalType": "address",
          "name": "to",
          "type": "address"
        },
        {
          "internalType": "uint256",
          "name": "tokenId",
          "type": "uint256"
        }
      ],
      "name": "approve",
      "outputs": [],
      "stateMutability": "nonpayable",
      "type": "function"
    },
    {
      "inputs": [
        {
          "internalType": "address",
          "name": "owner",
          "type": "address"
        }
      ],
      "name": "balanceOf",
      "outputs": [
        {
          "internalType": "uint256",
          "name": "",
          "type": "uint256"
        }
      ],
      "stateMutability": "view",
      "type": "function",
      "constant": true
    },
    {
      "inputs": [
        {
          "internalType": "uint256",
          "name": "tokenId",
          "type": "uint256"
        }
      ],
      "name": "getApproved",
      "outputs": [
        {
          "internalType": "address",
          "name": "",
          "type": "address"
        }
      ],
      "stateMutability": "view",
      "type": "function",
      "constant": true
    },
    {
      "inputs": [
        {
          "internalType": "address",
          "name": "owner",
          "type": "address"
        },
        {
          "internalType": "address",
          "name": "operator",
          "type": "address"
        }
      ],
      "name": "isApprovedForAll",
      "outputs": [
        {
          "internalType": "bool",
          "name": "",
          "type": "bool"
        }
      ],
      "stateMutability": "view",
      "type": "function",
      "constant": true
    },
    {
      "inputs": [],
      "name": "minimumReward",
      "outputs": [
        {
          "internalType": "uint256",
          "name": "",
          "type": "uint256"
        }
      ],
      "stateMutability": "view",
      "type": "function",
      "constant": true
    },
    {
      "inputs": [],
      "name": "name",
      "outputs": [
        {
          "internalType": "string",
          "name": "",
          "type": "string"
        }
      ],
      "stateMutability": "view",
      "type": "function",
      "constant": true
    },
    {
      "inputs": [],
      "name": "owner",
      "outputs": [
        {
          "internalType": "address",
          "name": "",
          "type": "address"
        }
      ],
      "stateMutability": "view",
      "type": "function",
      "constant": true
    },
    {
      "inputs": [
        {
          "internalType": "uint256",
          "name": "tokenId",
          "type": "uint256"
        }
      ],
      "name": "ownerOf",
      "outputs": [
        {
          "internalType": "address",
          "name": "",
          "type": "address"
        }
      ],
      "stateMutability": "view",
      "type": "function",
      "constant": true
    },
    {
      "inputs": [],
      "name": "renounceOwnership",
      "outputs": [],
      "stateMutability": "nonpayable",
      "type": "function"
    },
    {
      "inputs": [
        {
          "internalType": "address",
          "name": "from",
          "type": "address"
        },
        {
          "internalType": "address",
          "name": "to",
          "type": "address"
        },
        {
          "internalType": "uint256",
          "name": "tokenId",
          "type": "uint256"
        }
      ],
      "name": "safeTransferFrom",
      "outputs": [],
      "stateMutability": "nonpayable",
      "type": "function"
    },
    {
      "inputs": [
        {
          "internalType": "address",
          "name": "from",
          "type": "address"
        },
        {
          "internalType": "address",
          "name": "to",
          "type": "address"
        },
        {
          "internalType": "uint256",
          "name": "tokenId",
          "type": "uint256"
        },
        {
          "internalType": "bytes",
          "name": "data",
          "type": "bytes"
        }
      ],
      "name": "safeTransferFrom",
      "outputs": [],
      "stateMutability": "nonpayable",
      "type": "function"
    },
    {
      "inputs": [
        {
          "internalType": "address",
          "name": "operator",
          "type": "address"
        },
        {
          "internalType": "bool",
          "name": "approved",
          "type": "bool"
        }
      ],
      "name": "setApprovalForAll",
      "outputs": [],
      "stateMutability": "nonpayable",
      "type": "function"
    },
    {
      "inputs": [
        {
          "internalType": "bytes4",
          "name": "interfaceId",
          "type": "bytes4"
        }
      ],
      "name": "supportsInterface",
      "outputs": [
        {
          "internalType": "bool",
          "name": "",
          "type": "bool"
        }
      ],
      "stateMutability": "view",
      "type": "function",
      "constant": true
    },
    {
      "inputs": [],
      "name": "symbol",
      "outputs": [
        {
          "internalType": "string",
          "name": "",
          "type": "string"
        }
      ],
      "stateMutability": "view",
      "type": "function",
      "constant": true
    },
    {
      "inputs": [
        {
          "internalType": "uint256",
          "name": "",
          "type": "uint256"
        }
      ],
      "name": "taskCompleted",
      "outputs": [
        {
          "internalType": "bool",
          "name": "",
          "type": "bool"
        }
      ],
      "stateMutability": "view",
      "type": "function",
      "constant": true
    },
    {
      "inputs": [
        {
          "internalType": "uint256",
          "name": "",
          "type": "uint256"
        }
      ],
      "name": "taskExists",
      "outputs": [
        {
          "internalType": "bool",
          "name": "",
          "type": "bool"
        }
      ],
      "stateMutability": "view",
      "type": "function",
      "constant": true
    },
    {
      "inputs": [
        {
          "internalType": "uint256",
          "name": "",
          "type": "uint256"
        }
      ],
      "name": "tasks",
      "outputs": [
        {
          "internalType": "uint256",
          "name": "tokenId",
          "type": "uint256"
        },
        {
          "internalType": "address",
          "name": "owner",
          "type": "address"
        },
        {
          "internalType": "string",
          "name": "title",
          "type": "string"
        },
        {
          "internalType": "string",
          "name": "description",
          "type": "string"
        },
        {
          "internalType": "string",
          "name": "imageURI",
          "type": "string"
        },
        {
          "internalType": "uint256",
          "name": "reward",
          "type": "uint256"
        },
        {
          "internalType": "address",
          "name": "winner",
          "type": "address"
        }
      ],
      "stateMutability": "view",
      "type": "function",
      "constant": true
    },
    {
      "inputs": [
        {
          "internalType": "uint256",
          "name": "tokenId",
          "type": "uint256"
        }
      ],
      "name": "tokenURI",
      "outputs": [
        {
          "internalType": "string",
          "name": "",
          "type": "string"
        }
      ],
      "stateMutability": "view",
      "type": "function",
      "constant": true
    },
    {
      "inputs": [
        {
          "internalType": "address",
          "name": "from",
          "type": "address"
        },
        {
          "internalType": "address",
          "name": "to",
          "type": "address"
        },
        {
          "internalType": "uint256",
          "name": "tokenId",
          "type": "uint256"
        }
      ],
      "name": "transferFrom",
      "outputs": [],
      "stateMutability": "nonpayable",
      "type": "function"
    },
    {
      "inputs": [
        {
          "internalType": "address",
          "name": "newOwner",
          "type": "address"
        }
      ],
      "name": "transferOwnership",
      "outputs": [],
      "stateMutability": "nonpayable",
      "type": "function"
    },
    {
      "inputs": [
        {
          "internalType": "string",
          "name": "_title",
          "type": "string"
        },
        {
          "internalType": "string",
          "name": "_description",
          "type": "string"
        },
        {
          "internalType": "string",
          "name": "_imageURI",
          "type": "string"
        },
        {
          "internalType": "uint256",
          "name": "_reward",
          "type": "uint256"
        }
      ],
      "name": "createTask",
      "outputs": [],
      "stateMutability": "nonpayable",
      "type": "function"
    },
    {
      "inputs": [
        {
          "internalType": "uint256",
          "name": "_taskId",
          "type": "uint256"
        }
      ],
      "name": "participate",
      "outputs": [],
      "stateMutability": "nonpayable",
      "type": "function"
    },
    {
      "inputs": [
        {
          "internalType": "uint256",
          "name": "_taskId",
          "type": "uint256"
        },
        {
          "internalType": "address",
          "name": "_winner",
          "type": "address"
        }
      ],
      "name": "chooseWinner",
      "outputs": [],
      "stateMutability": "nonpayable",
      "type": "function"
    }
  ],
  "bytecode": "0x60806040526000600a553480156200001657600080fd5b506040518060400160405280600581526020017f5461736b730000000000000000000000000000000000000000000000000000008152506040518060400160405280600481526020017f5441534b0000000000000000000000000000000000000000000000000000000081525081600090805190602001906200009b929190620001ab565b508060019080519060200190620000b4929190620001ab565b505050620000d7620000cb620000dd60201b60201c565b620000e560201b60201c565b620002c0565b600033905090565b6000600660009054906101000a900473ffffffffffffffffffffffffffffffffffffffff16905081600660006101000a81548173ffffffffffffffffffffffffffffffffffffffff021916908373ffffffffffffffffffffffffffffffffffffffff1602179055508173ffffffffffffffffffffffffffffffffffffffff168173ffffffffffffffffffffffffffffffffffffffff167f8be0079c531659141344cd1fd0a4f28419497f9722a3daafe3b4186f6b6457e060405160405180910390a35050565b828054620001b9906200025b565b90600052602060002090601f016020900481019282620001dd576000855562000229565b82601f10620001f857805160ff191683800117855562000229565b8280016001018555821562000229579182015b82811115620002285782518255916020019190600101906200020b565b5b5090506200023891906200023c565b5090565b5b80821115620002575760008160009055506001016200023d565b5090565b600060028204905060018216806200027457607f821691505b602082108114156200028b576200028a62000291565b5b50919050565b7f4e487b7100000000000000000000000000000000000000000000000000000000600052602260045260246000fd5b613af180620002d06000396000f3fe608060405234801561001057600080fd5b506004361061014d5760003560e01c80637fea0249116100c3578063a22cb4651161007c578063a22cb465146103a2578063b88d4fde146103be578063c87b56dd146103da578063d90583df1461040a578063e985e9c51461043a578063f2fde38b1461046a5761014d565b80637fea0249146102c6578063813f8dc1146102f6578063845c9306146103145780638d977672146103305780638da5cb5b1461036657806395d89b41146103845761014d565b806323b872dd1161011557806323b872dd1461020857806342842e0e146102245780635a60105d146102405780636352211e1461025c57806370a082311461028c578063715018a6146102bc5761014d565b806301ffc9a71461015257806306fdde0314610182578063081812fc146101a0578063095ea7b3146101d0578063103099f3146101ec575b600080fd5b61016c60048036038101906101679190612acc565b610486565b6040516101799190613067565b60405180910390f35b61018a610568565b6040516101979190613082565b60405180910390f35b6101ba60048036038101906101b59190612bc9565b6105fa565b6040516101c79190612f98565b60405180910390f35b6101ea60048036038101906101e59190612a90565b610640565b005b61020660048036038101906102019190612b1e565b610758565b005b610222600480360381019061021d919061298a565b610a49565b005b61023e6004803603810190610239919061298a565b610aa9565b005b61025a60048036038101906102559190612bf2565b610ac9565b005b61027660048036038101906102719190612bc9565b610cd3565b6040516102839190612f98565b60405180910390f35b6102a660048036038101906102a19190612925565b610d5a565b6040516102b391906132e4565b60405180910390f35b6102c4610e12565b005b6102e060048036038101906102db9190612bc9565b610e26565b6040516102ed9190613067565b60405180910390f35b6102fe610e46565b60405161030b91906132e4565b60405180910390f35b61032e60048036038101906103299190612bc9565b610e4c565b005b61034a60048036038101906103459190612bc9565b610fa5565b60405161035d97969594939291906132ff565b60405180910390f35b61036e6111cf565b60405161037b9190612f98565b60405180910390f35b61038c6111f9565b6040516103999190613082565b60405180910390f35b6103bc60048036038101906103b79190612a54565b61128b565b005b6103d860048036038101906103d391906129d9565b6112a1565b005b6103f460048036038101906103ef9190612bc9565b611303565b6040516104019190613082565b60405180910390f35b610424600480360381019061041f9190612bc9565b61136b565b6040516104319190613067565b60405180910390f35b610454600480360381019061044f919061294e565b61138b565b6040516104619190613067565b60405180910390f35b610484600480360381019061047f9190612925565b61141f565b005b60007f80ac58cd000000000000000000000000000000000000000000000000000000007bffffffffffffffffffffffffffffffffffffffffffffffffffffffff1916827bffffffffffffffffffffffffffffffffffffffffffffffffffffffff1916148061055157507f5b5e139f000000000000000000000000000000000000000000000000000000007bffffffffffffffffffffffffffffffffffffffffffffffffffffffff1916827bffffffffffffffffffffffffffffffffffffffffffffffffffffffff1916145b806105615750610560826114a3565b5b9050919050565b60606000805461057790613503565b80601f01602080910402602001604051908101604052809291908181526020018280546105a390613503565b80156105f05780601f106105c5576101008083540402835291602001916105f0565b820191906000526020600020905b8154815290600101906020018083116105d357829003601f168201915b5050505050905090565b60006106058261150d565b6004600083815260200190815260200160002060009054906101000a900473ffffffffffffffffffffffffffffffffffffffff169050919050565b600061064b82610cd3565b90508073ffffffffffffffffffffffffffffffffffffffff168373ffffffffffffffffffffffffffffffffffffffff1614156106bc576040517f08c379a00000000000000000000000000000000000000000000000000000000081526004016106b3906132a4565b60405180910390fd5b8073ffffffffffffffffffffffffffffffffffffffff166106db611558565b73ffffffffffffffffffffffffffffffffffffffff16148061070a575061070981610704611558565b61138b565b5b610749576040517f08c379a0000000000000000000000000000000000000000000000000000000008152600401610740906132c4565b60405180910390fd5b6107538383611560565b505050565b600a5481101561079d576040517f08c379a000000000000000000000000000000000000000000000000000000000815260040161079490613144565b60405180910390fd5b600060405180610100016040528060078054905081526020013373ffffffffffffffffffffffffffffffffffffffff168152602001868152602001858152602001848152602001838152602001600067ffffffffffffffff81111561082b577f4e487b7100000000000000000000000000000000000000000000000000000000600052604160045260246000fd5b6040519080825280602002602001820160405280156108595781602001602082028036833780820191505090505b508152602001600073ffffffffffffffffffffffffffffffffffffffff16815250905060078190806001815401808255809150506001900390600052602060002090600802016000909190919091506000820151816000015560208201518160010160006101000a81548173ffffffffffffffffffffffffffffffffffffffff021916908373ffffffffffffffffffffffffffffffffffffffff16021790555060408201518160020190805190602001906109159291906126bf565b5060608201518160030190805190602001906109329291906126bf565b50608082015181600401908051906020019061094f9291906126bf565b5060a0820151816005015560c0820151816006019080519060200190610976929190612745565b5060e08201518160070160006101000a81548173ffffffffffffffffffffffffffffffffffffffff021916908373ffffffffffffffffffffffffffffffffffffffff16021790555050506109ce338260000151611619565b6001600860008360000151815260200190815260200160002060006101000a81548160ff02191690831515021790555080600001517f4c202347b72517bb87f988a35bf19d250d8a3e9dcdf776616ef17eb1c0a94f113387878787604051610a3a959493929190612fff565b60405180910390a25050505050565b610a5a610a54611558565b82611837565b610a99576040517f08c379a0000000000000000000000000000000000000000000000000000000008152600401610a90906130a4565b60405180910390fd5b610aa48383836118cc565b505050565b610ac4838383604051806020016040528060008152506112a1565b505050565b610ad1611bc6565b6008600083815260200190815260200160002060009054906101000a900460ff16610b31576040517f08c379a0000000000000000000000000000000000000000000000000000000008152600401610b2890613164565b60405180910390fd5b610b3a82611c44565b15610b7a576040517f08c379a0000000000000000000000000000000000000000000000000000000008152600401610b7190613204565b60405180910390fd5b610b848282611c6e565b610bc3576040517f08c379a0000000000000000000000000000000000000000000000000000000008152600401610bba90613264565b60405180910390fd5b610bcd8233611dd6565b610bd657600080fd5b8060078381548110610c11577f4e487b7100000000000000000000000000000000000000000000000000000000600052603260045260246000fd5b906000526020600020906008020160070160006101000a81548173ffffffffffffffffffffffffffffffffffffffff021916908373ffffffffffffffffffffffffffffffffffffffff16021790555060016009600084815260200190815260200160002060006101000a81548160ff021916908315150217905550610c973082846118cc565b817fbb5889c77948badf90e8a5c73d55265e5f5d6e4837a79a78c5669691b897faed82604051610cc79190612f98565b60405180910390a25050565b600080610cdf83611e7a565b9050600073ffffffffffffffffffffffffffffffffffffffff168173ffffffffffffffffffffffffffffffffffffffff161415610d51576040517f08c379a0000000000000000000000000000000000000000000000000000000008152600401610d4890613284565b60405180910390fd5b80915050919050565b60008073ffffffffffffffffffffffffffffffffffffffff168273ffffffffffffffffffffffffffffffffffffffff161415610dcb576040517f08c379a0000000000000000000000000000000000000000000000000000000008152600401610dc2906131e4565b60405180910390fd5b600360008373ffffffffffffffffffffffffffffffffffffffff1673ffffffffffffffffffffffffffffffffffffffff168152602001908152602001600020549050919050565b610e1a611bc6565b610e246000611eb7565b565b60096020528060005260406000206000915054906101000a900460ff1681565b600a5481565b6008600082815260200190815260200160002060009054906101000a900460ff16610eac576040517f08c379a0000000000000000000000000000000000000000000000000000000008152600401610ea390613164565b60405180910390fd5b610eb68133611c6e565b15610ef6576040517f08c379a0000000000000000000000000000000000000000000000000000000008152600401610eed906131c4565b60405180910390fd5b60078181548110610f30577f4e487b7100000000000000000000000000000000000000000000000000000000600052603260045260246000fd5b9060005260206000209060080201600601339080600181540180825580915050600190039060005260206000200160009091909190916101000a81548173ffffffffffffffffffffffffffffffffffffffff021916908373ffffffffffffffffffffffffffffffffffffffff16021790555050565b60078181548110610fb557600080fd5b90600052602060002090600802016000915090508060000154908060010160009054906101000a900473ffffffffffffffffffffffffffffffffffffffff169080600201805461100490613503565b80601f016020809104026020016040519081016040528092919081815260200182805461103090613503565b801561107d5780601f106110525761010080835404028352916020019161107d565b820191906000526020600020905b81548152906001019060200180831161106057829003601f168201915b50505050509080600301805461109290613503565b80601f01602080910402602001604051908101604052809291908181526020018280546110be90613503565b801561110b5780601f106110e05761010080835404028352916020019161110b565b820191906000526020600020905b8154815290600101906020018083116110ee57829003601f168201915b50505050509080600401805461112090613503565b80601f016020809104026020016040519081016040528092919081815260200182805461114c90613503565b80156111995780601f1061116e57610100808354040283529160200191611199565b820191906000526020600020905b81548152906001019060200180831161117c57829003601f168201915b5050505050908060050154908060070160009054906101000a900473ffffffffffffffffffffffffffffffffffffffff16905087565b6000600660009054906101000a900473ffffffffffffffffffffffffffffffffffffffff16905090565b60606001805461120890613503565b80601f016020809104026020016040519081016040528092919081815260200182805461123490613503565b80156112815780601f1061125657610100808354040283529160200191611281565b820191906000526020600020905b81548152906001019060200180831161126457829003601f168201915b5050505050905090565b61129d611296611558565b8383611f7d565b5050565b6112b26112ac611558565b83611837565b6112f1576040517f08c379a00000000000000000000000000000000000000000000000000000000081526004016112e8906130a4565b60405180910390fd5b6112fd848484846120ea565b50505050565b606061130e8261150d565b6000611318612146565b905060008151116113385760405180602001604052806000815250611363565b806113428461215d565b604051602001611353929190612f74565b6040516020818303038152906040525b915050919050565b60086020528060005260406000206000915054906101000a900460ff1681565b6000600560008473ffffffffffffffffffffffffffffffffffffffff1673ffffffffffffffffffffffffffffffffffffffff16815260200190815260200160002060008373ffffffffffffffffffffffffffffffffffffffff1673ffffffffffffffffffffffffffffffffffffffff16815260200190815260200160002060009054906101000a900460ff16905092915050565b611427611bc6565b600073ffffffffffffffffffffffffffffffffffffffff168173ffffffffffffffffffffffffffffffffffffffff161415611497576040517f08c379a000000000000000000000000000000000000000000000000000000000815260040161148e906130e4565b60405180910390fd5b6114a081611eb7565b50565b60007f01ffc9a7000000000000000000000000000000000000000000000000000000007bffffffffffffffffffffffffffffffffffffffffffffffffffffffff1916827bffffffffffffffffffffffffffffffffffffffffffffffffffffffff1916149050919050565b61151681612281565b611555576040517f08c379a000000000000000000000000000000000000000000000000000000000815260040161154c90613284565b60405180910390fd5b50565b600033905090565b816004600083815260200190815260200160002060006101000a81548173ffffffffffffffffffffffffffffffffffffffff021916908373ffffffffffffffffffffffffffffffffffffffff160217905550808273ffffffffffffffffffffffffffffffffffffffff166115d383610cd3565b73ffffffffffffffffffffffffffffffffffffffff167f8c5be1e5ebec7d5bd14f71427d1e84f3dd0314c0f7b2291e5b200ac8c7c3b92560405160405180910390a45050565b600073ffffffffffffffffffffffffffffffffffffffff168273ffffffffffffffffffffffffffffffffffffffff161415611689576040517f08c379a000000000000000000000000000000000000000000000000000000000815260040161168090613224565b60405180910390fd5b61169281612281565b156116d2576040517f08c379a00000000000000000000000000000000000000000000000000000000081526004016116c990613124565b60405180910390fd5b6116e06000838360016122c2565b6116e981612281565b15611729576040517f08c379a000000000000000000000000000000000000000000000000000000000815260040161172090613124565b60405180910390fd5b6001600360008473ffffffffffffffffffffffffffffffffffffffff1673ffffffffffffffffffffffffffffffffffffffff16815260200190815260200160002060008282540192505081905550816002600083815260200190815260200160002060006101000a81548173ffffffffffffffffffffffffffffffffffffffff021916908373ffffffffffffffffffffffffffffffffffffffff160217905550808273ffffffffffffffffffffffffffffffffffffffff16600073ffffffffffffffffffffffffffffffffffffffff167fddf252ad1be2c89b69c2b068fc378daa952ba7f163c4a11628f55a4df523b3ef60405160405180910390a46118336000838360016122c8565b5050565b60008061184383610cd3565b90508073ffffffffffffffffffffffffffffffffffffffff168473ffffffffffffffffffffffffffffffffffffffff1614806118855750611884818561138b565b5b806118c357508373ffffffffffffffffffffffffffffffffffffffff166118ab846105fa565b73ffffffffffffffffffffffffffffffffffffffff16145b91505092915050565b8273ffffffffffffffffffffffffffffffffffffffff166118ec82610cd3565b73ffffffffffffffffffffffffffffffffffffffff1614611942576040517f08c379a000000000000000000000000000000000000000000000000000000000815260040161193990613104565b60405180910390fd5b600073ffffffffffffffffffffffffffffffffffffffff168273ffffffffffffffffffffffffffffffffffffffff1614156119b2576040517f08c379a00000000000000000000000000000000000000000000000000000000081526004016119a990613184565b60405180910390fd5b6119bf83838360016122c2565b8273ffffffffffffffffffffffffffffffffffffffff166119df82610cd3565b73ffffffffffffffffffffffffffffffffffffffff1614611a35576040517f08c379a0000000000000000000000000000000000000000000000000000000008152600401611a2c90613104565b60405180910390fd5b6004600082815260200190815260200160002060006101000a81549073ffffffffffffffffffffffffffffffffffffffff02191690556001600360008573ffffffffffffffffffffffffffffffffffffffff1673ffffffffffffffffffffffffffffffffffffffff168152602001908152602001600020600082825403925050819055506001600360008473ffffffffffffffffffffffffffffffffffffffff1673ffffffffffffffffffffffffffffffffffffffff16815260200190815260200160002060008282540192505081905550816002600083815260200190815260200160002060006101000a81548173ffffffffffffffffffffffffffffffffffffffff021916908373ffffffffffffffffffffffffffffffffffffffff160217905550808273ffffffffffffffffffffffffffffffffffffffff168473ffffffffffffffffffffffffffffffffffffffff167fddf252ad1be2c89b69c2b068fc378daa952ba7f163c4a11628f55a4df523b3ef60405160405180910390a4611bc183838360016122c8565b505050565b611bce611558565b73ffffffffffffffffffffffffffffffffffffffff16611bec6111cf565b73ffffffffffffffffffffffffffffffffffffffff1614611c42576040517f08c379a0000000000000000000000000000000000000000000000000000000008152600401611c3990613244565b60405180910390fd5b565b60006009600083815260200190815260200160002060009054906101000a900460ff169050919050565b600080600090505b60078481548110611cb0577f4e487b7100000000000000000000000000000000000000000000000000000000600052603260045260246000fd5b906000526020600020906008020160060180549050811015611dca578273ffffffffffffffffffffffffffffffffffffffff1660078581548110611d1d577f4e487b7100000000000000000000000000000000000000000000000000000000600052603260045260246000fd5b90600052602060002090600802016006018281548110611d66577f4e487b7100000000000000000000000000000000000000000000000000000000600052603260045260246000fd5b9060005260206000200160009054906101000a900473ffffffffffffffffffffffffffffffffffffffff1673ffffffffffffffffffffffffffffffffffffffff161415611db7576001915050611dd0565b8080611dc290613566565b915050611c76565b50600090505b92915050565b60008173ffffffffffffffffffffffffffffffffffffffff1660078481548110611e29577f4e487b7100000000000000000000000000000000000000000000000000000000600052603260045260246000fd5b906000526020600020906008020160010160009054906101000a900473ffffffffffffffffffffffffffffffffffffffff1673ffffffffffffffffffffffffffffffffffffffff1614905092915050565b60006002600083815260200190815260200160002060009054906101000a900473ffffffffffffffffffffffffffffffffffffffff169050919050565b6000600660009054906101000a900473ffffffffffffffffffffffffffffffffffffffff16905081600660006101000a81548173ffffffffffffffffffffffffffffffffffffffff021916908373ffffffffffffffffffffffffffffffffffffffff1602179055508173ffffffffffffffffffffffffffffffffffffffff168173ffffffffffffffffffffffffffffffffffffffff167f8be0079c531659141344cd1fd0a4f28419497f9722a3daafe3b4186f6b6457e060405160405180910390a35050565b8173ffffffffffffffffffffffffffffffffffffffff168373ffffffffffffffffffffffffffffffffffffffff161415611fec576040517f08c379a0000000000000000000000000000000000000000000000000000000008152600401611fe3906131a4565b60405180910390fd5b80600560008573ffffffffffffffffffffffffffffffffffffffff1673ffffffffffffffffffffffffffffffffffffffff16815260200190815260200160002060008473ffffffffffffffffffffffffffffffffffffffff1673ffffffffffffffffffffffffffffffffffffffff16815260200190815260200160002060006101000a81548160ff0219169083151502179055508173ffffffffffffffffffffffffffffffffffffffff168373ffffffffffffffffffffffffffffffffffffffff167f17307eab39ab6107e8899845ad3d59bd9653f200f220920489ca2b5937696c31836040516120dd9190613067565b60405180910390a3505050565b6120f58484846118cc565b612101848484846122ce565b612140576040517f08c379a0000000000000000000000000000000000000000000000000000000008152600401612137906130c4565b60405180910390fd5b50505050565b606060405180602001604052806000815250905090565b60606000600161216c84612465565b01905060008167ffffffffffffffff8111156121b1577f4e487b7100000000000000000000000000000000000000000000000000000000600052604160045260246000fd5b6040519080825280601f01601f1916602001820160405280156121e35781602001600182028036833780820191505090505b509050600082602001820190505b600115612276578080600190039150507f3031323334353637383961626364656600000000000000000000000000000000600a86061a8153600a8581612260577f4e487b7100000000000000000000000000000000000000000000000000000000600052601260045260246000fd5b049450600085141561227157612276565b6121f1565b819350505050919050565b60008073ffffffffffffffffffffffffffffffffffffffff166122a383611e7a565b73ffffffffffffffffffffffffffffffffffffffff1614159050919050565b50505050565b50505050565b60006122ef8473ffffffffffffffffffffffffffffffffffffffff1661269c565b15612458578373ffffffffffffffffffffffffffffffffffffffff1663150b7a02612318611558565b8786866040518563ffffffff1660e01b815260040161233a9493929190612fb3565b602060405180830381600087803b15801561235457600080fd5b505af192505050801561238557506040513d601f19601f820116820180604052508101906123829190612af5565b60015b612408573d80600081146123b5576040519150601f19603f3d011682016040523d82523d6000602084013e6123ba565b606091505b50600081511415612400576040517f08c379a00000000000000000000000000000000000000000000000000000000081526004016123f7906130c4565b60405180910390fd5b805181602001fd5b63150b7a0260e01b7bffffffffffffffffffffffffffffffffffffffffffffffffffffffff1916817bffffffffffffffffffffffffffffffffffffffffffffffffffffffff19161491505061245d565b600190505b949350505050565b600080600090507a184f03e93ff9f4daa797ed6e38ed64bf6a1f01000000000000000083106124e9577a184f03e93ff9f4daa797ed6e38ed64bf6a1f01000000000000000083816124df577f4e487b7100000000000000000000000000000000000000000000000000000000600052601260045260246000fd5b0492506040810190505b6d04ee2d6d415b85acef8100000000831061254c576d04ee2d6d415b85acef81000000008381612542577f4e487b7100000000000000000000000000000000000000000000000000000000600052601260045260246000fd5b0492506020810190505b662386f26fc1000083106125a157662386f26fc100008381612597577f4e487b7100000000000000000000000000000000000000000000000000000000600052601260045260246000fd5b0492506010810190505b6305f5e10083106125f0576305f5e10083816125e6577f4e487b7100000000000000000000000000000000000000000000000000000000600052601260045260246000fd5b0492506008810190505b612710831061263b576127108381612631577f4e487b7100000000000000000000000000000000000000000000000000000000600052601260045260246000fd5b0492506004810190505b60648310612684576064838161267a577f4e487b7100000000000000000000000000000000000000000000000000000000600052601260045260246000fd5b0492506002810190505b600a8310612693576001810190505b80915050919050565b6000808273ffffffffffffffffffffffffffffffffffffffff163b119050919050565b8280546126cb90613503565b90600052602060002090601f0160209004810192826126ed5760008555612734565b82601f1061270657805160ff1916838001178555612734565b82800160010185558215612734579182015b82811115612733578251825591602001919060010190612718565b5b50905061274191906127cf565b5090565b8280548282559060005260206000209081019282156127be579160200282015b828111156127bd5782518260006101000a81548173ffffffffffffffffffffffffffffffffffffffff021916908373ffffffffffffffffffffffffffffffffffffffff16021790555091602001919060010190612765565b5b5090506127cb91906127cf565b5090565b5b808211156127e85760008160009055506001016127d0565b5090565b60006127ff6127fa846133a8565b613383565b90508281526020810184848401111561281757600080fd5b6128228482856134c1565b509392505050565b600061283d612838846133d9565b613383565b90508281526020810184848401111561285557600080fd5b6128608482856134c1565b509392505050565b60008135905061287781613a5f565b92915050565b60008135905061288c81613a76565b92915050565b6000813590506128a181613a8d565b92915050565b6000815190506128b681613a8d565b92915050565b600082601f8301126128cd57600080fd5b81356128dd8482602086016127ec565b91505092915050565b600082601f8301126128f757600080fd5b813561290784826020860161282a565b91505092915050565b60008135905061291f81613aa4565b92915050565b60006020828403121561293757600080fd5b600061294584828501612868565b91505092915050565b6000806040838503121561296157600080fd5b600061296f85828601612868565b925050602061298085828601612868565b9150509250929050565b60008060006060848603121561299f57600080fd5b60006129ad86828701612868565b93505060206129be86828701612868565b92505060406129cf86828701612910565b9150509250925092565b600080600080608085870312156129ef57600080fd5b60006129fd87828801612868565b9450506020612a0e87828801612868565b9350506040612a1f87828801612910565b925050606085013567ffffffffffffffff811115612a3c57600080fd5b612a48878288016128bc565b91505092959194509250565b60008060408385031215612a6757600080fd5b6000612a7585828601612868565b9250506020612a868582860161287d565b9150509250929050565b60008060408385031215612aa357600080fd5b6000612ab185828601612868565b9250506020612ac285828601612910565b9150509250929050565b600060208284031215612ade57600080fd5b6000612aec84828501612892565b91505092915050565b600060208284031215612b0757600080fd5b6000612b15848285016128a7565b91505092915050565b60008060008060808587031215612b3457600080fd5b600085013567ffffffffffffffff811115612b4e57600080fd5b612b5a878288016128e6565b945050602085013567ffffffffffffffff811115612b7757600080fd5b612b83878288016128e6565b935050604085013567ffffffffffffffff811115612ba057600080fd5b612bac878288016128e6565b9250506060612bbd87828801612910565b91505092959194509250565b600060208284031215612bdb57600080fd5b6000612be984828501612910565b91505092915050565b60008060408385031215612c0557600080fd5b6000612c1385828601612910565b9250506020612c2485828601612868565b9150509250929050565b612c378161344d565b82525050565b612c468161345f565b82525050565b6000612c578261340a565b612c618185613420565b9350612c718185602086016134d0565b612c7a8161363c565b840191505092915050565b6000612c9082613415565b612c9a8185613431565b9350612caa8185602086016134d0565b612cb38161363c565b840191505092915050565b6000612cc982613415565b612cd38185613442565b9350612ce38185602086016134d0565b80840191505092915050565b6000612cfc602d83613431565b9150612d078261364d565b604082019050919050565b6000612d1f603283613431565b9150612d2a8261369c565b604082019050919050565b6000612d42602683613431565b9150612d4d826136eb565b604082019050919050565b6000612d65602583613431565b9150612d708261373a565b604082019050919050565b6000612d88601c83613431565b9150612d9382613789565b602082019050919050565b6000612dab601183613431565b9150612db6826137b2565b602082019050919050565b6000612dce601383613431565b9150612dd9826137db565b602082019050919050565b6000612df1602483613431565b9150612dfc82613804565b604082019050919050565b6000612e14601983613431565b9150612e1f82613853565b602082019050919050565b6000612e37601483613431565b9150612e428261387c565b602082019050919050565b6000612e5a602983613431565b9150612e65826138a5565b604082019050919050565b6000612e7d601983613431565b9150612e88826138f4565b602082019050919050565b6000612ea0602083613431565b9150612eab8261391d565b602082019050919050565b6000612ec3602083613431565b9150612ece82613946565b602082019050919050565b6000612ee6601a83613431565b9150612ef18261396f565b602082019050919050565b6000612f09601883613431565b9150612f1482613998565b602082019050919050565b6000612f2c602183613431565b9150612f37826139c1565b604082019050919050565b6000612f4f603d83613431565b9150612f5a82613a10565b604082019050919050565b612f6e816134b7565b82525050565b6000612f808285612cbe565b9150612f8c8284612cbe565b91508190509392505050565b6000602082019050612fad6000830184612c2e565b92915050565b6000608082019050612fc86000830187612c2e565b612fd56020830186612c2e565b612fe26040830185612f65565b8181036060830152612ff48184612c4c565b905095945050505050565b600060a0820190506130146000830188612c2e565b81810360208301526130268187612c85565b9050818103604083015261303a8186612c85565b9050818103606083015261304e8185612c85565b905061305d6080830184612f65565b9695505050505050565b600060208201905061307c6000830184612c3d565b92915050565b6000602082019050818103600083015261309c8184612c85565b905092915050565b600060208201905081810360008301526130bd81612cef565b9050919050565b600060208201905081810360008301526130dd81612d12565b9050919050565b600060208201905081810360008301526130fd81612d35565b9050919050565b6000602082019050818103600083015261311d81612d58565b9050919050565b6000602082019050818103600083015261313d81612d7b565b9050919050565b6000602082019050818103600083015261315d81612d9e565b9050919050565b6000602082019050818103600083015261317d81612dc1565b9050919050565b6000602082019050818103600083015261319d81612de4565b9050919050565b600060208201905081810360008301526131bd81612e07565b9050919050565b600060208201905081810360008301526131dd81612e2a565b9050919050565b600060208201905081810360008301526131fd81612e4d565b9050919050565b6000602082019050818103600083015261321d81612e70565b9050919050565b6000602082019050818103600083015261323d81612e93565b9050919050565b6000602082019050818103600083015261325d81612eb6565b9050919050565b6000602082019050818103600083015261327d81612ed9565b9050919050565b6000602082019050818103600083015261329d81612efc565b9050919050565b600060208201905081810360008301526132bd81612f1f565b9050919050565b600060208201905081810360008301526132dd81612f42565b9050919050565b60006020820190506132f96000830184612f65565b92915050565b600060e082019050613314600083018a612f65565b6133216020830189612c2e565b81810360408301526133338188612c85565b905081810360608301526133478187612c85565b9050818103608083015261335b8186612c85565b905061336a60a0830185612f65565b61337760c0830184612c2e565b98975050505050505050565b600061338d61339e565b90506133998282613535565b919050565b6000604051905090565b600067ffffffffffffffff8211156133c3576133c261360d565b5b6133cc8261363c565b9050602081019050919050565b600067ffffffffffffffff8211156133f4576133f361360d565b5b6133fd8261363c565b9050602081019050919050565b600081519050919050565b600081519050919050565b600082825260208201905092915050565b600082825260208201905092915050565b600081905092915050565b600061345882613497565b9050919050565b60008115159050919050565b60007fffffffff0000000000000000000000000000000000000000000000000000000082169050919050565b600073ffffffffffffffffffffffffffffffffffffffff82169050919050565b6000819050919050565b82818337600083830152505050565b60005b838110156134ee5780820151818401526020810190506134d3565b838111156134fd576000848401525b50505050565b6000600282049050600182168061351b57607f821691505b6020821081141561352f5761352e6135de565b5b50919050565b61353e8261363c565b810181811067ffffffffffffffff8211171561355d5761355c61360d565b5b80604052505050565b6000613571826134b7565b91507fffffffffffffffffffffffffffffffffffffffffffffffffffffffffffffffff8214156135a4576135a36135af565b5b600182019050919050565b7f4e487b7100000000000000000000000000000000000000000000000000000000600052601160045260246000fd5b7f4e487b7100000000000000000000000000000000000000000000000000000000600052602260045260246000fd5b7f4e487b7100000000000000000000000000000000000000000000000000000000600052604160045260246000fd5b6000601f19601f8301169050919050565b7f4552433732313a2063616c6c6572206973206e6f7420746f6b656e206f776e6560008201527f72206f7220617070726f76656400000000000000000000000000000000000000602082015250565b7f4552433732313a207472616e7366657220746f206e6f6e20455243373231526560008201527f63656976657220696d706c656d656e7465720000000000000000000000000000602082015250565b7f4f776e61626c653a206e6577206f776e657220697320746865207a65726f206160008201527f6464726573730000000000000000000000000000000000000000000000000000602082015250565b7f4552433732313a207472616e736665722066726f6d20696e636f72726563742060008201527f6f776e6572000000000000000000000000000000000000000000000000000000602082015250565b7f4552433732313a20746f6b656e20616c7265616479206d696e74656400000000600082015250565b7f52657761726420697320746f6f206c6f77000000000000000000000000000000600082015250565b7f5461736b20646f6573206e6f7420657869737400000000000000000000000000600082015250565b7f4552433732313a207472616e7366657220746f20746865207a65726f2061646460008201527f7265737300000000000000000000000000000000000000000000000000000000602082015250565b7f4552433732313a20617070726f766520746f2063616c6c657200000000000000600082015250565b7f416c726561647920706172746963697061746564000000000000000000000000600082015250565b7f4552433732313a2061646472657373207a65726f206973206e6f74206120766160008201527f6c6964206f776e65720000000000000000000000000000000000000000000000602082015250565b7f5461736b20697320616c726561647920636f6d706c6574656400000000000000600082015250565b7f4552433732313a206d696e7420746f20746865207a65726f2061646472657373600082015250565b7f4f776e61626c653a2063616c6c6572206973206e6f7420746865206f776e6572600082015250565b7f57696e6e657220646964206e6f74207061727469636970617465000000000000600082015250565b7f4552433732313a20696e76616c696420746f6b656e2049440000000000000000600082015250565b7f4552433732313a20617070726f76616c20746f2063757272656e74206f776e6560008201527f7200000000000000000000000000000000000000000000000000000000000000602082015250565b7f4552433732313a20617070726f76652063616c6c6572206973206e6f7420746f60008201527f6b656e206f776e6572206f7220617070726f76656420666f7220616c6c000000602082015250565b613a688161344d565b8114613a7357600080fd5b50565b613a7f8161345f565b8114613a8a57600080fd5b50565b613a968161346b565b8114613aa157600080fd5b50565b613aad816134b7565b8114613ab857600080fd5b5056fea264697066735822122004366a7f6ecc236b2983f0182ae387c5a3b101da1cf7e61bb49aba6d50d406f164736f6c63430008040033",
  "immutableReferences": {},
  "source": "// SPDX-License-Identifier: MIT\npragma solidity ^0.8.0;\n\nimport \"@openzeppelin/contracts/token/ERC721/ERC721.sol\";\nimport \"@openzeppelin/contracts/access/Ownable.sol\";\n\ncontract Tasks is ERC721, Ownable {\n    struct Task {\n        uint256 tokenId;\n        address owner;\n        string title;\n        string description;\n        string imageURI;\n        uint256 reward;\n        address[] participants;\n        address winner;\n    }\n\n    Task[] public tasks;\n\n    mapping(uint256 => bool) public taskExists;\n    mapping(uint256 => bool) public taskCompleted;\n\n    uint256 public minimumReward = 0; // Minimum reward is 5 GLMR tokens\n\n    event TaskCreated(uint256 indexed taskId, address owner, string title, string description, string imageURI, uint256 reward);\n    event TaskCompleted(uint256 indexed taskId, address winner);\n\n    constructor() ERC721(\"Tasks\", \"TASK\") {}\n\n    function createTask(string memory _title, string memory _description, string memory _imageURI, uint256 _reward) public {\n        require(_reward >= minimumReward, \"Reward is too low\");\n\n        Task memory newTask = Task({\n            tokenId: tasks.length,\n            owner: msg.sender,\n            title: _title,\n            description: _description,\n            imageURI: _imageURI,\n            reward: _reward,\n            participants: new address[](0),\n            winner: address(0)\n        });\n\n        tasks.push(newTask);\n\n        _mint(msg.sender, newTask.tokenId);\n        taskExists[newTask.tokenId] = true;\n\n        emit TaskCreated(newTask.tokenId, msg.sender, _title, _description, _imageURI, _reward);\n    }\n\n    function participate(uint256 _taskId) public {\n        require(taskExists[_taskId], \"Task does not exist\");\n        require(!_isParticipant(_taskId, msg.sender), \"Already participated\");\n\n        tasks[_taskId].participants.push(msg.sender);\n    }\n\n    function chooseWinner(uint256 _taskId, address _winner) public onlyOwner {\n        require(taskExists[_taskId], \"Task does not exist\");\n        require(!_isCompleted(_taskId), \"Task is already completed\");\n        require(_isParticipant(_taskId, _winner), \"Winner did not participate\");\n        require(_isOwner(_taskId, msg.sender));\n\n        tasks[_taskId].winner = _winner;\n        taskCompleted[_taskId] = true;\n\n        _transfer(address(this), _winner, _taskId);\n\n        emit TaskCompleted(_taskId, _winner);\n    }\n\n    function _isParticipant(uint256 _taskId, address _participant) private view returns (bool) {\n        for (uint256 i = 0; i < tasks[_taskId].participants.length; i++) {\n            if (tasks[_taskId].participants[i] == _participant) {\n                return true;\n            }\n        }\n        return false;\n    }\n\n    function _isCompleted(uint256 _taskId) private view returns (bool) {\n        return taskCompleted[_taskId];\n    }\n\n    function _isOwner(uint256 _taskId, address walletCheck) private view returns (bool) {\n        return tasks[_taskId].owner == walletCheck;\n    }\n}\n",
  "sourcePath": "/home/crosta/task-sama/truffle/contracts/Tasks.sol",
  "compiler": {
    "name": "solc",
    "version": "0.8.4+commit.c7e474f2.Emscripten.clang"
  },
  "schemaVersion": "3.4.12",
  "updatedAt": "2023-04-15T22:46:23.885Z",
  "networkType": "ethereum",
  "devdoc": {
    "kind": "dev",
    "methods": {
      "approve(address,uint256)": {
        "details": "See {IERC721-approve}."
      },
      "balanceOf(address)": {
        "details": "See {IERC721-balanceOf}."
      },
      "getApproved(uint256)": {
        "details": "See {IERC721-getApproved}."
      },
      "isApprovedForAll(address,address)": {
        "details": "See {IERC721-isApprovedForAll}."
      },
      "name()": {
        "details": "See {IERC721Metadata-name}."
      },
      "owner()": {
        "details": "Returns the address of the current owner."
      },
      "ownerOf(uint256)": {
        "details": "See {IERC721-ownerOf}."
      },
      "renounceOwnership()": {
        "details": "Leaves the contract without owner. It will not be possible to call `onlyOwner` functions anymore. Can only be called by the current owner. NOTE: Renouncing ownership will leave the contract without an owner, thereby removing any functionality that is only available to the owner."
      },
      "safeTransferFrom(address,address,uint256)": {
        "details": "See {IERC721-safeTransferFrom}."
      },
      "safeTransferFrom(address,address,uint256,bytes)": {
        "details": "See {IERC721-safeTransferFrom}."
      },
      "setApprovalForAll(address,bool)": {
        "details": "See {IERC721-setApprovalForAll}."
      },
      "supportsInterface(bytes4)": {
        "details": "See {IERC165-supportsInterface}."
      },
      "symbol()": {
        "details": "See {IERC721Metadata-symbol}."
      },
      "tokenURI(uint256)": {
        "details": "See {IERC721Metadata-tokenURI}."
      },
      "transferFrom(address,address,uint256)": {
        "details": "See {IERC721-transferFrom}."
      },
      "transferOwnership(address)": {
        "details": "Transfers ownership of the contract to a new account (`newOwner`). Can only be called by the current owner."
      }
    },
    "version": 1
  },
  "userdoc": {
    "kind": "user",
    "methods": {},
    "version": 1
  }
}