{
  "contractName": "TaskSama",
  "abi": [
    {
      "inputs": [],
      "stateMutability": "nonpayable",
      "type": "constructor"
    },
    {
      "anonymous": false,
      "inputs": [
        {
          "indexed": true,
          "internalType": "address",
          "name": "owner",
          "type": "address"
        },
        {
          "indexed": true,
          "internalType": "address",
          "name": "approved",
          "type": "address"
        },
        {
          "indexed": true,
          "internalType": "uint256",
          "name": "tokenId",
          "type": "uint256"
        }
      ],
      "name": "Approval",
      "type": "event"
    },
    {
      "anonymous": false,
      "inputs": [
        {
          "indexed": true,
          "internalType": "address",
          "name": "owner",
          "type": "address"
        },
        {
          "indexed": true,
          "internalType": "address",
          "name": "operator",
          "type": "address"
        },
        {
          "indexed": false,
          "internalType": "bool",
          "name": "approved",
          "type": "bool"
        }
      ],
      "name": "ApprovalForAll",
      "type": "event"
    },
    {
      "anonymous": false,
      "inputs": [
        {
          "indexed": true,
          "internalType": "address",
          "name": "previousOwner",
          "type": "address"
        },
        {
          "indexed": true,
          "internalType": "address",
          "name": "newOwner",
          "type": "address"
        }
      ],
      "name": "OwnershipTransferred",
      "type": "event"
    },
    {
      "anonymous": false,
      "inputs": [
        {
          "indexed": true,
          "internalType": "address",
          "name": "from",
          "type": "address"
        },
        {
          "indexed": true,
          "internalType": "address",
          "name": "to",
          "type": "address"
        },
        {
          "indexed": true,
          "internalType": "uint256",
          "name": "tokenId",
          "type": "uint256"
        }
      ],
      "name": "Transfer",
      "type": "event"
    },
    {
      "inputs": [
        {
          "internalType": "address",
          "name": "to",
          "type": "address"
        },
        {
          "internalType": "uint256",
          "name": "tokenId",
          "type": "uint256"
        }
      ],
      "name": "approve",
      "outputs": [],
      "stateMutability": "nonpayable",
      "type": "function"
    },
    {
      "inputs": [
        {
          "internalType": "address",
          "name": "owner",
          "type": "address"
        }
      ],
      "name": "balanceOf",
      "outputs": [
        {
          "internalType": "uint256",
          "name": "",
          "type": "uint256"
        }
      ],
      "stateMutability": "view",
      "type": "function",
      "constant": true
    },
    {
      "inputs": [
        {
          "internalType": "uint256",
          "name": "tokenId",
          "type": "uint256"
        }
      ],
      "name": "getApproved",
      "outputs": [
        {
          "internalType": "address",
          "name": "",
          "type": "address"
        }
      ],
      "stateMutability": "view",
      "type": "function",
      "constant": true
    },
    {
      "inputs": [
        {
          "internalType": "address",
          "name": "owner",
          "type": "address"
        },
        {
          "internalType": "address",
          "name": "operator",
          "type": "address"
        }
      ],
      "name": "isApprovedForAll",
      "outputs": [
        {
          "internalType": "bool",
          "name": "",
          "type": "bool"
        }
      ],
      "stateMutability": "view",
      "type": "function",
      "constant": true
    },
    {
      "inputs": [],
      "name": "name",
      "outputs": [
        {
          "internalType": "string",
          "name": "",
          "type": "string"
        }
      ],
      "stateMutability": "view",
      "type": "function",
      "constant": true
    },
    {
      "inputs": [],
      "name": "owner",
      "outputs": [
        {
          "internalType": "address",
          "name": "",
          "type": "address"
        }
      ],
      "stateMutability": "view",
      "type": "function",
      "constant": true
    },
    {
      "inputs": [
        {
          "internalType": "uint256",
          "name": "tokenId",
          "type": "uint256"
        }
      ],
      "name": "ownerOf",
      "outputs": [
        {
          "internalType": "address",
          "name": "",
          "type": "address"
        }
      ],
      "stateMutability": "view",
      "type": "function",
      "constant": true
    },
    {
      "inputs": [],
      "name": "renounceOwnership",
      "outputs": [],
      "stateMutability": "nonpayable",
      "type": "function"
    },
    {
      "inputs": [
        {
          "internalType": "address",
          "name": "from",
          "type": "address"
        },
        {
          "internalType": "address",
          "name": "to",
          "type": "address"
        },
        {
          "internalType": "uint256",
          "name": "tokenId",
          "type": "uint256"
        }
      ],
      "name": "safeTransferFrom",
      "outputs": [],
      "stateMutability": "nonpayable",
      "type": "function"
    },
    {
      "inputs": [
        {
          "internalType": "address",
          "name": "from",
          "type": "address"
        },
        {
          "internalType": "address",
          "name": "to",
          "type": "address"
        },
        {
          "internalType": "uint256",
          "name": "tokenId",
          "type": "uint256"
        },
        {
          "internalType": "bytes",
          "name": "data",
          "type": "bytes"
        }
      ],
      "name": "safeTransferFrom",
      "outputs": [],
      "stateMutability": "nonpayable",
      "type": "function"
    },
    {
      "inputs": [
        {
          "internalType": "address",
          "name": "operator",
          "type": "address"
        },
        {
          "internalType": "bool",
          "name": "approved",
          "type": "bool"
        }
      ],
      "name": "setApprovalForAll",
      "outputs": [],
      "stateMutability": "nonpayable",
      "type": "function"
    },
    {
      "inputs": [
        {
          "internalType": "bytes4",
          "name": "interfaceId",
          "type": "bytes4"
        }
      ],
      "name": "supportsInterface",
      "outputs": [
        {
          "internalType": "bool",
          "name": "",
          "type": "bool"
        }
      ],
      "stateMutability": "view",
      "type": "function",
      "constant": true
    },
    {
      "inputs": [],
      "name": "symbol",
      "outputs": [
        {
          "internalType": "string",
          "name": "",
          "type": "string"
        }
      ],
      "stateMutability": "view",
      "type": "function",
      "constant": true
    },
    {
      "inputs": [
        {
          "internalType": "uint256",
          "name": "tokenId",
          "type": "uint256"
        }
      ],
      "name": "tokenURI",
      "outputs": [
        {
          "internalType": "string",
          "name": "",
          "type": "string"
        }
      ],
      "stateMutability": "view",
      "type": "function",
      "constant": true
    },
    {
      "inputs": [
        {
          "internalType": "address",
          "name": "from",
          "type": "address"
        },
        {
          "internalType": "address",
          "name": "to",
          "type": "address"
        },
        {
          "internalType": "uint256",
          "name": "tokenId",
          "type": "uint256"
        }
      ],
      "name": "transferFrom",
      "outputs": [],
      "stateMutability": "nonpayable",
      "type": "function"
    },
    {
      "inputs": [
        {
          "internalType": "address",
          "name": "newOwner",
          "type": "address"
        }
      ],
      "name": "transferOwnership",
      "outputs": [],
      "stateMutability": "nonpayable",
      "type": "function"
    },
    {
      "inputs": [
        {
          "internalType": "address",
          "name": "recipient",
          "type": "address"
        },
        {
          "internalType": "string",
          "name": "title",
          "type": "string"
        },
        {
          "internalType": "string",
          "name": "description",
          "type": "string"
        },
        {
          "internalType": "string",
          "name": "ipfsUrl",
          "type": "string"
        },
        {
          "internalType": "uint256",
          "name": "rewardEarned",
          "type": "uint256"
        },
        {
          "internalType": "address[]",
          "name": "participants",
          "type": "address[]"
        }
      ],
      "name": "mintVideoNFT",
      "outputs": [
        {
          "internalType": "uint256",
          "name": "",
          "type": "uint256"
        }
      ],
      "stateMutability": "nonpayable",
      "type": "function"
    },
    {
      "inputs": [
        {
          "internalType": "uint256",
          "name": "tokenId",
          "type": "uint256"
        }
      ],
      "name": "getVideoData",
      "outputs": [
        {
          "components": [
            {
              "internalType": "string",
              "name": "title",
              "type": "string"
            },
            {
              "internalType": "string",
              "name": "description",
              "type": "string"
            },
            {
              "internalType": "string",
              "name": "ipfsUrl",
              "type": "string"
            },
            {
              "internalType": "uint256",
              "name": "rewardEarned",
              "type": "uint256"
            },
            {
              "internalType": "address",
              "name": "winner",
              "type": "address"
            },
            {
              "internalType": "uint256",
              "name": "timestamp",
              "type": "uint256"
            }
          ],
          "internalType": "struct TaskSama.Video",
          "name": "",
          "type": "tuple"
        }
      ],
      "stateMutability": "view",
      "type": "function",
      "constant": true
    }
  ],
  "bytecode": "0x608060405234801562000010575f80fd5b506040518060400160405280600881526020017f5461736b53616d610000000000000000000000000000000000000000000000008152506040518060400160405280600381526020017f54534b0000000000000000000000000000000000000000000000000000000000815250815f90816200008d9190620003f6565b5080600190816200009f9190620003f6565b505050620000c2620000b6620000c860201b60201c565b620000cf60201b60201c565b620004da565b5f33905090565b5f60065f9054906101000a900473ffffffffffffffffffffffffffffffffffffffff1690508160065f6101000a81548173ffffffffffffffffffffffffffffffffffffffff021916908373ffffffffffffffffffffffffffffffffffffffff1602179055508173ffffffffffffffffffffffffffffffffffffffff168173ffffffffffffffffffffffffffffffffffffffff167f8be0079c531659141344cd1fd0a4f28419497f9722a3daafe3b4186f6b6457e060405160405180910390a35050565b5f81519050919050565b7f4e487b71000000000000000000000000000000000000000000000000000000005f52604160045260245ffd5b7f4e487b71000000000000000000000000000000000000000000000000000000005f52602260045260245ffd5b5f60028204905060018216806200020e57607f821691505b602082108103620002245762000223620001c9565b5b50919050565b5f819050815f5260205f209050919050565b5f6020601f8301049050919050565b5f82821b905092915050565b5f60088302620002887fffffffffffffffffffffffffffffffffffffffffffffffffffffffffffffffff826200024b565b6200029486836200024b565b95508019841693508086168417925050509392505050565b5f819050919050565b5f819050919050565b5f620002de620002d8620002d284620002ac565b620002b5565b620002ac565b9050919050565b5f819050919050565b620002f983620002be565b620003116200030882620002e5565b84845462000257565b825550505050565b5f90565b6200032762000319565b62000334818484620002ee565b505050565b5b818110156200035b576200034f5f826200031d565b6001810190506200033a565b5050565b601f821115620003aa5762000374816200022a565b6200037f846200023c565b810160208510156200038f578190505b620003a76200039e856200023c565b83018262000339565b50505b505050565b5f82821c905092915050565b5f620003cc5f1984600802620003af565b1980831691505092915050565b5f620003e68383620003bb565b9150826002028217905092915050565b620004018262000192565b67ffffffffffffffff8111156200041d576200041c6200019c565b5b620004298254620001f6565b620004368282856200035f565b5f60209050601f8311600181146200046c575f841562000457578287015190505b620004638582620003d9565b865550620004d2565b601f1984166200047c866200022a565b5f5b82811015620004a5578489015182556001820191506020850194506020810190506200047e565b86831015620004c55784890151620004c1601f891682620003bb565b8355505b6001600288020188555050505b505050505050565b61324d80620004e85f395ff3fe608060405234801561000f575f80fd5b5060043610610114575f3560e01c80637550ae13116100a0578063b88d4fde1161006f578063b88d4fde146102dc578063c87b56dd146102f8578063e985e9c514610328578063f249e3cc14610358578063f2fde38b1461038857610114565b80637550ae13146102545780638da5cb5b1461028457806395d89b41146102a2578063a22cb465146102c057610114565b806323b872dd116100e757806323b872dd146101b257806342842e0e146101ce5780636352211e146101ea57806370a082311461021a578063715018a61461024a57610114565b806301ffc9a71461011857806306fdde0314610148578063081812fc14610166578063095ea7b314610196575b5f80fd5b610132600480360381019061012d9190611e79565b6103a4565b60405161013f9190611ebe565b60405180910390f35b610150610485565b60405161015d9190611f61565b60405180910390f35b610180600480360381019061017b9190611fb4565b610514565b60405161018d919061201e565b60405180910390f35b6101b060048036038101906101ab9190612061565b610556565b005b6101cc60048036038101906101c7919061209f565b61066c565b005b6101e860048036038101906101e3919061209f565b6106cc565b005b61020460048036038101906101ff9190611fb4565b6106eb565b604051610211919061201e565b60405180910390f35b610234600480360381019061022f91906120ef565b61076f565b6040516102419190612129565b60405180910390f35b610252610823565b005b61026e60048036038101906102699190612332565b610836565b60405161027b9190612129565b60405180910390f35b61028c610976565b604051610299919061201e565b60405180910390f35b6102aa61099e565b6040516102b79190611f61565b60405180910390f35b6102da60048036038101906102d59190612455565b610a2e565b005b6102f660048036038101906102f19190612531565b610a44565b005b610312600480360381019061030d9190611fb4565b610aa6565b60405161031f9190611f61565b60405180910390f35b610342600480360381019061033d91906125b1565b610b0b565b60405161034f9190611ebe565b60405180910390f35b610372600480360381019061036d9190611fb4565b610b99565b60405161037f91906126e9565b60405180910390f35b6103a2600480360381019061039d91906120ef565b610e24565b005b5f7f80ac58cd000000000000000000000000000000000000000000000000000000007bffffffffffffffffffffffffffffffffffffffffffffffffffffffff1916827bffffffffffffffffffffffffffffffffffffffffffffffffffffffff1916148061046e57507f5b5e139f000000000000000000000000000000000000000000000000000000007bffffffffffffffffffffffffffffffffffffffffffffffffffffffff1916827bffffffffffffffffffffffffffffffffffffffffffffffffffffffff1916145b8061047e575061047d82610ea6565b5b9050919050565b60605f805461049390612736565b80601f01602080910402602001604051908101604052809291908181526020018280546104bf90612736565b801561050a5780601f106104e15761010080835404028352916020019161050a565b820191905f5260205f20905b8154815290600101906020018083116104ed57829003601f168201915b5050505050905090565b5f61051e82610f0f565b60045f8381526020019081526020015f205f9054906101000a900473ffffffffffffffffffffffffffffffffffffffff169050919050565b5f610560826106eb565b90508073ffffffffffffffffffffffffffffffffffffffff168373ffffffffffffffffffffffffffffffffffffffff16036105d0576040517f08c379a00000000000000000000000000000000000000000000000000000000081526004016105c7906127d6565b60405180910390fd5b8073ffffffffffffffffffffffffffffffffffffffff166105ef610f5a565b73ffffffffffffffffffffffffffffffffffffffff16148061061e575061061d81610618610f5a565b610b0b565b5b61065d576040517f08c379a000000000000000000000000000000000000000000000000000000000815260040161065490612864565b60405180910390fd5b6106678383610f61565b505050565b61067d610677610f5a565b82611017565b6106bc576040517f08c379a00000000000000000000000000000000000000000000000000000000081526004016106b3906128f2565b60405180910390fd5b6106c78383836110ab565b505050565b6106e683838360405180602001604052805f815250610a44565b505050565b5f806106f683611397565b90505f73ffffffffffffffffffffffffffffffffffffffff168173ffffffffffffffffffffffffffffffffffffffff1603610766576040517f08c379a000000000000000000000000000000000000000000000000000000000815260040161075d9061295a565b60405180910390fd5b80915050919050565b5f8073ffffffffffffffffffffffffffffffffffffffff168273ffffffffffffffffffffffffffffffffffffffff16036107de576040517f08c379a00000000000000000000000000000000000000000000000000000000081526004016107d5906129e8565b60405180910390fd5b60035f8373ffffffffffffffffffffffffffffffffffffffff1673ffffffffffffffffffffffffffffffffffffffff1681526020019081526020015f20549050919050565b61082b6113d0565b6108345f61144e565b565b5f61083f6113d0565b6108496007611511565b5f6108546007611525565b90506108608882611531565b8260099080519060200190610876929190611d28565b506040518060c001604052808881526020018781526020018681526020018581526020018973ffffffffffffffffffffffffffffffffffffffff1681526020014281525060085f8381526020019081526020015f205f820151815f0190816108de9190612ba3565b5060208201518160010190816108f49190612ba3565b50604082015181600201908161090a9190612ba3565b50606082015181600301556080820151816004015f6101000a81548173ffffffffffffffffffffffffffffffffffffffff021916908373ffffffffffffffffffffffffffffffffffffffff16021790555060a08201518160050155905050809150509695505050505050565b5f60065f9054906101000a900473ffffffffffffffffffffffffffffffffffffffff16905090565b6060600180546109ad90612736565b80601f01602080910402602001604051908101604052809291908181526020018280546109d990612736565b8015610a245780601f106109fb57610100808354040283529160200191610a24565b820191905f5260205f20905b815481529060010190602001808311610a0757829003601f168201915b5050505050905090565b610a40610a39610f5a565b8383611744565b5050565b610a55610a4f610f5a565b83611017565b610a94576040517f08c379a0000000000000000000000000000000000000000000000000000000008152600401610a8b906128f2565b60405180910390fd5b610aa0848484846118ab565b50505050565b6060610ab182610f0f565b5f610aba611907565b90505f815111610ad85760405180602001604052805f815250610b03565b80610ae28461191d565b604051602001610af3929190612cac565b6040516020818303038152906040525b915050919050565b5f60055f8473ffffffffffffffffffffffffffffffffffffffff1673ffffffffffffffffffffffffffffffffffffffff1681526020019081526020015f205f8373ffffffffffffffffffffffffffffffffffffffff1673ffffffffffffffffffffffffffffffffffffffff1681526020019081526020015f205f9054906101000a900460ff16905092915050565b610ba1611daf565b610baa826119e7565b610be9576040517f08c379a0000000000000000000000000000000000000000000000000000000008152600401610be090612d19565b60405180910390fd5b60085f8381526020019081526020015f206040518060c00160405290815f82018054610c1490612736565b80601f0160208091040260200160405190810160405280929190818152602001828054610c4090612736565b8015610c8b5780601f10610c6257610100808354040283529160200191610c8b565b820191905f5260205f20905b815481529060010190602001808311610c6e57829003601f168201915b50505050508152602001600182018054610ca490612736565b80601f0160208091040260200160405190810160405280929190818152602001828054610cd090612736565b8015610d1b5780601f10610cf257610100808354040283529160200191610d1b565b820191905f5260205f20905b815481529060010190602001808311610cfe57829003601f168201915b50505050508152602001600282018054610d3490612736565b80601f0160208091040260200160405190810160405280929190818152602001828054610d6090612736565b8015610dab5780601f10610d8257610100808354040283529160200191610dab565b820191905f5260205f20905b815481529060010190602001808311610d8e57829003601f168201915b5050505050815260200160038201548152602001600482015f9054906101000a900473ffffffffffffffffffffffffffffffffffffffff1673ffffffffffffffffffffffffffffffffffffffff1673ffffffffffffffffffffffffffffffffffffffff1681526020016005820154815250509050919050565b610e2c6113d0565b5f73ffffffffffffffffffffffffffffffffffffffff168173ffffffffffffffffffffffffffffffffffffffff1603610e9a576040517f08c379a0000000000000000000000000000000000000000000000000000000008152600401610e9190612da7565b60405180910390fd5b610ea38161144e565b50565b5f7f01ffc9a7000000000000000000000000000000000000000000000000000000007bffffffffffffffffffffffffffffffffffffffffffffffffffffffff1916827bffffffffffffffffffffffffffffffffffffffffffffffffffffffff1916149050919050565b610f18816119e7565b610f57576040517f08c379a0000000000000000000000000000000000000000000000000000000008152600401610f4e9061295a565b60405180910390fd5b50565b5f33905090565b8160045f8381526020019081526020015f205f6101000a81548173ffffffffffffffffffffffffffffffffffffffff021916908373ffffffffffffffffffffffffffffffffffffffff160217905550808273ffffffffffffffffffffffffffffffffffffffff16610fd1836106eb565b73ffffffffffffffffffffffffffffffffffffffff167f8c5be1e5ebec7d5bd14f71427d1e84f3dd0314c0f7b2291e5b200ac8c7c3b92560405160405180910390a45050565b5f80611022836106eb565b90508073ffffffffffffffffffffffffffffffffffffffff168473ffffffffffffffffffffffffffffffffffffffff16148061106457506110638185610b0b565b5b806110a257508373ffffffffffffffffffffffffffffffffffffffff1661108a84610514565b73ffffffffffffffffffffffffffffffffffffffff16145b91505092915050565b8273ffffffffffffffffffffffffffffffffffffffff166110cb826106eb565b73ffffffffffffffffffffffffffffffffffffffff1614611121576040517f08c379a000000000000000000000000000000000000000000000000000000000815260040161111890612e35565b60405180910390fd5b5f73ffffffffffffffffffffffffffffffffffffffff168273ffffffffffffffffffffffffffffffffffffffff160361118f576040517f08c379a000000000000000000000000000000000000000000000000000000000815260040161118690612ec3565b60405180910390fd5b61119c8383836001611a27565b8273ffffffffffffffffffffffffffffffffffffffff166111bc826106eb565b73ffffffffffffffffffffffffffffffffffffffff1614611212576040517f08c379a000000000000000000000000000000000000000000000000000000000815260040161120990612e35565b60405180910390fd5b60045f8281526020019081526020015f205f6101000a81549073ffffffffffffffffffffffffffffffffffffffff0219169055600160035f8573ffffffffffffffffffffffffffffffffffffffff1673ffffffffffffffffffffffffffffffffffffffff1681526020019081526020015f205f8282540392505081905550600160035f8473ffffffffffffffffffffffffffffffffffffffff1673ffffffffffffffffffffffffffffffffffffffff1681526020019081526020015f205f82825401925050819055508160025f8381526020019081526020015f205f6101000a81548173ffffffffffffffffffffffffffffffffffffffff021916908373ffffffffffffffffffffffffffffffffffffffff160217905550808273ffffffffffffffffffffffffffffffffffffffff168473ffffffffffffffffffffffffffffffffffffffff167fddf252ad1be2c89b69c2b068fc378daa952ba7f163c4a11628f55a4df523b3ef60405160405180910390a46113928383836001611a2d565b505050565b5f60025f8381526020019081526020015f205f9054906101000a900473ffffffffffffffffffffffffffffffffffffffff169050919050565b6113d8610f5a565b73ffffffffffffffffffffffffffffffffffffffff166113f6610976565b73ffffffffffffffffffffffffffffffffffffffff161461144c576040517f08c379a000000000000000000000000000000000000000000000000000000000815260040161144390612f2b565b60405180910390fd5b565b5f60065f9054906101000a900473ffffffffffffffffffffffffffffffffffffffff1690508160065f6101000a81548173ffffffffffffffffffffffffffffffffffffffff021916908373ffffffffffffffffffffffffffffffffffffffff1602179055508173ffffffffffffffffffffffffffffffffffffffff168173ffffffffffffffffffffffffffffffffffffffff167f8be0079c531659141344cd1fd0a4f28419497f9722a3daafe3b4186f6b6457e060405160405180910390a35050565b6001815f015f828254019250508190555050565b5f815f01549050919050565b5f73ffffffffffffffffffffffffffffffffffffffff168273ffffffffffffffffffffffffffffffffffffffff160361159f576040517f08c379a000000000000000000000000000000000000000000000000000000000815260040161159690612f93565b60405180910390fd5b6115a8816119e7565b156115e8576040517f08c379a00000000000000000000000000000000000000000000000000000000081526004016115df90612ffb565b60405180910390fd5b6115f55f83836001611a27565b6115fe816119e7565b1561163e576040517f08c379a000000000000000000000000000000000000000000000000000000000815260040161163590612ffb565b60405180910390fd5b600160035f8473ffffffffffffffffffffffffffffffffffffffff1673ffffffffffffffffffffffffffffffffffffffff1681526020019081526020015f205f82825401925050819055508160025f8381526020019081526020015f205f6101000a81548173ffffffffffffffffffffffffffffffffffffffff021916908373ffffffffffffffffffffffffffffffffffffffff160217905550808273ffffffffffffffffffffffffffffffffffffffff165f73ffffffffffffffffffffffffffffffffffffffff167fddf252ad1be2c89b69c2b068fc378daa952ba7f163c4a11628f55a4df523b3ef60405160405180910390a46117405f83836001611a2d565b5050565b8173ffffffffffffffffffffffffffffffffffffffff168373ffffffffffffffffffffffffffffffffffffffff16036117b2576040517f08c379a00000000000000000000000000000000000000000000000000000000081526004016117a990613063565b60405180910390fd5b8060055f8573ffffffffffffffffffffffffffffffffffffffff1673ffffffffffffffffffffffffffffffffffffffff1681526020019081526020015f205f8473ffffffffffffffffffffffffffffffffffffffff1673ffffffffffffffffffffffffffffffffffffffff1681526020019081526020015f205f6101000a81548160ff0219169083151502179055508173ffffffffffffffffffffffffffffffffffffffff168373ffffffffffffffffffffffffffffffffffffffff167f17307eab39ab6107e8899845ad3d59bd9653f200f220920489ca2b5937696c318360405161189e9190611ebe565b60405180910390a3505050565b6118b68484846110ab565b6118c284848484611a33565b611901576040517f08c379a00000000000000000000000000000000000000000000000000000000081526004016118f8906130f1565b60405180910390fd5b50505050565b606060405180602001604052805f815250905090565b60605f600161192b84611bb5565b0190505f8167ffffffffffffffff8111156119495761194861214a565b5b6040519080825280601f01601f19166020018201604052801561197b5781602001600182028036833780820191505090505b5090505f82602001820190505b6001156119dc578080600190039150507f3031323334353637383961626364656600000000000000000000000000000000600a86061a8153600a85816119d1576119d061310f565b5b0494505f8503611988575b819350505050919050565b5f8073ffffffffffffffffffffffffffffffffffffffff16611a0883611397565b73ffffffffffffffffffffffffffffffffffffffff1614159050919050565b50505050565b50505050565b5f611a538473ffffffffffffffffffffffffffffffffffffffff16611d06565b15611ba8578373ffffffffffffffffffffffffffffffffffffffff1663150b7a02611a7c610f5a565b8786866040518563ffffffff1660e01b8152600401611a9e949392919061318e565b6020604051808303815f875af1925050508015611ad957506040513d601f19601f82011682018060405250810190611ad691906131ec565b60015b611b58573d805f8114611b07576040519150601f19603f3d011682016040523d82523d5f602084013e611b0c565b606091505b505f815103611b50576040517f08c379a0000000000000000000000000000000000000000000000000000000008152600401611b47906130f1565b60405180910390fd5b805181602001fd5b63150b7a0260e01b7bffffffffffffffffffffffffffffffffffffffffffffffffffffffff1916817bffffffffffffffffffffffffffffffffffffffffffffffffffffffff191614915050611bad565b600190505b949350505050565b5f805f90507a184f03e93ff9f4daa797ed6e38ed64bf6a1f0100000000000000008310611c11577a184f03e93ff9f4daa797ed6e38ed64bf6a1f0100000000000000008381611c0757611c0661310f565b5b0492506040810190505b6d04ee2d6d415b85acef81000000008310611c4e576d04ee2d6d415b85acef81000000008381611c4457611c4361310f565b5b0492506020810190505b662386f26fc100008310611c7d57662386f26fc100008381611c7357611c7261310f565b5b0492506010810190505b6305f5e1008310611ca6576305f5e1008381611c9c57611c9b61310f565b5b0492506008810190505b6127108310611ccb576127108381611cc157611cc061310f565b5b0492506004810190505b60648310611cee5760648381611ce457611ce361310f565b5b0492506002810190505b600a8310611cfd576001810190505b80915050919050565b5f808273ffffffffffffffffffffffffffffffffffffffff163b119050919050565b828054828255905f5260205f20908101928215611d9e579160200282015b82811115611d9d578251825f6101000a81548173ffffffffffffffffffffffffffffffffffffffff021916908373ffffffffffffffffffffffffffffffffffffffff16021790555091602001919060010190611d46565b5b509050611dab9190611df8565b5090565b6040518060c001604052806060815260200160608152602001606081526020015f81526020015f73ffffffffffffffffffffffffffffffffffffffff1681526020015f81525090565b5b80821115611e0f575f815f905550600101611df9565b5090565b5f604051905090565b5f80fd5b5f80fd5b5f7fffffffff0000000000000000000000000000000000000000000000000000000082169050919050565b611e5881611e24565b8114611e62575f80fd5b50565b5f81359050611e7381611e4f565b92915050565b5f60208284031215611e8e57611e8d611e1c565b5b5f611e9b84828501611e65565b91505092915050565b5f8115159050919050565b611eb881611ea4565b82525050565b5f602082019050611ed15f830184611eaf565b92915050565b5f81519050919050565b5f82825260208201905092915050565b5f5b83811015611f0e578082015181840152602081019050611ef3565b5f8484015250505050565b5f601f19601f8301169050919050565b5f611f3382611ed7565b611f3d8185611ee1565b9350611f4d818560208601611ef1565b611f5681611f19565b840191505092915050565b5f6020820190508181035f830152611f798184611f29565b905092915050565b5f819050919050565b611f9381611f81565b8114611f9d575f80fd5b50565b5f81359050611fae81611f8a565b92915050565b5f60208284031215611fc957611fc8611e1c565b5b5f611fd684828501611fa0565b91505092915050565b5f73ffffffffffffffffffffffffffffffffffffffff82169050919050565b5f61200882611fdf565b9050919050565b61201881611ffe565b82525050565b5f6020820190506120315f83018461200f565b92915050565b61204081611ffe565b811461204a575f80fd5b50565b5f8135905061205b81612037565b92915050565b5f806040838503121561207757612076611e1c565b5b5f6120848582860161204d565b925050602061209585828601611fa0565b9150509250929050565b5f805f606084860312156120b6576120b5611e1c565b5b5f6120c38682870161204d565b93505060206120d48682870161204d565b92505060406120e586828701611fa0565b9150509250925092565b5f6020828403121561210457612103611e1c565b5b5f6121118482850161204d565b91505092915050565b61212381611f81565b82525050565b5f60208201905061213c5f83018461211a565b92915050565b5f80fd5b5f80fd5b7f4e487b71000000000000000000000000000000000000000000000000000000005f52604160045260245ffd5b61218082611f19565b810181811067ffffffffffffffff8211171561219f5761219e61214a565b5b80604052505050565b5f6121b1611e13565b90506121bd8282612177565b919050565b5f67ffffffffffffffff8211156121dc576121db61214a565b5b6121e582611f19565b9050602081019050919050565b828183375f83830152505050565b5f61221261220d846121c2565b6121a8565b90508281526020810184848401111561222e5761222d612146565b5b6122398482856121f2565b509392505050565b5f82601f83011261225557612254612142565b5b8135612265848260208601612200565b91505092915050565b5f67ffffffffffffffff8211156122885761228761214a565b5b602082029050602081019050919050565b5f80fd5b5f6122af6122aa8461226e565b6121a8565b905080838252602082019050602084028301858111156122d2576122d1612299565b5b835b818110156122fb57806122e7888261204d565b8452602084019350506020810190506122d4565b5050509392505050565b5f82601f83011261231957612318612142565b5b813561232984826020860161229d565b91505092915050565b5f805f805f8060c0878903121561234c5761234b611e1c565b5b5f61235989828a0161204d565b965050602087013567ffffffffffffffff81111561237a57612379611e20565b5b61238689828a01612241565b955050604087013567ffffffffffffffff8111156123a7576123a6611e20565b5b6123b389828a01612241565b945050606087013567ffffffffffffffff8111156123d4576123d3611e20565b5b6123e089828a01612241565b93505060806123f189828a01611fa0565b92505060a087013567ffffffffffffffff81111561241257612411611e20565b5b61241e89828a01612305565b9150509295509295509295565b61243481611ea4565b811461243e575f80fd5b50565b5f8135905061244f8161242b565b92915050565b5f806040838503121561246b5761246a611e1c565b5b5f6124788582860161204d565b925050602061248985828601612441565b9150509250929050565b5f67ffffffffffffffff8211156124ad576124ac61214a565b5b6124b682611f19565b9050602081019050919050565b5f6124d56124d084612493565b6121a8565b9050828152602081018484840111156124f1576124f0612146565b5b6124fc8482856121f2565b509392505050565b5f82601f83011261251857612517612142565b5b81356125288482602086016124c3565b91505092915050565b5f805f806080858703121561254957612548611e1c565b5b5f6125568782880161204d565b94505060206125678782880161204d565b935050604061257887828801611fa0565b925050606085013567ffffffffffffffff81111561259957612598611e20565b5b6125a587828801612504565b91505092959194509250565b5f80604083850312156125c7576125c6611e1c565b5b5f6125d48582860161204d565b92505060206125e58582860161204d565b9150509250929050565b5f82825260208201905092915050565b5f61260982611ed7565b61261381856125ef565b9350612623818560208601611ef1565b61262c81611f19565b840191505092915050565b61264081611f81565b82525050565b61264f81611ffe565b82525050565b5f60c083015f8301518482035f86015261266f82826125ff565b9150506020830151848203602086015261268982826125ff565b915050604083015184820360408601526126a382826125ff565b91505060608301516126b86060860182612637565b5060808301516126cb6080860182612646565b5060a08301516126de60a0860182612637565b508091505092915050565b5f6020820190508181035f8301526127018184612655565b905092915050565b7f4e487b71000000000000000000000000000000000000000000000000000000005f52602260045260245ffd5b5f600282049050600182168061274d57607f821691505b6020821081036127605761275f612709565b5b50919050565b7f4552433732313a20617070726f76616c20746f2063757272656e74206f776e655f8201527f7200000000000000000000000000000000000000000000000000000000000000602082015250565b5f6127c0602183611ee1565b91506127cb82612766565b604082019050919050565b5f6020820190508181035f8301526127ed816127b4565b9050919050565b7f4552433732313a20617070726f76652063616c6c6572206973206e6f7420746f5f8201527f6b656e206f776e6572206f7220617070726f76656420666f7220616c6c000000602082015250565b5f61284e603d83611ee1565b9150612859826127f4565b604082019050919050565b5f6020820190508181035f83015261287b81612842565b9050919050565b7f4552433732313a2063616c6c6572206973206e6f7420746f6b656e206f776e655f8201527f72206f7220617070726f76656400000000000000000000000000000000000000602082015250565b5f6128dc602d83611ee1565b91506128e782612882565b604082019050919050565b5f6020820190508181035f830152612909816128d0565b9050919050565b7f4552433732313a20696e76616c696420746f6b656e20494400000000000000005f82015250565b5f612944601883611ee1565b915061294f82612910565b602082019050919050565b5f6020820190508181035f83015261297181612938565b9050919050565b7f4552433732313a2061646472657373207a65726f206973206e6f7420612076615f8201527f6c6964206f776e65720000000000000000000000000000000000000000000000602082015250565b5f6129d2602983611ee1565b91506129dd82612978565b604082019050919050565b5f6020820190508181035f8301526129ff816129c6565b9050919050565b5f819050815f5260205f209050919050565b5f6020601f8301049050919050565b5f82821b905092915050565b5f60088302612a627fffffffffffffffffffffffffffffffffffffffffffffffffffffffffffffffff82612a27565b612a6c8683612a27565b95508019841693508086168417925050509392505050565b5f819050919050565b5f612aa7612aa2612a9d84611f81565b612a84565b611f81565b9050919050565b5f819050919050565b612ac083612a8d565b612ad4612acc82612aae565b848454612a33565b825550505050565b5f90565b612ae8612adc565b612af3818484612ab7565b505050565b5b81811015612b1657612b0b5f82612ae0565b600181019050612af9565b5050565b601f821115612b5b57612b2c81612a06565b612b3584612a18565b81016020851015612b44578190505b612b58612b5085612a18565b830182612af8565b50505b505050565b5f82821c905092915050565b5f612b7b5f1984600802612b60565b1980831691505092915050565b5f612b938383612b6c565b9150826002028217905092915050565b612bac82611ed7565b67ffffffffffffffff811115612bc557612bc461214a565b5b612bcf8254612736565b612bda828285612b1a565b5f60209050601f831160018114612c0b575f8415612bf9578287015190505b612c038582612b88565b865550612c6a565b601f198416612c1986612a06565b5f5b82811015612c4057848901518255600182019150602085019450602081019050612c1b565b86831015612c5d5784890151612c59601f891682612b6c565b8355505b6001600288020188555050505b505050505050565b5f81905092915050565b5f612c8682611ed7565b612c908185612c72565b9350612ca0818560208601611ef1565b80840191505092915050565b5f612cb78285612c7c565b9150612cc38284612c7c565b91508190509392505050565b7f546f6b656e20494420646f6573206e6f742065786973740000000000000000005f82015250565b5f612d03601783611ee1565b9150612d0e82612ccf565b602082019050919050565b5f6020820190508181035f830152612d3081612cf7565b9050919050565b7f4f776e61626c653a206e6577206f776e657220697320746865207a65726f20615f8201527f6464726573730000000000000000000000000000000000000000000000000000602082015250565b5f612d91602683611ee1565b9150612d9c82612d37565b604082019050919050565b5f6020820190508181035f830152612dbe81612d85565b9050919050565b7f4552433732313a207472616e736665722066726f6d20696e636f7272656374205f8201527f6f776e6572000000000000000000000000000000000000000000000000000000602082015250565b5f612e1f602583611ee1565b9150612e2a82612dc5565b604082019050919050565b5f6020820190508181035f830152612e4c81612e13565b9050919050565b7f4552433732313a207472616e7366657220746f20746865207a65726f206164645f8201527f7265737300000000000000000000000000000000000000000000000000000000602082015250565b5f612ead602483611ee1565b9150612eb882612e53565b604082019050919050565b5f6020820190508181035f830152612eda81612ea1565b9050919050565b7f4f776e61626c653a2063616c6c6572206973206e6f7420746865206f776e65725f82015250565b5f612f15602083611ee1565b9150612f2082612ee1565b602082019050919050565b5f6020820190508181035f830152612f4281612f09565b9050919050565b7f4552433732313a206d696e7420746f20746865207a65726f20616464726573735f82015250565b5f612f7d602083611ee1565b9150612f8882612f49565b602082019050919050565b5f6020820190508181035f830152612faa81612f71565b9050919050565b7f4552433732313a20746f6b656e20616c7265616479206d696e746564000000005f82015250565b5f612fe5601c83611ee1565b9150612ff082612fb1565b602082019050919050565b5f6020820190508181035f83015261301281612fd9565b9050919050565b7f4552433732313a20617070726f766520746f2063616c6c6572000000000000005f82015250565b5f61304d601983611ee1565b915061305882613019565b602082019050919050565b5f6020820190508181035f83015261307a81613041565b9050919050565b7f4552433732313a207472616e7366657220746f206e6f6e2045524337323152655f8201527f63656976657220696d706c656d656e7465720000000000000000000000000000602082015250565b5f6130db603283611ee1565b91506130e682613081565b604082019050919050565b5f6020820190508181035f830152613108816130cf565b9050919050565b7f4e487b71000000000000000000000000000000000000000000000000000000005f52601260045260245ffd5b5f81519050919050565b5f82825260208201905092915050565b5f6131608261313c565b61316a8185613146565b935061317a818560208601611ef1565b61318381611f19565b840191505092915050565b5f6080820190506131a15f83018761200f565b6131ae602083018661200f565b6131bb604083018561211a565b81810360608301526131cd8184613156565b905095945050505050565b5f815190506131e681611e4f565b92915050565b5f6020828403121561320157613200611e1c565b5b5f61320e848285016131d8565b9150509291505056fea264697066735822122068c1e34ce13d8afb61608b7b1a3e5db4fb6618aaf5c20f2828b06c0fcd71067a64736f6c63430008140033",
  "immutableReferences": {},
  "source": "// SPDX-License-Identifier: MIT\npragma solidity ^0.8.0;\n\nimport \"@openzeppelin/contracts/token/ERC721/ERC721.sol\";\nimport \"@openzeppelin/contracts/access/Ownable.sol\";\nimport \"@openzeppelin/contracts/utils/Counters.sol\";\n\ncontract TaskSama is ERC721, Ownable {\n\n    using Counters for Counters.Counter;\n    Counters.Counter private _tokenIdCounter;\n\n    struct Video {\n        string title;\n        string description;\n        string ipfsUrl;\n        uint256 rewardEarned;\n        address winner;\n        uint256 timestamp;\n    }\n\n    mapping(uint256 => Video) private _videoWinner;\n    address[] private _participants;\n\n    constructor() ERC721(\"TaskSama\", \"TSK\") { }\n\n    function mintVideoNFT(address recipient, string memory title, string memory description, string memory ipfsUrl, uint256 rewardEarned, address[] memory participants) public onlyOwner returns (uint256) {\n        _tokenIdCounter.increment();\n        uint256 newTokenId = _tokenIdCounter.current();\n\n        _mint(recipient, newTokenId);\n\n        _participants = participants;\n\n        _videoWinner[newTokenId] = Video({\n            title: title,\n            description: description,\n            ipfsUrl: ipfsUrl,\n            rewardEarned: rewardEarned,\n            winner: recipient,\n            timestamp: block.timestamp // Set the current timestamp\n        });\n\n        return newTokenId;\n    }\n\n\n    function getVideoData(uint256 tokenId) public view returns (Video memory) {\n        require(_exists(tokenId), \"Token ID does not exist\");\n        return _videoWinner[tokenId];\n    }\n}\n",
  "sourcePath": "/home/crosta/task-sama/truffle/contracts/TaskSama.sol",
  "compiler": {
    "name": "solc",
    "version": "0.8.20+commit.a1b79de6.Emscripten.clang"
  },
  "schemaVersion": "3.4.13",
  "updatedAt": "2023-05-13T18:01:41.915Z",
  "networkType": "ethereum",
  "devdoc": {
    "events": {
      "Approval(address,address,uint256)": {
        "details": "Emitted when `owner` enables `approved` to manage the `tokenId` token."
      },
      "ApprovalForAll(address,address,bool)": {
        "details": "Emitted when `owner` enables or disables (`approved`) `operator` to manage all of its assets."
      },
      "Transfer(address,address,uint256)": {
        "details": "Emitted when `tokenId` token is transferred from `from` to `to`."
      }
    },
    "kind": "dev",
    "methods": {
      "approve(address,uint256)": {
        "details": "See {IERC721-approve}."
      },
      "balanceOf(address)": {
        "details": "See {IERC721-balanceOf}."
      },
      "getApproved(uint256)": {
        "details": "See {IERC721-getApproved}."
      },
      "isApprovedForAll(address,address)": {
        "details": "See {IERC721-isApprovedForAll}."
      },
      "name()": {
        "details": "See {IERC721Metadata-name}."
      },
      "owner()": {
        "details": "Returns the address of the current owner."
      },
      "ownerOf(uint256)": {
        "details": "See {IERC721-ownerOf}."
      },
      "renounceOwnership()": {
        "details": "Leaves the contract without owner. It will not be possible to call `onlyOwner` functions anymore. Can only be called by the current owner. NOTE: Renouncing ownership will leave the contract without an owner, thereby removing any functionality that is only available to the owner."
      },
      "safeTransferFrom(address,address,uint256)": {
        "details": "See {IERC721-safeTransferFrom}."
      },
      "safeTransferFrom(address,address,uint256,bytes)": {
        "details": "See {IERC721-safeTransferFrom}."
      },
      "setApprovalForAll(address,bool)": {
        "details": "See {IERC721-setApprovalForAll}."
      },
      "supportsInterface(bytes4)": {
        "details": "See {IERC165-supportsInterface}."
      },
      "symbol()": {
        "details": "See {IERC721Metadata-symbol}."
      },
      "tokenURI(uint256)": {
        "details": "See {IERC721Metadata-tokenURI}."
      },
      "transferFrom(address,address,uint256)": {
        "details": "See {IERC721-transferFrom}."
      },
      "transferOwnership(address)": {
        "details": "Transfers ownership of the contract to a new account (`newOwner`). Can only be called by the current owner."
      }
    },
    "version": 1
  },
  "userdoc": {
    "kind": "user",
    "methods": {},
    "version": 1
  }
}