{
  "contractName": "Tasks",
  "abi": [
    {
      "inputs": [
        {
          "internalType": "address",
          "name": "taskSamaContractAddress",
          "type": "address"
        }
      ],
      "stateMutability": "nonpayable",
      "type": "constructor"
    },
    {
      "anonymous": false,
      "inputs": [
        {
          "indexed": true,
          "internalType": "address",
          "name": "owner",
          "type": "address"
        },
        {
          "indexed": true,
          "internalType": "address",
          "name": "approved",
          "type": "address"
        },
        {
          "indexed": true,
          "internalType": "uint256",
          "name": "tokenId",
          "type": "uint256"
        }
      ],
      "name": "Approval",
      "type": "event"
    },
    {
      "anonymous": false,
      "inputs": [
        {
          "indexed": true,
          "internalType": "address",
          "name": "owner",
          "type": "address"
        },
        {
          "indexed": true,
          "internalType": "address",
          "name": "operator",
          "type": "address"
        },
        {
          "indexed": false,
          "internalType": "bool",
          "name": "approved",
          "type": "bool"
        }
      ],
      "name": "ApprovalForAll",
      "type": "event"
    },
    {
      "anonymous": false,
      "inputs": [
        {
          "indexed": true,
          "internalType": "address",
          "name": "previousOwner",
          "type": "address"
        },
        {
          "indexed": true,
          "internalType": "address",
          "name": "newOwner",
          "type": "address"
        }
      ],
      "name": "OwnershipTransferred",
      "type": "event"
    },
    {
      "anonymous": false,
      "inputs": [
        {
          "indexed": true,
          "internalType": "uint256",
          "name": "taskId",
          "type": "uint256"
        },
        {
          "indexed": false,
          "internalType": "address",
          "name": "winner",
          "type": "address"
        }
      ],
      "name": "TaskCompleted",
      "type": "event"
    },
    {
      "anonymous": false,
      "inputs": [
        {
          "indexed": true,
          "internalType": "uint256",
          "name": "taskId",
          "type": "uint256"
        },
        {
          "indexed": false,
          "internalType": "address",
          "name": "owner",
          "type": "address"
        },
        {
          "indexed": false,
          "internalType": "string",
          "name": "title",
          "type": "string"
        },
        {
          "indexed": false,
          "internalType": "string",
          "name": "description",
          "type": "string"
        },
        {
          "indexed": false,
          "internalType": "string",
          "name": "imageURI",
          "type": "string"
        },
        {
          "indexed": false,
          "internalType": "uint256",
          "name": "reward",
          "type": "uint256"
        }
      ],
      "name": "TaskCreated",
      "type": "event"
    },
    {
      "anonymous": false,
      "inputs": [
        {
          "indexed": true,
          "internalType": "address",
          "name": "from",
          "type": "address"
        },
        {
          "indexed": true,
          "internalType": "address",
          "name": "to",
          "type": "address"
        },
        {
          "indexed": true,
          "internalType": "uint256",
          "name": "tokenId",
          "type": "uint256"
        }
      ],
      "name": "Transfer",
      "type": "event"
    },
    {
      "inputs": [
        {
          "internalType": "address",
          "name": "to",
          "type": "address"
        },
        {
          "internalType": "uint256",
          "name": "tokenId",
          "type": "uint256"
        }
      ],
      "name": "approve",
      "outputs": [],
      "stateMutability": "nonpayable",
      "type": "function"
    },
    {
      "inputs": [
        {
          "internalType": "address",
          "name": "owner",
          "type": "address"
        }
      ],
      "name": "balanceOf",
      "outputs": [
        {
          "internalType": "uint256",
          "name": "",
          "type": "uint256"
        }
      ],
      "stateMutability": "view",
      "type": "function"
    },
    {
      "inputs": [
        {
          "internalType": "uint256",
          "name": "tokenId",
          "type": "uint256"
        }
      ],
      "name": "getApproved",
      "outputs": [
        {
          "internalType": "address",
          "name": "",
          "type": "address"
        }
      ],
      "stateMutability": "view",
      "type": "function"
    },
    {
      "inputs": [
        {
          "internalType": "address",
          "name": "owner",
          "type": "address"
        },
        {
          "internalType": "address",
          "name": "operator",
          "type": "address"
        }
      ],
      "name": "isApprovedForAll",
      "outputs": [
        {
          "internalType": "bool",
          "name": "",
          "type": "bool"
        }
      ],
      "stateMutability": "view",
      "type": "function"
    },
    {
      "inputs": [],
      "name": "minimumReward",
      "outputs": [
        {
          "internalType": "uint256",
          "name": "",
          "type": "uint256"
        }
      ],
      "stateMutability": "view",
      "type": "function"
    },
    {
      "inputs": [],
      "name": "name",
      "outputs": [
        {
          "internalType": "string",
          "name": "",
          "type": "string"
        }
      ],
      "stateMutability": "view",
      "type": "function"
    },
    {
      "inputs": [],
      "name": "owner",
      "outputs": [
        {
          "internalType": "address",
          "name": "",
          "type": "address"
        }
      ],
      "stateMutability": "view",
      "type": "function"
    },
    {
      "inputs": [
        {
          "internalType": "uint256",
          "name": "tokenId",
          "type": "uint256"
        }
      ],
      "name": "ownerOf",
      "outputs": [
        {
          "internalType": "address",
          "name": "",
          "type": "address"
        }
      ],
      "stateMutability": "view",
      "type": "function"
    },
    {
      "inputs": [],
      "name": "renounceOwnership",
      "outputs": [],
      "stateMutability": "nonpayable",
      "type": "function"
    },
    {
      "inputs": [
        {
          "internalType": "address",
          "name": "from",
          "type": "address"
        },
        {
          "internalType": "address",
          "name": "to",
          "type": "address"
        },
        {
          "internalType": "uint256",
          "name": "tokenId",
          "type": "uint256"
        }
      ],
      "name": "safeTransferFrom",
      "outputs": [],
      "stateMutability": "nonpayable",
      "type": "function"
    },
    {
      "inputs": [
        {
          "internalType": "address",
          "name": "from",
          "type": "address"
        },
        {
          "internalType": "address",
          "name": "to",
          "type": "address"
        },
        {
          "internalType": "uint256",
          "name": "tokenId",
          "type": "uint256"
        },
        {
          "internalType": "bytes",
          "name": "data",
          "type": "bytes"
        }
      ],
      "name": "safeTransferFrom",
      "outputs": [],
      "stateMutability": "nonpayable",
      "type": "function"
    },
    {
      "inputs": [
        {
          "internalType": "address",
          "name": "operator",
          "type": "address"
        },
        {
          "internalType": "bool",
          "name": "approved",
          "type": "bool"
        }
      ],
      "name": "setApprovalForAll",
      "outputs": [],
      "stateMutability": "nonpayable",
      "type": "function"
    },
    {
      "inputs": [
        {
          "internalType": "bytes4",
          "name": "interfaceId",
          "type": "bytes4"
        }
      ],
      "name": "supportsInterface",
      "outputs": [
        {
          "internalType": "bool",
          "name": "",
          "type": "bool"
        }
      ],
      "stateMutability": "view",
      "type": "function"
    },
    {
      "inputs": [],
      "name": "symbol",
      "outputs": [
        {
          "internalType": "string",
          "name": "",
          "type": "string"
        }
      ],
      "stateMutability": "view",
      "type": "function"
    },
    {
      "inputs": [
        {
          "internalType": "uint256",
          "name": "",
          "type": "uint256"
        }
      ],
      "name": "taskCompleted",
      "outputs": [
        {
          "internalType": "bool",
          "name": "",
          "type": "bool"
        }
      ],
      "stateMutability": "view",
      "type": "function"
    },
    {
      "inputs": [
        {
          "internalType": "uint256",
          "name": "",
          "type": "uint256"
        }
      ],
      "name": "taskExists",
      "outputs": [
        {
          "internalType": "bool",
          "name": "",
          "type": "bool"
        }
      ],
      "stateMutability": "view",
      "type": "function"
    },
    {
      "inputs": [
        {
          "internalType": "uint256",
          "name": "",
          "type": "uint256"
        }
      ],
      "name": "tasks",
      "outputs": [
        {
          "internalType": "uint256",
          "name": "tokenId",
          "type": "uint256"
        },
        {
          "internalType": "address",
          "name": "owner",
          "type": "address"
        },
        {
          "internalType": "string",
          "name": "title",
          "type": "string"
        },
        {
          "internalType": "string",
          "name": "description",
          "type": "string"
        },
        {
          "internalType": "string",
          "name": "imageURI",
          "type": "string"
        },
        {
          "internalType": "uint256",
          "name": "reward",
          "type": "uint256"
        },
        {
          "internalType": "address",
          "name": "winner",
          "type": "address"
        }
      ],
      "stateMutability": "view",
      "type": "function"
    },
    {
      "inputs": [
        {
          "internalType": "uint256",
          "name": "tokenId",
          "type": "uint256"
        }
      ],
      "name": "tokenURI",
      "outputs": [
        {
          "internalType": "string",
          "name": "",
          "type": "string"
        }
      ],
      "stateMutability": "view",
      "type": "function"
    },
    {
      "inputs": [
        {
          "internalType": "address",
          "name": "from",
          "type": "address"
        },
        {
          "internalType": "address",
          "name": "to",
          "type": "address"
        },
        {
          "internalType": "uint256",
          "name": "tokenId",
          "type": "uint256"
        }
      ],
      "name": "transferFrom",
      "outputs": [],
      "stateMutability": "nonpayable",
      "type": "function"
    },
    {
      "inputs": [
        {
          "internalType": "address",
          "name": "newOwner",
          "type": "address"
        }
      ],
      "name": "transferOwnership",
      "outputs": [],
      "stateMutability": "nonpayable",
      "type": "function"
    },
    {
      "inputs": [
        {
          "internalType": "string",
          "name": "_title",
          "type": "string"
        },
        {
          "internalType": "string",
          "name": "_description",
          "type": "string"
        },
        {
          "internalType": "string",
          "name": "_imageURI",
          "type": "string"
        },
        {
          "internalType": "uint256",
          "name": "_reward",
          "type": "uint256"
        }
      ],
      "name": "createTask",
      "outputs": [],
      "stateMutability": "nonpayable",
      "type": "function"
    },
    {
      "inputs": [
        {
          "internalType": "uint256",
          "name": "_taskId",
          "type": "uint256"
        }
      ],
      "name": "participate",
      "outputs": [],
      "stateMutability": "nonpayable",
      "type": "function"
    },
    {
      "inputs": [
        {
          "internalType": "uint256",
          "name": "_taskId",
          "type": "uint256"
        },
        {
          "internalType": "address",
          "name": "_winner",
          "type": "address"
        },
        {
          "internalType": "string",
          "name": "ipfsUrl",
          "type": "string"
        }
      ],
      "name": "chooseWinner",
      "outputs": [],
      "stateMutability": "nonpayable",
      "type": "function"
    },
    {
      "inputs": [
        {
          "internalType": "uint256",
          "name": "_taskId",
          "type": "uint256"
        },
        {
          "internalType": "address",
          "name": "_participant",
          "type": "address"
        }
      ],
      "name": "_isParticipant",
      "outputs": [
        {
          "internalType": "bool",
          "name": "",
          "type": "bool"
        }
      ],
      "stateMutability": "view",
      "type": "function"
    },
    {
      "inputs": [
        {
          "internalType": "uint256",
          "name": "_taskId",
          "type": "uint256"
        }
      ],
      "name": "_isCompleted",
      "outputs": [
        {
          "internalType": "bool",
          "name": "",
          "type": "bool"
        }
      ],
      "stateMutability": "view",
      "type": "function"
    },
    {
      "inputs": [
        {
          "internalType": "uint256",
          "name": "_taskId",
          "type": "uint256"
        },
        {
          "internalType": "address",
          "name": "walletCheck",
          "type": "address"
        }
      ],
      "name": "_isOwner",
      "outputs": [
        {
          "internalType": "bool",
          "name": "",
          "type": "bool"
        }
      ],
      "stateMutability": "view",
      "type": "function"
    },
    {
      "inputs": [],
      "name": "_getTasks",
      "outputs": [
        {
          "components": [
            {
              "internalType": "uint256",
              "name": "tokenId",
              "type": "uint256"
            },
            {
              "internalType": "address",
              "name": "owner",
              "type": "address"
            },
            {
              "internalType": "string",
              "name": "title",
              "type": "string"
            },
            {
              "internalType": "string",
              "name": "description",
              "type": "string"
            },
            {
              "internalType": "string",
              "name": "imageURI",
              "type": "string"
            },
            {
              "internalType": "uint256",
              "name": "reward",
              "type": "uint256"
            },
            {
              "internalType": "address[]",
              "name": "participants",
              "type": "address[]"
            },
            {
              "internalType": "address",
              "name": "winner",
              "type": "address"
            }
          ],
          "internalType": "struct Tasks.Task[]",
          "name": "",
          "type": "tuple[]"
        }
      ],
      "stateMutability": "view",
      "type": "function"
    }
  ],
  "bytecode": "0x6080604052674563918244f40000600b553480156200001c575f80fd5b5060405162004a8a38038062004a8a833981810160405281019062000042919062000269565b6040518060400160405280600581526020017f5461736b730000000000000000000000000000000000000000000000000000008152506040518060400160405280600481526020017f5441534b00000000000000000000000000000000000000000000000000000000815250815f9081620000be9190620004fd565b508060019081620000d09190620004fd565b505050620000f3620000e76200013a60201b60201c565b6200014160201b60201c565b8060075f6101000a81548173ffffffffffffffffffffffffffffffffffffffff021916908373ffffffffffffffffffffffffffffffffffffffff16021790555050620005e1565b5f33905090565b5f60065f9054906101000a900473ffffffffffffffffffffffffffffffffffffffff1690508160065f6101000a81548173ffffffffffffffffffffffffffffffffffffffff021916908373ffffffffffffffffffffffffffffffffffffffff1602179055508173ffffffffffffffffffffffffffffffffffffffff168173ffffffffffffffffffffffffffffffffffffffff167f8be0079c531659141344cd1fd0a4f28419497f9722a3daafe3b4186f6b6457e060405160405180910390a35050565b5f80fd5b5f73ffffffffffffffffffffffffffffffffffffffff82169050919050565b5f620002338262000208565b9050919050565b620002458162000227565b811462000250575f80fd5b50565b5f8151905062000263816200023a565b92915050565b5f6020828403121562000281576200028062000204565b5b5f620002908482850162000253565b91505092915050565b5f81519050919050565b7f4e487b71000000000000000000000000000000000000000000000000000000005f52604160045260245ffd5b7f4e487b71000000000000000000000000000000000000000000000000000000005f52602260045260245ffd5b5f60028204905060018216806200031557607f821691505b6020821081036200032b576200032a620002d0565b5b50919050565b5f819050815f5260205f209050919050565b5f6020601f8301049050919050565b5f82821b905092915050565b5f600883026200038f7fffffffffffffffffffffffffffffffffffffffffffffffffffffffffffffffff8262000352565b6200039b868362000352565b95508019841693508086168417925050509392505050565b5f819050919050565b5f819050919050565b5f620003e5620003df620003d984620003b3565b620003bc565b620003b3565b9050919050565b5f819050919050565b6200040083620003c5565b620004186200040f82620003ec565b8484546200035e565b825550505050565b5f90565b6200042e62000420565b6200043b818484620003f5565b505050565b5b818110156200046257620004565f8262000424565b60018101905062000441565b5050565b601f821115620004b1576200047b8162000331565b620004868462000343565b8101602085101562000496578190505b620004ae620004a58562000343565b83018262000440565b50505b505050565b5f82821c905092915050565b5f620004d35f1984600802620004b6565b1980831691505092915050565b5f620004ed8383620004c2565b9150826002028217905092915050565b620005088262000299565b67ffffffffffffffff811115620005245762000523620002a3565b5b620005308254620002fd565b6200053d82828562000466565b5f60209050601f83116001811462000573575f84156200055e578287015190505b6200056a8582620004e0565b865550620005d9565b601f198416620005838662000331565b5f5b82811015620005ac5784890151825560018201915060208501945060208101905062000585565b86831015620005cc5784890151620005c8601f891682620004c2565b8355505b6001600288020188555050505b505050505050565b61449b80620005ef5f395ff3fe608060405234801561000f575f80fd5b50600436106101a7575f3560e01c80637fea0249116100f7578063a22cb46511610095578063c87b56dd1161006f578063c87b56dd146104e1578063d90583df14610511578063e985e9c514610541578063f2fde38b14610571576101a7565b8063a22cb46514610479578063b88d4fde14610495578063c0da8abc146104b1576101a7565b80638d977672116100d15780638d977672146103d75780638da5cb5b1461040d5780638df837971461042b57806395d89b411461045b576101a7565b80637fea02491461036d578063813f8dc11461039d578063845c9306146103bb576101a7565b80632a23b7d0116101645780634a4eefeb1161013e5780634a4eefeb146102e55780636352211e1461030357806370a0823114610333578063715018a614610363576101a7565b80632a23b7d01461027d57806342842e0e1461029957806344fb29b7146102b5576101a7565b806301ffc9a7146101ab57806306fdde03146101db578063081812fc146101f9578063095ea7b314610229578063103099f31461024557806323b872dd14610261575b5f80fd5b6101c560048036038101906101c09190612a3d565b61058d565b6040516101d29190612a82565b60405180910390f35b6101e361066e565b6040516101f09190612b25565b60405180910390f35b610213600480360381019061020e9190612b78565b6106fd565b6040516102209190612be2565b60405180910390f35b610243600480360381019061023e9190612c25565b61073f565b005b61025f600480360381019061025a9190612d8f565b610855565b005b61027b60048036038101906102769190612e47565b610afb565b005b61029760048036038101906102929190612e97565b610b5b565b005b6102b360048036038101906102ae9190612e47565b610e5c565b005b6102cf60048036038101906102ca9190612f03565b610e7b565b6040516102dc9190612a82565b60405180910390f35b6102ed610ef5565b6040516102fa91906131cc565b60405180910390f35b61031d60048036038101906103189190612b78565b61124a565b60405161032a9190612be2565b60405180910390f35b61034d600480360381019061034891906131ec565b6112ce565b60405161035a9190613226565b60405180910390f35b61036b611382565b005b61038760048036038101906103829190612b78565b611395565b6040516103949190612a82565b60405180910390f35b6103a56113b2565b6040516103b29190613226565b60405180910390f35b6103d560048036038101906103d09190612b78565b6113b8565b005b6103f160048036038101906103ec9190612b78565b6114e3565b604051610404979695949392919061323f565b60405180910390f35b610415611700565b6040516104229190612be2565b60405180910390f35b61044560048036038101906104409190612f03565b611728565b6040516104529190612a82565b60405180910390f35b610463611813565b6040516104709190612b25565b60405180910390f35b610493600480360381019061048e91906132eb565b6118a3565b005b6104af60048036038101906104aa91906133c7565b6118b9565b005b6104cb60048036038101906104c69190612b78565b61191b565b6040516104d89190612a82565b60405180910390f35b6104fb60048036038101906104f69190612b78565b611941565b6040516105089190612b25565b60405180910390f35b61052b60048036038101906105269190612b78565b6119a6565b6040516105389190612a82565b60405180910390f35b61055b60048036038101906105569190613447565b6119c3565b6040516105689190612a82565b60405180910390f35b61058b600480360381019061058691906131ec565b611a51565b005b5f7f80ac58cd000000000000000000000000000000000000000000000000000000007bffffffffffffffffffffffffffffffffffffffffffffffffffffffff1916827bffffffffffffffffffffffffffffffffffffffffffffffffffffffff1916148061065757507f5b5e139f000000000000000000000000000000000000000000000000000000007bffffffffffffffffffffffffffffffffffffffffffffffffffffffff1916827bffffffffffffffffffffffffffffffffffffffffffffffffffffffff1916145b80610667575061066682611ad3565b5b9050919050565b60605f805461067c906134b2565b80601f01602080910402602001604051908101604052809291908181526020018280546106a8906134b2565b80156106f35780601f106106ca576101008083540402835291602001916106f3565b820191905f5260205f20905b8154815290600101906020018083116106d657829003601f168201915b5050505050905090565b5f61070782611b3c565b60045f8381526020019081526020015f205f9054906101000a900473ffffffffffffffffffffffffffffffffffffffff169050919050565b5f6107498261124a565b90508073ffffffffffffffffffffffffffffffffffffffff168373ffffffffffffffffffffffffffffffffffffffff16036107b9576040517f08c379a00000000000000000000000000000000000000000000000000000000081526004016107b090613552565b60405180910390fd5b8073ffffffffffffffffffffffffffffffffffffffff166107d8611b87565b73ffffffffffffffffffffffffffffffffffffffff161480610807575061080681610801611b87565b6119c3565b5b610846576040517f08c379a000000000000000000000000000000000000000000000000000000000815260040161083d906135e0565b60405180910390fd5b6108508383611b8e565b505050565b600b5481101561089a576040517f08c379a000000000000000000000000000000000000000000000000000000000815260040161089190613648565b60405180910390fd5b5f60405180610100016040528060088054905081526020013373ffffffffffffffffffffffffffffffffffffffff1681526020018681526020018581526020018481526020018381526020015f67ffffffffffffffff811115610900576108ff612c6b565b5b60405190808252806020026020018201604052801561092e5781602001602082028036833780820191505090505b5081526020015f73ffffffffffffffffffffffffffffffffffffffff168152509050600881908060018154018082558091505060019003905f5260205f2090600802015f909190919091505f820151815f01556020820151816001015f6101000a81548173ffffffffffffffffffffffffffffffffffffffff021916908373ffffffffffffffffffffffffffffffffffffffff16021790555060408201518160020190816109dc9190613803565b5060608201518160030190816109f29190613803565b506080820151816004019081610a089190613803565b5060a0820151816005015560c0820151816006019080519060200190610a2f929190612935565b5060e0820151816007015f6101000a81548173ffffffffffffffffffffffffffffffffffffffff021916908373ffffffffffffffffffffffffffffffffffffffff1602179055505050610a8533825f0151611c44565b600160095f835f015181526020019081526020015f205f6101000a81548160ff021916908315150217905550805f01517f4c202347b72517bb87f988a35bf19d250d8a3e9dcdf776616ef17eb1c0a94f113387878787604051610aec9594939291906138d2565b60405180910390a25050505050565b610b0c610b06611b87565b82611e57565b610b4b576040517f08c379a0000000000000000000000000000000000000000000000000000000008152600401610b42906139a8565b60405180910390fd5b610b56838383611eeb565b505050565b60095f8481526020019081526020015f205f9054906101000a900460ff16610bb8576040517f08c379a0000000000000000000000000000000000000000000000000000000008152600401610baf90613a10565b60405180910390fd5b610bc18361191b565b15610c01576040517f08c379a0000000000000000000000000000000000000000000000000000000008152600401610bf890613a78565b60405180910390fd5b610c0b8383611728565b610c4a576040517f08c379a0000000000000000000000000000000000000000000000000000000008152600401610c4190613ae0565b60405180910390fd5b610c548333610e7b565b610c5c575f80fd5b8160088481548110610c7157610c70613afe565b5b905f5260205f2090600802016007015f6101000a81548173ffffffffffffffffffffffffffffffffffffffff021916908373ffffffffffffffffffffffffffffffffffffffff1602179055506001600a5f8581526020019081526020015f205f6101000a81548160ff021916908315150217905550610cf1308385611eeb565b60075f9054906101000a900473ffffffffffffffffffffffffffffffffffffffff1673ffffffffffffffffffffffffffffffffffffffff16637550ae138360088681548110610d4357610d42613afe565b5b905f5260205f20906008020160020160088781548110610d6657610d65613afe565b5b905f5260205f2090600802016003018560088981548110610d8a57610d89613afe565b5b905f5260205f2090600802016005015460088a81548110610dae57610dad613afe565b5b905f5260205f2090600802016006016040518763ffffffff1660e01b8152600401610dde96959493929190613c9c565b6020604051808303815f875af1158015610dfa573d5f803e3d5ffd5b505050506040513d601f19601f82011682018060405250810190610e1e9190613d2b565b50827fbb5889c77948badf90e8a5c73d55265e5f5d6e4837a79a78c5669691b897faed83604051610e4f9190612be2565b60405180910390a2505050565b610e7683838360405180602001604052805f8152506118b9565b505050565b5f8173ffffffffffffffffffffffffffffffffffffffff1660088481548110610ea757610ea6613afe565b5b905f5260205f2090600802016001015f9054906101000a900473ffffffffffffffffffffffffffffffffffffffff1673ffffffffffffffffffffffffffffffffffffffff1614905092915050565b60606008805480602002602001604051908101604052809291908181526020015f905b82821015611241578382905f5260205f209060080201604051806101000160405290815f8201548152602001600182015f9054906101000a900473ffffffffffffffffffffffffffffffffffffffff1673ffffffffffffffffffffffffffffffffffffffff1673ffffffffffffffffffffffffffffffffffffffff168152602001600282018054610fa8906134b2565b80601f0160208091040260200160405190810160405280929190818152602001828054610fd4906134b2565b801561101f5780601f10610ff65761010080835404028352916020019161101f565b820191905f5260205f20905b81548152906001019060200180831161100257829003601f168201915b50505050508152602001600382018054611038906134b2565b80601f0160208091040260200160405190810160405280929190818152602001828054611064906134b2565b80156110af5780601f10611086576101008083540402835291602001916110af565b820191905f5260205f20905b81548152906001019060200180831161109257829003601f168201915b505050505081526020016004820180546110c8906134b2565b80601f01602080910402602001604051908101604052809291908181526020018280546110f4906134b2565b801561113f5780601f106111165761010080835404028352916020019161113f565b820191905f5260205f20905b81548152906001019060200180831161112257829003601f168201915b5050505050815260200160058201548152602001600682018054806020026020016040519081016040528092919081815260200182805480156111d457602002820191905f5260205f20905b815f9054906101000a900473ffffffffffffffffffffffffffffffffffffffff1673ffffffffffffffffffffffffffffffffffffffff168152602001906001019080831161118b575b50505050508152602001600782015f9054906101000a900473ffffffffffffffffffffffffffffffffffffffff1673ffffffffffffffffffffffffffffffffffffffff1673ffffffffffffffffffffffffffffffffffffffff168152505081526020019060010190610f18565b50505050905090565b5f80611255836121d7565b90505f73ffffffffffffffffffffffffffffffffffffffff168173ffffffffffffffffffffffffffffffffffffffff16036112c5576040517f08c379a00000000000000000000000000000000000000000000000000000000081526004016112bc90613da0565b60405180910390fd5b80915050919050565b5f8073ffffffffffffffffffffffffffffffffffffffff168273ffffffffffffffffffffffffffffffffffffffff160361133d576040517f08c379a000000000000000000000000000000000000000000000000000000000815260040161133490613e2e565b60405180910390fd5b60035f8373ffffffffffffffffffffffffffffffffffffffff1673ffffffffffffffffffffffffffffffffffffffff1681526020019081526020015f20549050919050565b61138a612210565b6113935f61228e565b565b600a602052805f5260405f205f915054906101000a900460ff1681565b600b5481565b60095f8281526020019081526020015f205f9054906101000a900460ff16611415576040517f08c379a000000000000000000000000000000000000000000000000000000000815260040161140c90613a10565b60405180910390fd5b61141f8133611728565b1561145f576040517f08c379a000000000000000000000000000000000000000000000000000000000815260040161145690613e96565b60405180910390fd5b6008818154811061147357611472613afe565b5b905f5260205f20906008020160060133908060018154018082558091505060019003905f5260205f20015f9091909190916101000a81548173ffffffffffffffffffffffffffffffffffffffff021916908373ffffffffffffffffffffffffffffffffffffffff16021790555050565b600881815481106114f2575f80fd5b905f5260205f2090600802015f91509050805f015490806001015f9054906101000a900473ffffffffffffffffffffffffffffffffffffffff169080600201805461153c906134b2565b80601f0160208091040260200160405190810160405280929190818152602001828054611568906134b2565b80156115b35780601f1061158a576101008083540402835291602001916115b3565b820191905f5260205f20905b81548152906001019060200180831161159657829003601f168201915b5050505050908060030180546115c8906134b2565b80601f01602080910402602001604051908101604052809291908181526020018280546115f4906134b2565b801561163f5780601f106116165761010080835404028352916020019161163f565b820191905f5260205f20905b81548152906001019060200180831161162257829003601f168201915b505050505090806004018054611654906134b2565b80601f0160208091040260200160405190810160405280929190818152602001828054611680906134b2565b80156116cb5780601f106116a2576101008083540402835291602001916116cb565b820191905f5260205f20905b8154815290600101906020018083116116ae57829003601f168201915b505050505090806005015490806007015f9054906101000a900473ffffffffffffffffffffffffffffffffffffffff16905087565b5f60065f9054906101000a900473ffffffffffffffffffffffffffffffffffffffff16905090565b5f805f90505b6008848154811061174257611741613afe565b5b905f5260205f20906008020160060180549050811015611808578273ffffffffffffffffffffffffffffffffffffffff166008858154811061178757611786613afe565b5b905f5260205f20906008020160060182815481106117a8576117a7613afe565b5b905f5260205f20015f9054906101000a900473ffffffffffffffffffffffffffffffffffffffff1673ffffffffffffffffffffffffffffffffffffffff16036117f557600191505061180d565b808061180090613ee1565b91505061172e565b505f90505b92915050565b606060018054611822906134b2565b80601f016020809104026020016040519081016040528092919081815260200182805461184e906134b2565b80156118995780601f1061187057610100808354040283529160200191611899565b820191905f5260205f20905b81548152906001019060200180831161187c57829003601f168201915b5050505050905090565b6118b56118ae611b87565b8383612351565b5050565b6118ca6118c4611b87565b83611e57565b611909576040517f08c379a0000000000000000000000000000000000000000000000000000000008152600401611900906139a8565b60405180910390fd5b611915848484846124b8565b50505050565b5f600a5f8381526020019081526020015f205f9054906101000a900460ff169050919050565b606061194c82611b3c565b5f611955612514565b90505f8151116119735760405180602001604052805f81525061199e565b8061197d8461252a565b60405160200161198e929190613f62565b6040516020818303038152906040525b915050919050565b6009602052805f5260405f205f915054906101000a900460ff1681565b5f60055f8473ffffffffffffffffffffffffffffffffffffffff1673ffffffffffffffffffffffffffffffffffffffff1681526020019081526020015f205f8373ffffffffffffffffffffffffffffffffffffffff1673ffffffffffffffffffffffffffffffffffffffff1681526020019081526020015f205f9054906101000a900460ff16905092915050565b611a59612210565b5f73ffffffffffffffffffffffffffffffffffffffff168173ffffffffffffffffffffffffffffffffffffffff1603611ac7576040517f08c379a0000000000000000000000000000000000000000000000000000000008152600401611abe90613ff5565b60405180910390fd5b611ad08161228e565b50565b5f7f01ffc9a7000000000000000000000000000000000000000000000000000000007bffffffffffffffffffffffffffffffffffffffffffffffffffffffff1916827bffffffffffffffffffffffffffffffffffffffffffffffffffffffff1916149050919050565b611b45816125f4565b611b84576040517f08c379a0000000000000000000000000000000000000000000000000000000008152600401611b7b90613da0565b60405180910390fd5b50565b5f33905090565b8160045f8381526020019081526020015f205f6101000a81548173ffffffffffffffffffffffffffffffffffffffff021916908373ffffffffffffffffffffffffffffffffffffffff160217905550808273ffffffffffffffffffffffffffffffffffffffff16611bfe8361124a565b73ffffffffffffffffffffffffffffffffffffffff167f8c5be1e5ebec7d5bd14f71427d1e84f3dd0314c0f7b2291e5b200ac8c7c3b92560405160405180910390a45050565b5f73ffffffffffffffffffffffffffffffffffffffff168273ffffffffffffffffffffffffffffffffffffffff1603611cb2576040517f08c379a0000000000000000000000000000000000000000000000000000000008152600401611ca99061405d565b60405180910390fd5b611cbb816125f4565b15611cfb576040517f08c379a0000000000000000000000000000000000000000000000000000000008152600401611cf2906140c5565b60405180910390fd5b611d085f83836001612634565b611d11816125f4565b15611d51576040517f08c379a0000000000000000000000000000000000000000000000000000000008152600401611d48906140c5565b60405180910390fd5b600160035f8473ffffffffffffffffffffffffffffffffffffffff1673ffffffffffffffffffffffffffffffffffffffff1681526020019081526020015f205f82825401925050819055508160025f8381526020019081526020015f205f6101000a81548173ffffffffffffffffffffffffffffffffffffffff021916908373ffffffffffffffffffffffffffffffffffffffff160217905550808273ffffffffffffffffffffffffffffffffffffffff165f73ffffffffffffffffffffffffffffffffffffffff167fddf252ad1be2c89b69c2b068fc378daa952ba7f163c4a11628f55a4df523b3ef60405160405180910390a4611e535f8383600161263a565b5050565b5f80611e628361124a565b90508073ffffffffffffffffffffffffffffffffffffffff168473ffffffffffffffffffffffffffffffffffffffff161480611ea45750611ea381856119c3565b5b80611ee257508373ffffffffffffffffffffffffffffffffffffffff16611eca846106fd565b73ffffffffffffffffffffffffffffffffffffffff16145b91505092915050565b8273ffffffffffffffffffffffffffffffffffffffff16611f0b8261124a565b73ffffffffffffffffffffffffffffffffffffffff1614611f61576040517f08c379a0000000000000000000000000000000000000000000000000000000008152600401611f5890614153565b60405180910390fd5b5f73ffffffffffffffffffffffffffffffffffffffff168273ffffffffffffffffffffffffffffffffffffffff1603611fcf576040517f08c379a0000000000000000000000000000000000000000000000000000000008152600401611fc6906141e1565b60405180910390fd5b611fdc8383836001612634565b8273ffffffffffffffffffffffffffffffffffffffff16611ffc8261124a565b73ffffffffffffffffffffffffffffffffffffffff1614612052576040517f08c379a000000000000000000000000000000000000000000000000000000000815260040161204990614153565b60405180910390fd5b60045f8281526020019081526020015f205f6101000a81549073ffffffffffffffffffffffffffffffffffffffff0219169055600160035f8573ffffffffffffffffffffffffffffffffffffffff1673ffffffffffffffffffffffffffffffffffffffff1681526020019081526020015f205f8282540392505081905550600160035f8473ffffffffffffffffffffffffffffffffffffffff1673ffffffffffffffffffffffffffffffffffffffff1681526020019081526020015f205f82825401925050819055508160025f8381526020019081526020015f205f6101000a81548173ffffffffffffffffffffffffffffffffffffffff021916908373ffffffffffffffffffffffffffffffffffffffff160217905550808273ffffffffffffffffffffffffffffffffffffffff168473ffffffffffffffffffffffffffffffffffffffff167fddf252ad1be2c89b69c2b068fc378daa952ba7f163c4a11628f55a4df523b3ef60405160405180910390a46121d2838383600161263a565b505050565b5f60025f8381526020019081526020015f205f9054906101000a900473ffffffffffffffffffffffffffffffffffffffff169050919050565b612218611b87565b73ffffffffffffffffffffffffffffffffffffffff16612236611700565b73ffffffffffffffffffffffffffffffffffffffff161461228c576040517f08c379a000000000000000000000000000000000000000000000000000000000815260040161228390614249565b60405180910390fd5b565b5f60065f9054906101000a900473ffffffffffffffffffffffffffffffffffffffff1690508160065f6101000a81548173ffffffffffffffffffffffffffffffffffffffff021916908373ffffffffffffffffffffffffffffffffffffffff1602179055508173ffffffffffffffffffffffffffffffffffffffff168173ffffffffffffffffffffffffffffffffffffffff167f8be0079c531659141344cd1fd0a4f28419497f9722a3daafe3b4186f6b6457e060405160405180910390a35050565b8173ffffffffffffffffffffffffffffffffffffffff168373ffffffffffffffffffffffffffffffffffffffff16036123bf576040517f08c379a00000000000000000000000000000000000000000000000000000000081526004016123b6906142b1565b60405180910390fd5b8060055f8573ffffffffffffffffffffffffffffffffffffffff1673ffffffffffffffffffffffffffffffffffffffff1681526020019081526020015f205f8473ffffffffffffffffffffffffffffffffffffffff1673ffffffffffffffffffffffffffffffffffffffff1681526020019081526020015f205f6101000a81548160ff0219169083151502179055508173ffffffffffffffffffffffffffffffffffffffff168373ffffffffffffffffffffffffffffffffffffffff167f17307eab39ab6107e8899845ad3d59bd9653f200f220920489ca2b5937696c31836040516124ab9190612a82565b60405180910390a3505050565b6124c3848484611eeb565b6124cf84848484612640565b61250e576040517f08c379a00000000000000000000000000000000000000000000000000000000081526004016125059061433f565b60405180910390fd5b50505050565b606060405180602001604052805f815250905090565b60605f6001612538846127c2565b0190505f8167ffffffffffffffff81111561255657612555612c6b565b5b6040519080825280601f01601f1916602001820160405280156125885781602001600182028036833780820191505090505b5090505f82602001820190505b6001156125e9578080600190039150507f3031323334353637383961626364656600000000000000000000000000000000600a86061a8153600a85816125de576125dd61435d565b5b0494505f8503612595575b819350505050919050565b5f8073ffffffffffffffffffffffffffffffffffffffff16612615836121d7565b73ffffffffffffffffffffffffffffffffffffffff1614159050919050565b50505050565b50505050565b5f6126608473ffffffffffffffffffffffffffffffffffffffff16612913565b156127b5578373ffffffffffffffffffffffffffffffffffffffff1663150b7a02612689611b87565b8786866040518563ffffffff1660e01b81526004016126ab94939291906143dc565b6020604051808303815f875af19250505080156126e657506040513d601f19601f820116820180604052508101906126e3919061443a565b60015b612765573d805f8114612714576040519150601f19603f3d011682016040523d82523d5f602084013e612719565b606091505b505f81510361275d576040517f08c379a00000000000000000000000000000000000000000000000000000000081526004016127549061433f565b60405180910390fd5b805181602001fd5b63150b7a0260e01b7bffffffffffffffffffffffffffffffffffffffffffffffffffffffff1916817bffffffffffffffffffffffffffffffffffffffffffffffffffffffff1916149150506127ba565b600190505b949350505050565b5f805f90507a184f03e93ff9f4daa797ed6e38ed64bf6a1f010000000000000000831061281e577a184f03e93ff9f4daa797ed6e38ed64bf6a1f01000000000000000083816128145761281361435d565b5b0492506040810190505b6d04ee2d6d415b85acef8100000000831061285b576d04ee2d6d415b85acef810000000083816128515761285061435d565b5b0492506020810190505b662386f26fc10000831061288a57662386f26fc1000083816128805761287f61435d565b5b0492506010810190505b6305f5e10083106128b3576305f5e10083816128a9576128a861435d565b5b0492506008810190505b61271083106128d85761271083816128ce576128cd61435d565b5b0492506004810190505b606483106128fb57606483816128f1576128f061435d565b5b0492506002810190505b600a831061290a576001810190505b80915050919050565b5f808273ffffffffffffffffffffffffffffffffffffffff163b119050919050565b828054828255905f5260205f209081019282156129ab579160200282015b828111156129aa578251825f6101000a81548173ffffffffffffffffffffffffffffffffffffffff021916908373ffffffffffffffffffffffffffffffffffffffff16021790555091602001919060010190612953565b5b5090506129b891906129bc565b5090565b5b808211156129d3575f815f9055506001016129bd565b5090565b5f604051905090565b5f80fd5b5f80fd5b5f7fffffffff0000000000000000000000000000000000000000000000000000000082169050919050565b612a1c816129e8565b8114612a26575f80fd5b50565b5f81359050612a3781612a13565b92915050565b5f60208284031215612a5257612a516129e0565b5b5f612a5f84828501612a29565b91505092915050565b5f8115159050919050565b612a7c81612a68565b82525050565b5f602082019050612a955f830184612a73565b92915050565b5f81519050919050565b5f82825260208201905092915050565b5f5b83811015612ad2578082015181840152602081019050612ab7565b5f8484015250505050565b5f601f19601f8301169050919050565b5f612af782612a9b565b612b018185612aa5565b9350612b11818560208601612ab5565b612b1a81612add565b840191505092915050565b5f6020820190508181035f830152612b3d8184612aed565b905092915050565b5f819050919050565b612b5781612b45565b8114612b61575f80fd5b50565b5f81359050612b7281612b4e565b92915050565b5f60208284031215612b8d57612b8c6129e0565b5b5f612b9a84828501612b64565b91505092915050565b5f73ffffffffffffffffffffffffffffffffffffffff82169050919050565b5f612bcc82612ba3565b9050919050565b612bdc81612bc2565b82525050565b5f602082019050612bf55f830184612bd3565b92915050565b612c0481612bc2565b8114612c0e575f80fd5b50565b5f81359050612c1f81612bfb565b92915050565b5f8060408385031215612c3b57612c3a6129e0565b5b5f612c4885828601612c11565b9250506020612c5985828601612b64565b9150509250929050565b5f80fd5b5f80fd5b7f4e487b71000000000000000000000000000000000000000000000000000000005f52604160045260245ffd5b612ca182612add565b810181811067ffffffffffffffff82111715612cc057612cbf612c6b565b5b80604052505050565b5f612cd26129d7565b9050612cde8282612c98565b919050565b5f67ffffffffffffffff821115612cfd57612cfc612c6b565b5b612d0682612add565b9050602081019050919050565b828183375f83830152505050565b5f612d33612d2e84612ce3565b612cc9565b905082815260208101848484011115612d4f57612d4e612c67565b5b612d5a848285612d13565b509392505050565b5f82601f830112612d7657612d75612c63565b5b8135612d86848260208601612d21565b91505092915050565b5f805f8060808587031215612da757612da66129e0565b5b5f85013567ffffffffffffffff811115612dc457612dc36129e4565b5b612dd087828801612d62565b945050602085013567ffffffffffffffff811115612df157612df06129e4565b5b612dfd87828801612d62565b935050604085013567ffffffffffffffff811115612e1e57612e1d6129e4565b5b612e2a87828801612d62565b9250506060612e3b87828801612b64565b91505092959194509250565b5f805f60608486031215612e5e57612e5d6129e0565b5b5f612e6b86828701612c11565b9350506020612e7c86828701612c11565b9250506040612e8d86828701612b64565b9150509250925092565b5f805f60608486031215612eae57612ead6129e0565b5b5f612ebb86828701612b64565b9350506020612ecc86828701612c11565b925050604084013567ffffffffffffffff811115612eed57612eec6129e4565b5b612ef986828701612d62565b9150509250925092565b5f8060408385031215612f1957612f186129e0565b5b5f612f2685828601612b64565b9250506020612f3785828601612c11565b9150509250929050565b5f81519050919050565b5f82825260208201905092915050565b5f819050602082019050919050565b612f7381612b45565b82525050565b612f8281612bc2565b82525050565b5f82825260208201905092915050565b5f612fa282612a9b565b612fac8185612f88565b9350612fbc818560208601612ab5565b612fc581612add565b840191505092915050565b5f81519050919050565b5f82825260208201905092915050565b5f819050602082019050919050565b5f6130048383612f79565b60208301905092915050565b5f602082019050919050565b5f61302682612fd0565b6130308185612fda565b935061303b83612fea565b805f5b8381101561306b5781516130528882612ff9565b975061305d83613010565b92505060018101905061303e565b5085935050505092915050565b5f61010083015f83015161308e5f860182612f6a565b5060208301516130a16020860182612f79565b50604083015184820360408601526130b98282612f98565b915050606083015184820360608601526130d38282612f98565b915050608083015184820360808601526130ed8282612f98565b91505060a083015161310260a0860182612f6a565b5060c083015184820360c086015261311a828261301c565b91505060e083015161312f60e0860182612f79565b508091505092915050565b5f6131458383613078565b905092915050565b5f602082019050919050565b5f61316382612f41565b61316d8185612f4b565b93508360208202850161317f85612f5b565b805f5b858110156131ba578484038952815161319b858261313a565b94506131a68361314d565b925060208a01995050600181019050613182565b50829750879550505050505092915050565b5f6020820190508181035f8301526131e48184613159565b905092915050565b5f60208284031215613201576132006129e0565b5b5f61320e84828501612c11565b91505092915050565b61322081612b45565b82525050565b5f6020820190506132395f830184613217565b92915050565b5f60e0820190506132525f83018a613217565b61325f6020830189612bd3565b81810360408301526132718188612aed565b905081810360608301526132858187612aed565b905081810360808301526132998186612aed565b90506132a860a0830185613217565b6132b560c0830184612bd3565b98975050505050505050565b6132ca81612a68565b81146132d4575f80fd5b50565b5f813590506132e5816132c1565b92915050565b5f8060408385031215613301576133006129e0565b5b5f61330e85828601612c11565b925050602061331f858286016132d7565b9150509250929050565b5f67ffffffffffffffff82111561334357613342612c6b565b5b61334c82612add565b9050602081019050919050565b5f61336b61336684613329565b612cc9565b90508281526020810184848401111561338757613386612c67565b5b613392848285612d13565b509392505050565b5f82601f8301126133ae576133ad612c63565b5b81356133be848260208601613359565b91505092915050565b5f805f80608085870312156133df576133de6129e0565b5b5f6133ec87828801612c11565b94505060206133fd87828801612c11565b935050604061340e87828801612b64565b925050606085013567ffffffffffffffff81111561342f5761342e6129e4565b5b61343b8782880161339a565b91505092959194509250565b5f806040838503121561345d5761345c6129e0565b5b5f61346a85828601612c11565b925050602061347b85828601612c11565b9150509250929050565b7f4e487b71000000000000000000000000000000000000000000000000000000005f52602260045260245ffd5b5f60028204905060018216806134c957607f821691505b6020821081036134dc576134db613485565b5b50919050565b7f4552433732313a20617070726f76616c20746f2063757272656e74206f776e655f8201527f7200000000000000000000000000000000000000000000000000000000000000602082015250565b5f61353c602183612aa5565b9150613547826134e2565b604082019050919050565b5f6020820190508181035f83015261356981613530565b9050919050565b7f4552433732313a20617070726f76652063616c6c6572206973206e6f7420746f5f8201527f6b656e206f776e6572206f7220617070726f76656420666f7220616c6c000000602082015250565b5f6135ca603d83612aa5565b91506135d582613570565b604082019050919050565b5f6020820190508181035f8301526135f7816135be565b9050919050565b7f52657761726420697320746f6f206c6f770000000000000000000000000000005f82015250565b5f613632601183612aa5565b915061363d826135fe565b602082019050919050565b5f6020820190508181035f83015261365f81613626565b9050919050565b5f819050815f5260205f209050919050565b5f6020601f8301049050919050565b5f82821b905092915050565b5f600883026136c27fffffffffffffffffffffffffffffffffffffffffffffffffffffffffffffffff82613687565b6136cc8683613687565b95508019841693508086168417925050509392505050565b5f819050919050565b5f6137076137026136fd84612b45565b6136e4565b612b45565b9050919050565b5f819050919050565b613720836136ed565b61373461372c8261370e565b848454613693565b825550505050565b5f90565b61374861373c565b613753818484613717565b505050565b5b818110156137765761376b5f82613740565b600181019050613759565b5050565b601f8211156137bb5761378c81613666565b61379584613678565b810160208510156137a4578190505b6137b86137b085613678565b830182613758565b50505b505050565b5f82821c905092915050565b5f6137db5f19846008026137c0565b1980831691505092915050565b5f6137f383836137cc565b9150826002028217905092915050565b61380c82612a9b565b67ffffffffffffffff81111561382557613824612c6b565b5b61382f82546134b2565b61383a82828561377a565b5f60209050601f83116001811461386b575f8415613859578287015190505b61386385826137e8565b8655506138ca565b601f19841661387986613666565b5f5b828110156138a05784890151825560018201915060208501945060208101905061387b565b868310156138bd57848901516138b9601f8916826137cc565b8355505b6001600288020188555050505b505050505050565b5f60a0820190506138e55f830188612bd3565b81810360208301526138f78187612aed565b9050818103604083015261390b8186612aed565b9050818103606083015261391f8185612aed565b905061392e6080830184613217565b9695505050505050565b7f4552433732313a2063616c6c6572206973206e6f7420746f6b656e206f776e655f8201527f72206f7220617070726f76656400000000000000000000000000000000000000602082015250565b5f613992602d83612aa5565b915061399d82613938565b604082019050919050565b5f6020820190508181035f8301526139bf81613986565b9050919050565b7f5461736b20646f6573206e6f74206578697374000000000000000000000000005f82015250565b5f6139fa601383612aa5565b9150613a05826139c6565b602082019050919050565b5f6020820190508181035f830152613a27816139ee565b9050919050565b7f5461736b20697320616c726561647920636f6d706c65746564000000000000005f82015250565b5f613a62601983612aa5565b9150613a6d82613a2e565b602082019050919050565b5f6020820190508181035f830152613a8f81613a56565b9050919050565b7f57696e6e657220646964206e6f742070617274696369706174650000000000005f82015250565b5f613aca601a83612aa5565b9150613ad582613a96565b602082019050919050565b5f6020820190508181035f830152613af781613abe565b9050919050565b7f4e487b71000000000000000000000000000000000000000000000000000000005f52603260045260245ffd5b5f8154613b37816134b2565b613b418186612aa5565b9450600182165f8114613b5b5760018114613b7157613ba3565b60ff198316865281151560200286019350613ba3565b613b7a85613666565b5f5b83811015613b9b57815481890152600182019150602081019050613b7c565b808801955050505b50505092915050565b5f81549050919050565b5f82825260208201905092915050565b5f819050815f5260205f209050919050565b5f815f1c9050919050565b5f73ffffffffffffffffffffffffffffffffffffffff82169050919050565b5f613c14613c0f83613bd8565b613be3565b9050919050565b5f613c268254613c02565b9050919050565b5f600182019050919050565b5f613c4382613bac565b613c4d8185613bb6565b9350613c5883613bc6565b805f5b83811015613c8f57613c6c82613c1b565b613c768882612ff9565b9750613c8183613c2d565b925050600181019050613c5b565b5085935050505092915050565b5f60c082019050613caf5f830189612bd3565b8181036020830152613cc18188613b2b565b90508181036040830152613cd58187613b2b565b90508181036060830152613ce98186612aed565b9050613cf86080830185613217565b81810360a0830152613d0a8184613c39565b9050979650505050505050565b5f81519050613d2581612b4e565b92915050565b5f60208284031215613d4057613d3f6129e0565b5b5f613d4d84828501613d17565b91505092915050565b7f4552433732313a20696e76616c696420746f6b656e20494400000000000000005f82015250565b5f613d8a601883612aa5565b9150613d9582613d56565b602082019050919050565b5f6020820190508181035f830152613db781613d7e565b9050919050565b7f4552433732313a2061646472657373207a65726f206973206e6f7420612076615f8201527f6c6964206f776e65720000000000000000000000000000000000000000000000602082015250565b5f613e18602983612aa5565b9150613e2382613dbe565b604082019050919050565b5f6020820190508181035f830152613e4581613e0c565b9050919050565b7f416c7265616479207061727469636970617465640000000000000000000000005f82015250565b5f613e80601483612aa5565b9150613e8b82613e4c565b602082019050919050565b5f6020820190508181035f830152613ead81613e74565b9050919050565b7f4e487b71000000000000000000000000000000000000000000000000000000005f52601160045260245ffd5b5f613eeb82612b45565b91507fffffffffffffffffffffffffffffffffffffffffffffffffffffffffffffffff8203613f1d57613f1c613eb4565b5b600182019050919050565b5f81905092915050565b5f613f3c82612a9b565b613f468185613f28565b9350613f56818560208601612ab5565b80840191505092915050565b5f613f6d8285613f32565b9150613f798284613f32565b91508190509392505050565b7f4f776e61626c653a206e6577206f776e657220697320746865207a65726f20615f8201527f6464726573730000000000000000000000000000000000000000000000000000602082015250565b5f613fdf602683612aa5565b9150613fea82613f85565b604082019050919050565b5f6020820190508181035f83015261400c81613fd3565b9050919050565b7f4552433732313a206d696e7420746f20746865207a65726f20616464726573735f82015250565b5f614047602083612aa5565b915061405282614013565b602082019050919050565b5f6020820190508181035f8301526140748161403b565b9050919050565b7f4552433732313a20746f6b656e20616c7265616479206d696e746564000000005f82015250565b5f6140af601c83612aa5565b91506140ba8261407b565b602082019050919050565b5f6020820190508181035f8301526140dc816140a3565b9050919050565b7f4552433732313a207472616e736665722066726f6d20696e636f7272656374205f8201527f6f776e6572000000000000000000000000000000000000000000000000000000602082015250565b5f61413d602583612aa5565b9150614148826140e3565b604082019050919050565b5f6020820190508181035f83015261416a81614131565b9050919050565b7f4552433732313a207472616e7366657220746f20746865207a65726f206164645f8201527f7265737300000000000000000000000000000000000000000000000000000000602082015250565b5f6141cb602483612aa5565b91506141d682614171565b604082019050919050565b5f6020820190508181035f8301526141f8816141bf565b9050919050565b7f4f776e61626c653a2063616c6c6572206973206e6f7420746865206f776e65725f82015250565b5f614233602083612aa5565b915061423e826141ff565b602082019050919050565b5f6020820190508181035f83015261426081614227565b9050919050565b7f4552433732313a20617070726f766520746f2063616c6c6572000000000000005f82015250565b5f61429b601983612aa5565b91506142a682614267565b602082019050919050565b5f6020820190508181035f8301526142c88161428f565b9050919050565b7f4552433732313a207472616e7366657220746f206e6f6e2045524337323152655f8201527f63656976657220696d706c656d656e7465720000000000000000000000000000602082015250565b5f614329603283612aa5565b9150614334826142cf565b604082019050919050565b5f6020820190508181035f8301526143568161431d565b9050919050565b7f4e487b71000000000000000000000000000000000000000000000000000000005f52601260045260245ffd5b5f81519050919050565b5f82825260208201905092915050565b5f6143ae8261438a565b6143b88185614394565b93506143c8818560208601612ab5565b6143d181612add565b840191505092915050565b5f6080820190506143ef5f830187612bd3565b6143fc6020830186612bd3565b6144096040830185613217565b818103606083015261441b81846143a4565b905095945050505050565b5f8151905061443481612a13565b92915050565b5f6020828403121561444f5761444e6129e0565b5b5f61445c84828501614426565b9150509291505056fea2646970667358221220705b97c8807531553a63e87da6a2244d14bab1851cdd69a4f66bbdd652cdc0a464736f6c63430008140033",
  "immutableReferences": {},
  "source": "// SPDX-License-Identifier: MIT\npragma solidity ^0.8.0;\n\nimport \"@openzeppelin/contracts/token/ERC721/ERC721.sol\";\nimport \"@openzeppelin/contracts/access/Ownable.sol\";\n\ninterface ITasksSamaContract {\n    function mintVideoNFT(address recipient, string calldata title, string calldata description, string calldata ipfsUrl, uint256 rewardEarned, address[] calldata participants) external returns (uint256);\n}\n\ncontract Tasks is ERC721, Ownable {\n    \n    struct Task {\n        uint256 tokenId;\n        address owner;\n        string title;\n        string description;\n        string imageURI;\n        uint256 reward;\n        address[] participants;\n        address winner;\n    }\n\n    ITasksSamaContract private _taskSamaContract;\n    Task[] public tasks;\n\n    mapping(uint256 => bool) public taskExists;\n    mapping(uint256 => bool) public taskCompleted;\n\n    uint256 public minimumReward = 5 * 10 ** 18; // Minimum reward is 5 GLMR tokens\n\n    event TaskCreated(uint256 indexed taskId, address owner, string title, string description, string imageURI, uint256 reward);\n    event TaskCompleted(uint256 indexed taskId, address winner);\n\n    constructor(address taskSamaContractAddress) ERC721(\"Tasks\", \"TASK\") {\n        _taskSamaContract = ITasksSamaContract(taskSamaContractAddress);\n    }\n\n    function createTask(string memory _title, string memory _description, string memory _imageURI, uint256 _reward) public {\n        require(_reward >= minimumReward, \"Reward is too low\");\n\n        Task memory newTask = Task({\n            tokenId: tasks.length,\n            owner: msg.sender,\n            title: _title,\n            description: _description,\n            imageURI: _imageURI,\n            reward: _reward,\n            participants: new address[](0),\n            winner: address(0)\n        });\n\n        tasks.push(newTask);\n\n        _mint(msg.sender, newTask.tokenId);\n        taskExists[newTask.tokenId] = true;\n\n        emit TaskCreated(newTask.tokenId, msg.sender, _title, _description, _imageURI, _reward);\n    }\n\n    function participate(uint256 _taskId) public {\n        require(taskExists[_taskId], \"Task does not exist\");\n        require(!_isParticipant(_taskId, msg.sender), \"Already participated\");\n\n        tasks[_taskId].participants.push(msg.sender);\n    }\n\n    function chooseWinner(uint256 _taskId, address _winner, string memory ipfsUrl) public {\n        require(taskExists[_taskId], \"Task does not exist\");\n        require(!_isCompleted(_taskId), \"Task is already completed\");\n        require(_isParticipant(_taskId, _winner), \"Winner did not participate\");\n        require(_isOwner(_taskId, msg.sender));\n\n        tasks[_taskId].winner = _winner;\n        taskCompleted[_taskId] = true;\n\n        //transfer the reward to the winner\n        _transfer(address(this), _winner, _taskId); \n         //mints the video NFT\n        _taskSamaContract.mintVideoNFT(_winner, tasks[_taskId].title, tasks[_taskId].description, ipfsUrl, tasks[_taskId].reward, tasks[_taskId].participants);\n\n        emit TaskCompleted(_taskId, _winner);\n    }\n\n    function _isParticipant(uint256 _taskId, address _participant) public view returns (bool) {\n        for (uint256 i = 0; i < tasks[_taskId].participants.length; i++) {\n            if (tasks[_taskId].participants[i] == _participant) {\n                return true;\n            }\n        }\n        return false;\n    }\n\n    function _isCompleted(uint256 _taskId) public view returns (bool) {\n        return taskCompleted[_taskId];\n    }\n\n    function _isOwner(uint256 _taskId, address walletCheck) public view returns (bool) {\n        return tasks[_taskId].owner == walletCheck;\n    }\n\n    function _getTasks() public view returns (Task[] memory) {\n        return tasks;\n    }\n}\n",
  "sourcePath": "/home/carl/task-sama/truffle/contracts/Tasks.sol",
  "compiler": {
    "name": "solc",
    "version": "0.8.20+commit.a1b79de6.Emscripten.clang"
  },
  "schemaVersion": "3.4.13",
  "updatedAt": "2023-05-10T14:50:13.462Z",
  "devdoc": {
    "events": {
      "Approval(address,address,uint256)": {
        "details": "Emitted when `owner` enables `approved` to manage the `tokenId` token."
      },
      "ApprovalForAll(address,address,bool)": {
        "details": "Emitted when `owner` enables or disables (`approved`) `operator` to manage all of its assets."
      },
      "Transfer(address,address,uint256)": {
        "details": "Emitted when `tokenId` token is transferred from `from` to `to`."
      }
    },
    "kind": "dev",
    "methods": {
      "approve(address,uint256)": {
        "details": "See {IERC721-approve}."
      },
      "balanceOf(address)": {
        "details": "See {IERC721-balanceOf}."
      },
      "getApproved(uint256)": {
        "details": "See {IERC721-getApproved}."
      },
      "isApprovedForAll(address,address)": {
        "details": "See {IERC721-isApprovedForAll}."
      },
      "name()": {
        "details": "See {IERC721Metadata-name}."
      },
      "owner()": {
        "details": "Returns the address of the current owner."
      },
      "ownerOf(uint256)": {
        "details": "See {IERC721-ownerOf}."
      },
      "renounceOwnership()": {
        "details": "Leaves the contract without owner. It will not be possible to call `onlyOwner` functions anymore. Can only be called by the current owner. NOTE: Renouncing ownership will leave the contract without an owner, thereby removing any functionality that is only available to the owner."
      },
      "safeTransferFrom(address,address,uint256)": {
        "details": "See {IERC721-safeTransferFrom}."
      },
      "safeTransferFrom(address,address,uint256,bytes)": {
        "details": "See {IERC721-safeTransferFrom}."
      },
      "setApprovalForAll(address,bool)": {
        "details": "See {IERC721-setApprovalForAll}."
      },
      "supportsInterface(bytes4)": {
        "details": "See {IERC165-supportsInterface}."
      },
      "symbol()": {
        "details": "See {IERC721Metadata-symbol}."
      },
      "tokenURI(uint256)": {
        "details": "See {IERC721Metadata-tokenURI}."
      },
      "transferFrom(address,address,uint256)": {
        "details": "See {IERC721-transferFrom}."
      },
      "transferOwnership(address)": {
        "details": "Transfers ownership of the contract to a new account (`newOwner`). Can only be called by the current owner."
      }
    },
    "version": 1
  },
  "userdoc": {
    "kind": "user",
    "methods": {},
    "version": 1
  }
}