{
  "contractName": "Tasks",
  "abi": [
    {
      "inputs": [],
      "stateMutability": "nonpayable",
      "type": "constructor"
    },
    {
      "anonymous": false,
      "inputs": [
        {
          "indexed": true,
          "internalType": "address",
          "name": "owner",
          "type": "address"
        },
        {
          "indexed": true,
          "internalType": "address",
          "name": "approved",
          "type": "address"
        },
        {
          "indexed": true,
          "internalType": "uint256",
          "name": "tokenId",
          "type": "uint256"
        }
      ],
      "name": "Approval",
      "type": "event"
    },
    {
      "anonymous": false,
      "inputs": [
        {
          "indexed": true,
          "internalType": "address",
          "name": "owner",
          "type": "address"
        },
        {
          "indexed": true,
          "internalType": "address",
          "name": "operator",
          "type": "address"
        },
        {
          "indexed": false,
          "internalType": "bool",
          "name": "approved",
          "type": "bool"
        }
      ],
      "name": "ApprovalForAll",
      "type": "event"
    },
    {
      "anonymous": false,
      "inputs": [
        {
          "indexed": true,
          "internalType": "address",
          "name": "previousOwner",
          "type": "address"
        },
        {
          "indexed": true,
          "internalType": "address",
          "name": "newOwner",
          "type": "address"
        }
      ],
      "name": "OwnershipTransferred",
      "type": "event"
    },
    {
      "anonymous": false,
      "inputs": [
        {
          "indexed": true,
          "internalType": "uint256",
          "name": "taskId",
          "type": "uint256"
        },
        {
          "indexed": false,
          "internalType": "address",
          "name": "winner",
          "type": "address"
        }
      ],
      "name": "TaskCompleted",
      "type": "event"
    },
    {
      "anonymous": false,
      "inputs": [
        {
          "indexed": true,
          "internalType": "uint256",
          "name": "taskId",
          "type": "uint256"
        },
        {
          "indexed": false,
          "internalType": "address",
          "name": "owner",
          "type": "address"
        },
        {
          "indexed": false,
          "internalType": "string",
          "name": "title",
          "type": "string"
        },
        {
          "indexed": false,
          "internalType": "string",
          "name": "description",
          "type": "string"
        },
        {
          "indexed": false,
          "internalType": "string",
          "name": "imageURI",
          "type": "string"
        },
        {
          "indexed": false,
          "internalType": "uint256",
          "name": "reward",
          "type": "uint256"
        }
      ],
      "name": "TaskCreated",
      "type": "event"
    },
    {
      "anonymous": false,
      "inputs": [
        {
          "indexed": true,
          "internalType": "address",
          "name": "from",
          "type": "address"
        },
        {
          "indexed": true,
          "internalType": "address",
          "name": "to",
          "type": "address"
        },
        {
          "indexed": true,
          "internalType": "uint256",
          "name": "tokenId",
          "type": "uint256"
        }
      ],
      "name": "Transfer",
      "type": "event"
    },
    {
      "inputs": [
        {
          "internalType": "address",
          "name": "to",
          "type": "address"
        },
        {
          "internalType": "uint256",
          "name": "tokenId",
          "type": "uint256"
        }
      ],
      "name": "approve",
      "outputs": [],
      "stateMutability": "nonpayable",
      "type": "function"
    },
    {
      "inputs": [
        {
          "internalType": "address",
          "name": "owner",
          "type": "address"
        }
      ],
      "name": "balanceOf",
      "outputs": [
        {
          "internalType": "uint256",
          "name": "",
          "type": "uint256"
        }
      ],
      "stateMutability": "view",
      "type": "function",
      "constant": true
    },
    {
      "inputs": [
        {
          "internalType": "uint256",
          "name": "tokenId",
          "type": "uint256"
        }
      ],
      "name": "getApproved",
      "outputs": [
        {
          "internalType": "address",
          "name": "",
          "type": "address"
        }
      ],
      "stateMutability": "view",
      "type": "function",
      "constant": true
    },
    {
      "inputs": [
        {
          "internalType": "address",
          "name": "owner",
          "type": "address"
        },
        {
          "internalType": "address",
          "name": "operator",
          "type": "address"
        }
      ],
      "name": "isApprovedForAll",
      "outputs": [
        {
          "internalType": "bool",
          "name": "",
          "type": "bool"
        }
      ],
      "stateMutability": "view",
      "type": "function",
      "constant": true
    },
    {
      "inputs": [],
      "name": "minimumReward",
      "outputs": [
        {
          "internalType": "uint256",
          "name": "",
          "type": "uint256"
        }
      ],
      "stateMutability": "view",
      "type": "function",
      "constant": true
    },
    {
      "inputs": [],
      "name": "name",
      "outputs": [
        {
          "internalType": "string",
          "name": "",
          "type": "string"
        }
      ],
      "stateMutability": "view",
      "type": "function",
      "constant": true
    },
    {
      "inputs": [],
      "name": "owner",
      "outputs": [
        {
          "internalType": "address",
          "name": "",
          "type": "address"
        }
      ],
      "stateMutability": "view",
      "type": "function",
      "constant": true
    },
    {
      "inputs": [
        {
          "internalType": "uint256",
          "name": "tokenId",
          "type": "uint256"
        }
      ],
      "name": "ownerOf",
      "outputs": [
        {
          "internalType": "address",
          "name": "",
          "type": "address"
        }
      ],
      "stateMutability": "view",
      "type": "function",
      "constant": true
    },
    {
      "inputs": [],
      "name": "renounceOwnership",
      "outputs": [],
      "stateMutability": "nonpayable",
      "type": "function"
    },
    {
      "inputs": [
        {
          "internalType": "address",
          "name": "from",
          "type": "address"
        },
        {
          "internalType": "address",
          "name": "to",
          "type": "address"
        },
        {
          "internalType": "uint256",
          "name": "tokenId",
          "type": "uint256"
        }
      ],
      "name": "safeTransferFrom",
      "outputs": [],
      "stateMutability": "nonpayable",
      "type": "function"
    },
    {
      "inputs": [
        {
          "internalType": "address",
          "name": "from",
          "type": "address"
        },
        {
          "internalType": "address",
          "name": "to",
          "type": "address"
        },
        {
          "internalType": "uint256",
          "name": "tokenId",
          "type": "uint256"
        },
        {
          "internalType": "bytes",
          "name": "data",
          "type": "bytes"
        }
      ],
      "name": "safeTransferFrom",
      "outputs": [],
      "stateMutability": "nonpayable",
      "type": "function"
    },
    {
      "inputs": [
        {
          "internalType": "address",
          "name": "operator",
          "type": "address"
        },
        {
          "internalType": "bool",
          "name": "approved",
          "type": "bool"
        }
      ],
      "name": "setApprovalForAll",
      "outputs": [],
      "stateMutability": "nonpayable",
      "type": "function"
    },
    {
      "inputs": [
        {
          "internalType": "bytes4",
          "name": "interfaceId",
          "type": "bytes4"
        }
      ],
      "name": "supportsInterface",
      "outputs": [
        {
          "internalType": "bool",
          "name": "",
          "type": "bool"
        }
      ],
      "stateMutability": "view",
      "type": "function",
      "constant": true
    },
    {
      "inputs": [],
      "name": "symbol",
      "outputs": [
        {
          "internalType": "string",
          "name": "",
          "type": "string"
        }
      ],
      "stateMutability": "view",
      "type": "function",
      "constant": true
    },
    {
      "inputs": [
        {
          "internalType": "uint256",
          "name": "",
          "type": "uint256"
        }
      ],
      "name": "taskCompleted",
      "outputs": [
        {
          "internalType": "bool",
          "name": "",
          "type": "bool"
        }
      ],
      "stateMutability": "view",
      "type": "function",
      "constant": true
    },
    {
      "inputs": [
        {
          "internalType": "uint256",
          "name": "",
          "type": "uint256"
        }
      ],
      "name": "taskExists",
      "outputs": [
        {
          "internalType": "bool",
          "name": "",
          "type": "bool"
        }
      ],
      "stateMutability": "view",
      "type": "function",
      "constant": true
    },
    {
      "inputs": [
        {
          "internalType": "uint256",
          "name": "",
          "type": "uint256"
        }
      ],
      "name": "tasks",
      "outputs": [
        {
          "internalType": "uint256",
          "name": "tokenId",
          "type": "uint256"
        },
        {
          "internalType": "address",
          "name": "owner",
          "type": "address"
        },
        {
          "internalType": "string",
          "name": "title",
          "type": "string"
        },
        {
          "internalType": "string",
          "name": "description",
          "type": "string"
        },
        {
          "internalType": "string",
          "name": "imageURI",
          "type": "string"
        },
        {
          "internalType": "uint256",
          "name": "reward",
          "type": "uint256"
        },
        {
          "internalType": "address",
          "name": "winner",
          "type": "address"
        }
      ],
      "stateMutability": "view",
      "type": "function",
      "constant": true
    },
    {
      "inputs": [
        {
          "internalType": "uint256",
          "name": "tokenId",
          "type": "uint256"
        }
      ],
      "name": "tokenURI",
      "outputs": [
        {
          "internalType": "string",
          "name": "",
          "type": "string"
        }
      ],
      "stateMutability": "view",
      "type": "function",
      "constant": true
    },
    {
      "inputs": [
        {
          "internalType": "address",
          "name": "from",
          "type": "address"
        },
        {
          "internalType": "address",
          "name": "to",
          "type": "address"
        },
        {
          "internalType": "uint256",
          "name": "tokenId",
          "type": "uint256"
        }
      ],
      "name": "transferFrom",
      "outputs": [],
      "stateMutability": "nonpayable",
      "type": "function"
    },
    {
      "inputs": [
        {
          "internalType": "address",
          "name": "newOwner",
          "type": "address"
        }
      ],
      "name": "transferOwnership",
      "outputs": [],
      "stateMutability": "nonpayable",
      "type": "function"
    },
    {
      "inputs": [
        {
          "internalType": "string",
          "name": "_title",
          "type": "string"
        },
        {
          "internalType": "string",
          "name": "_description",
          "type": "string"
        },
        {
          "internalType": "string",
          "name": "_imageURI",
          "type": "string"
        },
        {
          "internalType": "uint256",
          "name": "_reward",
          "type": "uint256"
        }
      ],
      "name": "createTask",
      "outputs": [],
      "stateMutability": "nonpayable",
      "type": "function"
    },
    {
      "inputs": [
        {
          "internalType": "uint256",
          "name": "_taskId",
          "type": "uint256"
        }
      ],
      "name": "participate",
      "outputs": [],
      "stateMutability": "nonpayable",
      "type": "function"
    },
    {
      "inputs": [
        {
          "internalType": "uint256",
          "name": "_taskId",
          "type": "uint256"
        },
        {
          "internalType": "address",
          "name": "_winner",
          "type": "address"
        }
      ],
      "name": "chooseWinner",
      "outputs": [],
      "stateMutability": "nonpayable",
      "type": "function"
    }
  ],
  "bytecode": "0x60806040526000600a553480156200001657600080fd5b506040518060400160405280600581526020017f5461736b730000000000000000000000000000000000000000000000000000008152506040518060400160405280600481526020017f5441534b00000000000000000000000000000000000000000000000000000000815250816000908162000094919062000417565b508060019081620000a6919062000417565b505050620000c9620000bd620000cf60201b60201c565b620000d760201b60201c565b620004fe565b600033905090565b6000600660009054906101000a900473ffffffffffffffffffffffffffffffffffffffff16905081600660006101000a81548173ffffffffffffffffffffffffffffffffffffffff021916908373ffffffffffffffffffffffffffffffffffffffff1602179055508173ffffffffffffffffffffffffffffffffffffffff168173ffffffffffffffffffffffffffffffffffffffff167f8be0079c531659141344cd1fd0a4f28419497f9722a3daafe3b4186f6b6457e060405160405180910390a35050565b600081519050919050565b7f4e487b7100000000000000000000000000000000000000000000000000000000600052604160045260246000fd5b7f4e487b7100000000000000000000000000000000000000000000000000000000600052602260045260246000fd5b600060028204905060018216806200021f57607f821691505b602082108103620002355762000234620001d7565b5b50919050565b60008190508160005260206000209050919050565b60006020601f8301049050919050565b600082821b905092915050565b6000600883026200029f7fffffffffffffffffffffffffffffffffffffffffffffffffffffffffffffffff8262000260565b620002ab868362000260565b95508019841693508086168417925050509392505050565b6000819050919050565b6000819050919050565b6000620002f8620002f2620002ec84620002c3565b620002cd565b620002c3565b9050919050565b6000819050919050565b6200031483620002d7565b6200032c6200032382620002ff565b8484546200026d565b825550505050565b600090565b6200034362000334565b6200035081848462000309565b505050565b5b8181101562000378576200036c60008262000339565b60018101905062000356565b5050565b601f821115620003c75762000391816200023b565b6200039c8462000250565b81016020851015620003ac578190505b620003c4620003bb8562000250565b83018262000355565b50505b505050565b600082821c905092915050565b6000620003ec60001984600802620003cc565b1980831691505092915050565b6000620004078383620003d9565b9150826002028217905092915050565b62000422826200019d565b67ffffffffffffffff8111156200043e576200043d620001a8565b5b6200044a825462000206565b620004578282856200037c565b600060209050601f8311600181146200048f57600084156200047a578287015190505b620004868582620003f9565b865550620004f6565b601f1984166200049f866200023b565b60005b82811015620004c957848901518255600182019150602085019450602081019050620004a2565b86831015620004e95784890151620004e5601f891682620003d9565b8355505b6001600288020188555050505b505050505050565b613b2b806200050e6000396000f3fe608060405234801561001057600080fd5b506004361061014d5760003560e01c80637fea0249116100c3578063a22cb4651161007c578063a22cb465146103a2578063b88d4fde146103be578063c87b56dd146103da578063d90583df1461040a578063e985e9c51461043a578063f2fde38b1461046a5761014d565b80637fea0249146102c6578063813f8dc1146102f6578063845c9306146103145780638d977672146103305780638da5cb5b1461036657806395d89b41146103845761014d565b806323b872dd1161011557806323b872dd1461020857806342842e0e146102245780635a60105d146102405780636352211e1461025c57806370a082311461028c578063715018a6146102bc5761014d565b806301ffc9a71461015257806306fdde0314610182578063081812fc146101a0578063095ea7b3146101d0578063103099f3146101ec575b600080fd5b61016c60048036038101906101679190612561565b610486565b60405161017991906125a9565b60405180910390f35b61018a610568565b6040516101979190612654565b60405180910390f35b6101ba60048036038101906101b591906126ac565b6105fa565b6040516101c7919061271a565b60405180910390f35b6101ea60048036038101906101e59190612761565b610640565b005b610206600480360381019061020191906128d6565b610757565b005b610222600480360381019061021d9190612991565b610a0d565b005b61023e60048036038101906102399190612991565b610a6d565b005b61025a600480360381019061025591906129e4565b610a8d565b005b610276600480360381019061027191906126ac565b610c71565b604051610283919061271a565b60405180910390f35b6102a660048036038101906102a19190612a24565b610cf7565b6040516102b39190612a60565b60405180910390f35b6102c4610dae565b005b6102e060048036038101906102db91906126ac565b610dc2565b6040516102ed91906125a9565b60405180910390f35b6102fe610de2565b60405161030b9190612a60565b60405180910390f35b61032e600480360381019061032991906126ac565b610de8565b005b61034a600480360381019061034591906126ac565b610f1b565b60405161035d9796959493929190612a7b565b60405180910390f35b61036e611145565b60405161037b919061271a565b60405180910390f35b61038c61116f565b6040516103999190612654565b60405180910390f35b6103bc60048036038101906103b79190612b2b565b611201565b005b6103d860048036038101906103d39190612c0c565b611217565b005b6103f460048036038101906103ef91906126ac565b611279565b6040516104019190612654565b60405180910390f35b610424600480360381019061041f91906126ac565b6112e1565b60405161043191906125a9565b60405180910390f35b610454600480360381019061044f9190612c8f565b611301565b60405161046191906125a9565b60405180910390f35b610484600480360381019061047f9190612a24565b611395565b005b60007f80ac58cd000000000000000000000000000000000000000000000000000000007bffffffffffffffffffffffffffffffffffffffffffffffffffffffff1916827bffffffffffffffffffffffffffffffffffffffffffffffffffffffff1916148061055157507f5b5e139f000000000000000000000000000000000000000000000000000000007bffffffffffffffffffffffffffffffffffffffffffffffffffffffff1916827bffffffffffffffffffffffffffffffffffffffffffffffffffffffff1916145b80610561575061056082611418565b5b9050919050565b60606000805461057790612cfe565b80601f01602080910402602001604051908101604052809291908181526020018280546105a390612cfe565b80156105f05780601f106105c5576101008083540402835291602001916105f0565b820191906000526020600020905b8154815290600101906020018083116105d357829003601f168201915b5050505050905090565b600061060582611482565b6004600083815260200190815260200160002060009054906101000a900473ffffffffffffffffffffffffffffffffffffffff169050919050565b600061064b82610c71565b90508073ffffffffffffffffffffffffffffffffffffffff168373ffffffffffffffffffffffffffffffffffffffff16036106bb576040517f08c379a00000000000000000000000000000000000000000000000000000000081526004016106b290612da1565b60405180910390fd5b8073ffffffffffffffffffffffffffffffffffffffff166106da6114cd565b73ffffffffffffffffffffffffffffffffffffffff1614806107095750610708816107036114cd565b611301565b5b610748576040517f08c379a000000000000000000000000000000000000000000000000000000000815260040161073f90612e33565b60405180910390fd5b61075283836114d5565b505050565b600a5481101561079c576040517f08c379a000000000000000000000000000000000000000000000000000000000815260040161079390612e9f565b60405180910390fd5b600060405180610100016040528060078054905081526020013373ffffffffffffffffffffffffffffffffffffffff168152602001868152602001858152602001848152602001838152602001600067ffffffffffffffff811115610804576108036127ab565b5b6040519080825280602002602001820160405280156108325781602001602082028036833780820191505090505b508152602001600073ffffffffffffffffffffffffffffffffffffffff16815250905060078190806001815401808255809150506001900390600052602060002090600802016000909190919091506000820151816000015560208201518160010160006101000a81548173ffffffffffffffffffffffffffffffffffffffff021916908373ffffffffffffffffffffffffffffffffffffffff16021790555060408201518160020190816108e7919061306b565b5060608201518160030190816108fd919061306b565b506080820151816004019081610913919061306b565b5060a0820151816005015560c082015181600601908051906020019061093a92919061244e565b5060e08201518160070160006101000a81548173ffffffffffffffffffffffffffffffffffffffff021916908373ffffffffffffffffffffffffffffffffffffffff160217905550505061099233826000015161158e565b6001600860008360000151815260200190815260200160002060006101000a81548160ff02191690831515021790555080600001517f4c202347b72517bb87f988a35bf19d250d8a3e9dcdf776616ef17eb1c0a94f1133878787876040516109fe95949392919061313d565b60405180910390a25050505050565b610a1e610a186114cd565b826117ab565b610a5d576040517f08c379a0000000000000000000000000000000000000000000000000000000008152600401610a5490613217565b60405180910390fd5b610a68838383611840565b505050565b610a8883838360405180602001604052806000815250611217565b505050565b610a95611b39565b6008600083815260200190815260200160002060009054906101000a900460ff16610af5576040517f08c379a0000000000000000000000000000000000000000000000000000000008152600401610aec90613283565b60405180910390fd5b610afe82611bb7565b15610b3e576040517f08c379a0000000000000000000000000000000000000000000000000000000008152600401610b35906132ef565b60405180910390fd5b610b488282611be1565b610b87576040517f08c379a0000000000000000000000000000000000000000000000000000000008152600401610b7e9061335b565b60405180910390fd5b610b918233611cd6565b610b9a57600080fd5b8060078381548110610baf57610bae61337b565b5b906000526020600020906008020160070160006101000a81548173ffffffffffffffffffffffffffffffffffffffff021916908373ffffffffffffffffffffffffffffffffffffffff16021790555060016009600084815260200190815260200160002060006101000a81548160ff021916908315150217905550610c35308284611840565b817fbb5889c77948badf90e8a5c73d55265e5f5d6e4837a79a78c5669691b897faed82604051610c65919061271a565b60405180910390a25050565b600080610c7d83611d54565b9050600073ffffffffffffffffffffffffffffffffffffffff168173ffffffffffffffffffffffffffffffffffffffff1603610cee576040517f08c379a0000000000000000000000000000000000000000000000000000000008152600401610ce5906133f6565b60405180910390fd5b80915050919050565b60008073ffffffffffffffffffffffffffffffffffffffff168273ffffffffffffffffffffffffffffffffffffffff1603610d67576040517f08c379a0000000000000000000000000000000000000000000000000000000008152600401610d5e90613488565b60405180910390fd5b600360008373ffffffffffffffffffffffffffffffffffffffff1673ffffffffffffffffffffffffffffffffffffffff168152602001908152602001600020549050919050565b610db6611b39565b610dc06000611d91565b565b60096020528060005260406000206000915054906101000a900460ff1681565b600a5481565b6008600082815260200190815260200160002060009054906101000a900460ff16610e48576040517f08c379a0000000000000000000000000000000000000000000000000000000008152600401610e3f90613283565b60405180910390fd5b610e528133611be1565b15610e92576040517f08c379a0000000000000000000000000000000000000000000000000000000008152600401610e89906134f4565b60405180910390fd5b60078181548110610ea657610ea561337b565b5b9060005260206000209060080201600601339080600181540180825580915050600190039060005260206000200160009091909190916101000a81548173ffffffffffffffffffffffffffffffffffffffff021916908373ffffffffffffffffffffffffffffffffffffffff16021790555050565b60078181548110610f2b57600080fd5b90600052602060002090600802016000915090508060000154908060010160009054906101000a900473ffffffffffffffffffffffffffffffffffffffff1690806002018054610f7a90612cfe565b80601f0160208091040260200160405190810160405280929190818152602001828054610fa690612cfe565b8015610ff35780601f10610fc857610100808354040283529160200191610ff3565b820191906000526020600020905b815481529060010190602001808311610fd657829003601f168201915b50505050509080600301805461100890612cfe565b80601f016020809104026020016040519081016040528092919081815260200182805461103490612cfe565b80156110815780601f1061105657610100808354040283529160200191611081565b820191906000526020600020905b81548152906001019060200180831161106457829003601f168201915b50505050509080600401805461109690612cfe565b80601f01602080910402602001604051908101604052809291908181526020018280546110c290612cfe565b801561110f5780601f106110e45761010080835404028352916020019161110f565b820191906000526020600020905b8154815290600101906020018083116110f257829003601f168201915b5050505050908060050154908060070160009054906101000a900473ffffffffffffffffffffffffffffffffffffffff16905087565b6000600660009054906101000a900473ffffffffffffffffffffffffffffffffffffffff16905090565b60606001805461117e90612cfe565b80601f01602080910402602001604051908101604052809291908181526020018280546111aa90612cfe565b80156111f75780601f106111cc576101008083540402835291602001916111f7565b820191906000526020600020905b8154815290600101906020018083116111da57829003601f168201915b5050505050905090565b61121361120c6114cd565b8383611e57565b5050565b6112286112226114cd565b836117ab565b611267576040517f08c379a000000000000000000000000000000000000000000000000000000000815260040161125e90613217565b60405180910390fd5b61127384848484611fc3565b50505050565b606061128482611482565b600061128e61201f565b905060008151116112ae57604051806020016040528060008152506112d9565b806112b884612036565b6040516020016112c9929190613550565b6040516020818303038152906040525b915050919050565b60086020528060005260406000206000915054906101000a900460ff1681565b6000600560008473ffffffffffffffffffffffffffffffffffffffff1673ffffffffffffffffffffffffffffffffffffffff16815260200190815260200160002060008373ffffffffffffffffffffffffffffffffffffffff1673ffffffffffffffffffffffffffffffffffffffff16815260200190815260200160002060009054906101000a900460ff16905092915050565b61139d611b39565b600073ffffffffffffffffffffffffffffffffffffffff168173ffffffffffffffffffffffffffffffffffffffff160361140c576040517f08c379a0000000000000000000000000000000000000000000000000000000008152600401611403906135e6565b60405180910390fd5b61141581611d91565b50565b60007f01ffc9a7000000000000000000000000000000000000000000000000000000007bffffffffffffffffffffffffffffffffffffffffffffffffffffffff1916827bffffffffffffffffffffffffffffffffffffffffffffffffffffffff1916149050919050565b61148b81612104565b6114ca576040517f08c379a00000000000000000000000000000000000000000000000000000000081526004016114c1906133f6565b60405180910390fd5b50565b600033905090565b816004600083815260200190815260200160002060006101000a81548173ffffffffffffffffffffffffffffffffffffffff021916908373ffffffffffffffffffffffffffffffffffffffff160217905550808273ffffffffffffffffffffffffffffffffffffffff1661154883610c71565b73ffffffffffffffffffffffffffffffffffffffff167f8c5be1e5ebec7d5bd14f71427d1e84f3dd0314c0f7b2291e5b200ac8c7c3b92560405160405180910390a45050565b600073ffffffffffffffffffffffffffffffffffffffff168273ffffffffffffffffffffffffffffffffffffffff16036115fd576040517f08c379a00000000000000000000000000000000000000000000000000000000081526004016115f490613652565b60405180910390fd5b61160681612104565b15611646576040517f08c379a000000000000000000000000000000000000000000000000000000000815260040161163d906136be565b60405180910390fd5b611654600083836001612145565b61165d81612104565b1561169d576040517f08c379a0000000000000000000000000000000000000000000000000000000008152600401611694906136be565b60405180910390fd5b6001600360008473ffffffffffffffffffffffffffffffffffffffff1673ffffffffffffffffffffffffffffffffffffffff16815260200190815260200160002060008282540192505081905550816002600083815260200190815260200160002060006101000a81548173ffffffffffffffffffffffffffffffffffffffff021916908373ffffffffffffffffffffffffffffffffffffffff160217905550808273ffffffffffffffffffffffffffffffffffffffff16600073ffffffffffffffffffffffffffffffffffffffff167fddf252ad1be2c89b69c2b068fc378daa952ba7f163c4a11628f55a4df523b3ef60405160405180910390a46117a760008383600161214b565b5050565b6000806117b783610c71565b90508073ffffffffffffffffffffffffffffffffffffffff168473ffffffffffffffffffffffffffffffffffffffff1614806117f957506117f88185611301565b5b8061183757508373ffffffffffffffffffffffffffffffffffffffff1661181f846105fa565b73ffffffffffffffffffffffffffffffffffffffff16145b91505092915050565b8273ffffffffffffffffffffffffffffffffffffffff1661186082610c71565b73ffffffffffffffffffffffffffffffffffffffff16146118b6576040517f08c379a00000000000000000000000000000000000000000000000000000000081526004016118ad90613750565b60405180910390fd5b600073ffffffffffffffffffffffffffffffffffffffff168273ffffffffffffffffffffffffffffffffffffffff1603611925576040517f08c379a000000000000000000000000000000000000000000000000000000000815260040161191c906137e2565b60405180910390fd5b6119328383836001612145565b8273ffffffffffffffffffffffffffffffffffffffff1661195282610c71565b73ffffffffffffffffffffffffffffffffffffffff16146119a8576040517f08c379a000000000000000000000000000000000000000000000000000000000815260040161199f90613750565b60405180910390fd5b6004600082815260200190815260200160002060006101000a81549073ffffffffffffffffffffffffffffffffffffffff02191690556001600360008573ffffffffffffffffffffffffffffffffffffffff1673ffffffffffffffffffffffffffffffffffffffff168152602001908152602001600020600082825403925050819055506001600360008473ffffffffffffffffffffffffffffffffffffffff1673ffffffffffffffffffffffffffffffffffffffff16815260200190815260200160002060008282540192505081905550816002600083815260200190815260200160002060006101000a81548173ffffffffffffffffffffffffffffffffffffffff021916908373ffffffffffffffffffffffffffffffffffffffff160217905550808273ffffffffffffffffffffffffffffffffffffffff168473ffffffffffffffffffffffffffffffffffffffff167fddf252ad1be2c89b69c2b068fc378daa952ba7f163c4a11628f55a4df523b3ef60405160405180910390a4611b34838383600161214b565b505050565b611b416114cd565b73ffffffffffffffffffffffffffffffffffffffff16611b5f611145565b73ffffffffffffffffffffffffffffffffffffffff1614611bb5576040517f08c379a0000000000000000000000000000000000000000000000000000000008152600401611bac9061384e565b60405180910390fd5b565b60006009600083815260200190815260200160002060009054906101000a900460ff169050919050565b600080600090505b60078481548110611bfd57611bfc61337b565b5b906000526020600020906008020160060180549050811015611cca578273ffffffffffffffffffffffffffffffffffffffff1660078581548110611c4457611c4361337b565b5b90600052602060002090600802016006018281548110611c6757611c6661337b565b5b9060005260206000200160009054906101000a900473ffffffffffffffffffffffffffffffffffffffff1673ffffffffffffffffffffffffffffffffffffffff1603611cb7576001915050611cd0565b8080611cc29061389d565b915050611be9565b50600090505b92915050565b60008173ffffffffffffffffffffffffffffffffffffffff1660078481548110611d0357611d0261337b565b5b906000526020600020906008020160010160009054906101000a900473ffffffffffffffffffffffffffffffffffffffff1673ffffffffffffffffffffffffffffffffffffffff1614905092915050565b60006002600083815260200190815260200160002060009054906101000a900473ffffffffffffffffffffffffffffffffffffffff169050919050565b6000600660009054906101000a900473ffffffffffffffffffffffffffffffffffffffff16905081600660006101000a81548173ffffffffffffffffffffffffffffffffffffffff021916908373ffffffffffffffffffffffffffffffffffffffff1602179055508173ffffffffffffffffffffffffffffffffffffffff168173ffffffffffffffffffffffffffffffffffffffff167f8be0079c531659141344cd1fd0a4f28419497f9722a3daafe3b4186f6b6457e060405160405180910390a35050565b8173ffffffffffffffffffffffffffffffffffffffff168373ffffffffffffffffffffffffffffffffffffffff1603611ec5576040517f08c379a0000000000000000000000000000000000000000000000000000000008152600401611ebc90613931565b60405180910390fd5b80600560008573ffffffffffffffffffffffffffffffffffffffff1673ffffffffffffffffffffffffffffffffffffffff16815260200190815260200160002060008473ffffffffffffffffffffffffffffffffffffffff1673ffffffffffffffffffffffffffffffffffffffff16815260200190815260200160002060006101000a81548160ff0219169083151502179055508173ffffffffffffffffffffffffffffffffffffffff168373ffffffffffffffffffffffffffffffffffffffff167f17307eab39ab6107e8899845ad3d59bd9653f200f220920489ca2b5937696c3183604051611fb691906125a9565b60405180910390a3505050565b611fce848484611840565b611fda84848484612151565b612019576040517f08c379a0000000000000000000000000000000000000000000000000000000008152600401612010906139c3565b60405180910390fd5b50505050565b606060405180602001604052806000815250905090565b606060006001612045846122d8565b01905060008167ffffffffffffffff811115612064576120636127ab565b5b6040519080825280601f01601f1916602001820160405280156120965781602001600182028036833780820191505090505b509050600082602001820190505b6001156120f9578080600190039150507f3031323334353637383961626364656600000000000000000000000000000000600a86061a8153600a85816120ed576120ec6139e3565b5b049450600085036120a4575b819350505050919050565b60008073ffffffffffffffffffffffffffffffffffffffff1661212683611d54565b73ffffffffffffffffffffffffffffffffffffffff1614159050919050565b50505050565b50505050565b60006121728473ffffffffffffffffffffffffffffffffffffffff1661242b565b156122cb578373ffffffffffffffffffffffffffffffffffffffff1663150b7a0261219b6114cd565b8786866040518563ffffffff1660e01b81526004016121bd9493929190613a67565b6020604051808303816000875af19250505080156121f957506040513d601f19601f820116820180604052508101906121f69190613ac8565b60015b61227b573d8060008114612229576040519150601f19603f3d011682016040523d82523d6000602084013e61222e565b606091505b506000815103612273576040517f08c379a000000000000000000000000000000000000000000000000000000000815260040161226a906139c3565b60405180910390fd5b805181602001fd5b63150b7a0260e01b7bffffffffffffffffffffffffffffffffffffffffffffffffffffffff1916817bffffffffffffffffffffffffffffffffffffffffffffffffffffffff1916149150506122d0565b600190505b949350505050565b600080600090507a184f03e93ff9f4daa797ed6e38ed64bf6a1f0100000000000000008310612336577a184f03e93ff9f4daa797ed6e38ed64bf6a1f010000000000000000838161232c5761232b6139e3565b5b0492506040810190505b6d04ee2d6d415b85acef81000000008310612373576d04ee2d6d415b85acef81000000008381612369576123686139e3565b5b0492506020810190505b662386f26fc1000083106123a257662386f26fc100008381612398576123976139e3565b5b0492506010810190505b6305f5e10083106123cb576305f5e10083816123c1576123c06139e3565b5b0492506008810190505b61271083106123f05761271083816123e6576123e56139e3565b5b0492506004810190505b606483106124135760648381612409576124086139e3565b5b0492506002810190505b600a8310612422576001810190505b80915050919050565b6000808273ffffffffffffffffffffffffffffffffffffffff163b119050919050565b8280548282559060005260206000209081019282156124c7579160200282015b828111156124c65782518260006101000a81548173ffffffffffffffffffffffffffffffffffffffff021916908373ffffffffffffffffffffffffffffffffffffffff1602179055509160200191906001019061246e565b5b5090506124d491906124d8565b5090565b5b808211156124f15760008160009055506001016124d9565b5090565b6000604051905090565b600080fd5b600080fd5b60007fffffffff0000000000000000000000000000000000000000000000000000000082169050919050565b61253e81612509565b811461254957600080fd5b50565b60008135905061255b81612535565b92915050565b600060208284031215612577576125766124ff565b5b60006125858482850161254c565b91505092915050565b60008115159050919050565b6125a38161258e565b82525050565b60006020820190506125be600083018461259a565b92915050565b600081519050919050565b600082825260208201905092915050565b60005b838110156125fe5780820151818401526020810190506125e3565b60008484015250505050565b6000601f19601f8301169050919050565b6000612626826125c4565b61263081856125cf565b93506126408185602086016125e0565b6126498161260a565b840191505092915050565b6000602082019050818103600083015261266e818461261b565b905092915050565b6000819050919050565b61268981612676565b811461269457600080fd5b50565b6000813590506126a681612680565b92915050565b6000602082840312156126c2576126c16124ff565b5b60006126d084828501612697565b91505092915050565b600073ffffffffffffffffffffffffffffffffffffffff82169050919050565b6000612704826126d9565b9050919050565b612714816126f9565b82525050565b600060208201905061272f600083018461270b565b92915050565b61273e816126f9565b811461274957600080fd5b50565b60008135905061275b81612735565b92915050565b60008060408385031215612778576127776124ff565b5b60006127868582860161274c565b925050602061279785828601612697565b9150509250929050565b600080fd5b600080fd5b7f4e487b7100000000000000000000000000000000000000000000000000000000600052604160045260246000fd5b6127e38261260a565b810181811067ffffffffffffffff82111715612802576128016127ab565b5b80604052505050565b60006128156124f5565b905061282182826127da565b919050565b600067ffffffffffffffff821115612841576128406127ab565b5b61284a8261260a565b9050602081019050919050565b82818337600083830152505050565b600061287961287484612826565b61280b565b905082815260208101848484011115612895576128946127a6565b5b6128a0848285612857565b509392505050565b600082601f8301126128bd576128bc6127a1565b5b81356128cd848260208601612866565b91505092915050565b600080600080608085870312156128f0576128ef6124ff565b5b600085013567ffffffffffffffff81111561290e5761290d612504565b5b61291a878288016128a8565b945050602085013567ffffffffffffffff81111561293b5761293a612504565b5b612947878288016128a8565b935050604085013567ffffffffffffffff81111561296857612967612504565b5b612974878288016128a8565b925050606061298587828801612697565b91505092959194509250565b6000806000606084860312156129aa576129a96124ff565b5b60006129b88682870161274c565b93505060206129c98682870161274c565b92505060406129da86828701612697565b9150509250925092565b600080604083850312156129fb576129fa6124ff565b5b6000612a0985828601612697565b9250506020612a1a8582860161274c565b9150509250929050565b600060208284031215612a3a57612a396124ff565b5b6000612a488482850161274c565b91505092915050565b612a5a81612676565b82525050565b6000602082019050612a756000830184612a51565b92915050565b600060e082019050612a90600083018a612a51565b612a9d602083018961270b565b8181036040830152612aaf818861261b565b90508181036060830152612ac3818761261b565b90508181036080830152612ad7818661261b565b9050612ae660a0830185612a51565b612af360c083018461270b565b98975050505050505050565b612b088161258e565b8114612b1357600080fd5b50565b600081359050612b2581612aff565b92915050565b60008060408385031215612b4257612b416124ff565b5b6000612b508582860161274c565b9250506020612b6185828601612b16565b9150509250929050565b600067ffffffffffffffff821115612b8657612b856127ab565b5b612b8f8261260a565b9050602081019050919050565b6000612baf612baa84612b6b565b61280b565b905082815260208101848484011115612bcb57612bca6127a6565b5b612bd6848285612857565b509392505050565b600082601f830112612bf357612bf26127a1565b5b8135612c03848260208601612b9c565b91505092915050565b60008060008060808587031215612c2657612c256124ff565b5b6000612c348782880161274c565b9450506020612c458782880161274c565b9350506040612c5687828801612697565b925050606085013567ffffffffffffffff811115612c7757612c76612504565b5b612c8387828801612bde565b91505092959194509250565b60008060408385031215612ca657612ca56124ff565b5b6000612cb48582860161274c565b9250506020612cc58582860161274c565b9150509250929050565b7f4e487b7100000000000000000000000000000000000000000000000000000000600052602260045260246000fd5b60006002820490506001821680612d1657607f821691505b602082108103612d2957612d28612ccf565b5b50919050565b7f4552433732313a20617070726f76616c20746f2063757272656e74206f776e6560008201527f7200000000000000000000000000000000000000000000000000000000000000602082015250565b6000612d8b6021836125cf565b9150612d9682612d2f565b604082019050919050565b60006020820190508181036000830152612dba81612d7e565b9050919050565b7f4552433732313a20617070726f76652063616c6c6572206973206e6f7420746f60008201527f6b656e206f776e6572206f7220617070726f76656420666f7220616c6c000000602082015250565b6000612e1d603d836125cf565b9150612e2882612dc1565b604082019050919050565b60006020820190508181036000830152612e4c81612e10565b9050919050565b7f52657761726420697320746f6f206c6f77000000000000000000000000000000600082015250565b6000612e896011836125cf565b9150612e9482612e53565b602082019050919050565b60006020820190508181036000830152612eb881612e7c565b9050919050565b60008190508160005260206000209050919050565b60006020601f8301049050919050565b600082821b905092915050565b600060088302612f217fffffffffffffffffffffffffffffffffffffffffffffffffffffffffffffffff82612ee4565b612f2b8683612ee4565b95508019841693508086168417925050509392505050565b6000819050919050565b6000612f68612f63612f5e84612676565b612f43565b612676565b9050919050565b6000819050919050565b612f8283612f4d565b612f96612f8e82612f6f565b848454612ef1565b825550505050565b600090565b612fab612f9e565b612fb6818484612f79565b505050565b5b81811015612fda57612fcf600082612fa3565b600181019050612fbc565b5050565b601f82111561301f57612ff081612ebf565b612ff984612ed4565b81016020851015613008578190505b61301c61301485612ed4565b830182612fbb565b50505b505050565b600082821c905092915050565b600061304260001984600802613024565b1980831691505092915050565b600061305b8383613031565b9150826002028217905092915050565b613074826125c4565b67ffffffffffffffff81111561308d5761308c6127ab565b5b6130978254612cfe565b6130a2828285612fde565b600060209050601f8311600181146130d557600084156130c3578287015190505b6130cd858261304f565b865550613135565b601f1984166130e386612ebf565b60005b8281101561310b578489015182556001820191506020850194506020810190506130e6565b868310156131285784890151613124601f891682613031565b8355505b6001600288020188555050505b505050505050565b600060a082019050613152600083018861270b565b8181036020830152613164818761261b565b90508181036040830152613178818661261b565b9050818103606083015261318c818561261b565b905061319b6080830184612a51565b9695505050505050565b7f4552433732313a2063616c6c6572206973206e6f7420746f6b656e206f776e6560008201527f72206f7220617070726f76656400000000000000000000000000000000000000602082015250565b6000613201602d836125cf565b915061320c826131a5565b604082019050919050565b60006020820190508181036000830152613230816131f4565b9050919050565b7f5461736b20646f6573206e6f7420657869737400000000000000000000000000600082015250565b600061326d6013836125cf565b915061327882613237565b602082019050919050565b6000602082019050818103600083015261329c81613260565b9050919050565b7f5461736b20697320616c726561647920636f6d706c6574656400000000000000600082015250565b60006132d96019836125cf565b91506132e4826132a3565b602082019050919050565b60006020820190508181036000830152613308816132cc565b9050919050565b7f57696e6e657220646964206e6f74207061727469636970617465000000000000600082015250565b6000613345601a836125cf565b91506133508261330f565b602082019050919050565b6000602082019050818103600083015261337481613338565b9050919050565b7f4e487b7100000000000000000000000000000000000000000000000000000000600052603260045260246000fd5b7f4552433732313a20696e76616c696420746f6b656e2049440000000000000000600082015250565b60006133e06018836125cf565b91506133eb826133aa565b602082019050919050565b6000602082019050818103600083015261340f816133d3565b9050919050565b7f4552433732313a2061646472657373207a65726f206973206e6f74206120766160008201527f6c6964206f776e65720000000000000000000000000000000000000000000000602082015250565b60006134726029836125cf565b915061347d82613416565b604082019050919050565b600060208201905081810360008301526134a181613465565b9050919050565b7f416c726561647920706172746963697061746564000000000000000000000000600082015250565b60006134de6014836125cf565b91506134e9826134a8565b602082019050919050565b6000602082019050818103600083015261350d816134d1565b9050919050565b600081905092915050565b600061352a826125c4565b6135348185613514565b93506135448185602086016125e0565b80840191505092915050565b600061355c828561351f565b9150613568828461351f565b91508190509392505050565b7f4f776e61626c653a206e6577206f776e657220697320746865207a65726f206160008201527f6464726573730000000000000000000000000000000000000000000000000000602082015250565b60006135d06026836125cf565b91506135db82613574565b604082019050919050565b600060208201905081810360008301526135ff816135c3565b9050919050565b7f4552433732313a206d696e7420746f20746865207a65726f2061646472657373600082015250565b600061363c6020836125cf565b915061364782613606565b602082019050919050565b6000602082019050818103600083015261366b8161362f565b9050919050565b7f4552433732313a20746f6b656e20616c7265616479206d696e74656400000000600082015250565b60006136a8601c836125cf565b91506136b382613672565b602082019050919050565b600060208201905081810360008301526136d78161369b565b9050919050565b7f4552433732313a207472616e736665722066726f6d20696e636f72726563742060008201527f6f776e6572000000000000000000000000000000000000000000000000000000602082015250565b600061373a6025836125cf565b9150613745826136de565b604082019050919050565b600060208201905081810360008301526137698161372d565b9050919050565b7f4552433732313a207472616e7366657220746f20746865207a65726f2061646460008201527f7265737300000000000000000000000000000000000000000000000000000000602082015250565b60006137cc6024836125cf565b91506137d782613770565b604082019050919050565b600060208201905081810360008301526137fb816137bf565b9050919050565b7f4f776e61626c653a2063616c6c6572206973206e6f7420746865206f776e6572600082015250565b60006138386020836125cf565b915061384382613802565b602082019050919050565b600060208201905081810360008301526138678161382b565b9050919050565b7f4e487b7100000000000000000000000000000000000000000000000000000000600052601160045260246000fd5b60006138a882612676565b91507fffffffffffffffffffffffffffffffffffffffffffffffffffffffffffffffff82036138da576138d961386e565b5b600182019050919050565b7f4552433732313a20617070726f766520746f2063616c6c657200000000000000600082015250565b600061391b6019836125cf565b9150613926826138e5565b602082019050919050565b6000602082019050818103600083015261394a8161390e565b9050919050565b7f4552433732313a207472616e7366657220746f206e6f6e20455243373231526560008201527f63656976657220696d706c656d656e7465720000000000000000000000000000602082015250565b60006139ad6032836125cf565b91506139b882613951565b604082019050919050565b600060208201905081810360008301526139dc816139a0565b9050919050565b7f4e487b7100000000000000000000000000000000000000000000000000000000600052601260045260246000fd5b600081519050919050565b600082825260208201905092915050565b6000613a3982613a12565b613a438185613a1d565b9350613a538185602086016125e0565b613a5c8161260a565b840191505092915050565b6000608082019050613a7c600083018761270b565b613a89602083018661270b565b613a966040830185612a51565b8181036060830152613aa88184613a2e565b905095945050505050565b600081519050613ac281612535565b92915050565b600060208284031215613ade57613add6124ff565b5b6000613aec84828501613ab3565b9150509291505056fea26469706673582212200b2df4d603efb36fc2ec45525632c7ff69020bb0d8c40ecd3602d1ac4b6f902c64736f6c63430008120033",
  "immutableReferences": {},
  "source": "// SPDX-License-Identifier: MIT\npragma solidity ^0.8.0;\n\nimport \"@openzeppelin/contracts/token/ERC721/ERC721.sol\";\nimport \"@openzeppelin/contracts/access/Ownable.sol\";\n\ncontract Tasks is ERC721, Ownable {\n    struct Task {\n        uint256 tokenId;\n        address owner;\n        string title;\n        string description;\n        string imageURI;\n        uint256 reward;\n        address[] participants;\n        address winner;\n    }\n\n    Task[] public tasks;\n\n    mapping(uint256 => bool) public taskExists;\n    mapping(uint256 => bool) public taskCompleted;\n\n    uint256 public minimumReward = 0; // Minimum reward is 5 GLMR tokens\n\n    event TaskCreated(uint256 indexed taskId, address owner, string title, string description, string imageURI, uint256 reward);\n    event TaskCompleted(uint256 indexed taskId, address winner);\n\n    constructor() ERC721(\"Tasks\", \"TASK\") {}\n\n    function createTask(string memory _title, string memory _description, string memory _imageURI, uint256 _reward) public {\n        require(_reward >= minimumReward, \"Reward is too low\");\n\n        Task memory newTask = Task({\n            tokenId: tasks.length,\n            owner: msg.sender,\n            title: _title,\n            description: _description,\n            imageURI: _imageURI,\n            reward: _reward,\n            participants: new address[](0),\n            winner: address(0)\n        });\n\n        tasks.push(newTask);\n\n        _mint(msg.sender, newTask.tokenId);\n        taskExists[newTask.tokenId] = true;\n\n        emit TaskCreated(newTask.tokenId, msg.sender, _title, _description, _imageURI, _reward);\n    }\n\n    function participate(uint256 _taskId) public {\n        require(taskExists[_taskId], \"Task does not exist\");\n        require(!_isParticipant(_taskId, msg.sender), \"Already participated\");\n\n        tasks[_taskId].participants.push(msg.sender);\n    }\n\n    function chooseWinner(uint256 _taskId, address _winner) public onlyOwner {\n        require(taskExists[_taskId], \"Task does not exist\");\n        require(!_isCompleted(_taskId), \"Task is already completed\");\n        require(_isParticipant(_taskId, _winner), \"Winner did not participate\");\n        require(_isOwner(_taskId, msg.sender));\n\n        tasks[_taskId].winner = _winner;\n        taskCompleted[_taskId] = true;\n\n        _transfer(address(this), _winner, _taskId);\n\n        emit TaskCompleted(_taskId, _winner);\n    }\n\n    function _isParticipant(uint256 _taskId, address _participant) private view returns (bool) {\n        for (uint256 i = 0; i < tasks[_taskId].participants.length; i++) {\n            if (tasks[_taskId].participants[i] == _participant) {\n                return true;\n            }\n        }\n        return false;\n    }\n\n    function _isCompleted(uint256 _taskId) private view returns (bool) {\n        return taskCompleted[_taskId];\n    }\n\n    function _isOwner(uint256 _taskId, address walletCheck) private view returns (bool) {\n        return tasks[_taskId].owner == walletCheck;\n    }\n}\n",
  "sourcePath": "/home/carl/task-sama/truffle/contracts/Tasks.sol",
  "compiler": {
    "name": "solc",
    "version": "0.8.18+commit.87f61d96.Emscripten.clang"
  },
  "schemaVersion": "3.4.13",
  "updatedAt": "2023-04-17T15:12:46.017Z",
  "networkType": "ethereum",
  "devdoc": {
    "events": {
      "Approval(address,address,uint256)": {
        "details": "Emitted when `owner` enables `approved` to manage the `tokenId` token."
      },
      "ApprovalForAll(address,address,bool)": {
        "details": "Emitted when `owner` enables or disables (`approved`) `operator` to manage all of its assets."
      },
      "Transfer(address,address,uint256)": {
        "details": "Emitted when `tokenId` token is transferred from `from` to `to`."
      }
    },
    "kind": "dev",
    "methods": {
      "approve(address,uint256)": {
        "details": "See {IERC721-approve}."
      },
      "balanceOf(address)": {
        "details": "See {IERC721-balanceOf}."
      },
      "getApproved(uint256)": {
        "details": "See {IERC721-getApproved}."
      },
      "isApprovedForAll(address,address)": {
        "details": "See {IERC721-isApprovedForAll}."
      },
      "name()": {
        "details": "See {IERC721Metadata-name}."
      },
      "owner()": {
        "details": "Returns the address of the current owner."
      },
      "ownerOf(uint256)": {
        "details": "See {IERC721-ownerOf}."
      },
      "renounceOwnership()": {
        "details": "Leaves the contract without owner. It will not be possible to call `onlyOwner` functions anymore. Can only be called by the current owner. NOTE: Renouncing ownership will leave the contract without an owner, thereby removing any functionality that is only available to the owner."
      },
      "safeTransferFrom(address,address,uint256)": {
        "details": "See {IERC721-safeTransferFrom}."
      },
      "safeTransferFrom(address,address,uint256,bytes)": {
        "details": "See {IERC721-safeTransferFrom}."
      },
      "setApprovalForAll(address,bool)": {
        "details": "See {IERC721-setApprovalForAll}."
      },
      "supportsInterface(bytes4)": {
        "details": "See {IERC165-supportsInterface}."
      },
      "symbol()": {
        "details": "See {IERC721Metadata-symbol}."
      },
      "tokenURI(uint256)": {
        "details": "See {IERC721Metadata-tokenURI}."
      },
      "transferFrom(address,address,uint256)": {
        "details": "See {IERC721-transferFrom}."
      },
      "transferOwnership(address)": {
        "details": "Transfers ownership of the contract to a new account (`newOwner`). Can only be called by the current owner."
      }
    },
    "version": 1
  },
  "userdoc": {
    "kind": "user",
    "methods": {},
    "version": 1
  }
}