{
  "contractName": "Tasks",
  "abi": [
    {
      "inputs": [
        {
          "internalType": "address",
          "name": "taskSamaContractAddress",
          "type": "address"
        }
      ],
      "stateMutability": "nonpayable",
      "type": "constructor"
    },
    {
      "anonymous": false,
      "inputs": [
        {
          "indexed": true,
          "internalType": "address",
          "name": "owner",
          "type": "address"
        },
        {
          "indexed": true,
          "internalType": "address",
          "name": "approved",
          "type": "address"
        },
        {
          "indexed": true,
          "internalType": "uint256",
          "name": "tokenId",
          "type": "uint256"
        }
      ],
      "name": "Approval",
      "type": "event"
    },
    {
      "anonymous": false,
      "inputs": [
        {
          "indexed": true,
          "internalType": "address",
          "name": "owner",
          "type": "address"
        },
        {
          "indexed": true,
          "internalType": "address",
          "name": "operator",
          "type": "address"
        },
        {
          "indexed": false,
          "internalType": "bool",
          "name": "approved",
          "type": "bool"
        }
      ],
      "name": "ApprovalForAll",
      "type": "event"
    },
    {
      "anonymous": false,
      "inputs": [
        {
          "indexed": true,
          "internalType": "address",
          "name": "previousOwner",
          "type": "address"
        },
        {
          "indexed": true,
          "internalType": "address",
          "name": "newOwner",
          "type": "address"
        }
      ],
      "name": "OwnershipTransferred",
      "type": "event"
    },
    {
      "anonymous": false,
      "inputs": [
        {
          "indexed": true,
          "internalType": "uint256",
          "name": "taskId",
          "type": "uint256"
        },
        {
          "indexed": false,
          "internalType": "address",
          "name": "winner",
          "type": "address"
        }
      ],
      "name": "TaskCompleted",
      "type": "event"
    },
    {
      "anonymous": false,
      "inputs": [
        {
          "indexed": true,
          "internalType": "uint256",
          "name": "taskId",
          "type": "uint256"
        },
        {
          "indexed": false,
          "internalType": "address",
          "name": "owner",
          "type": "address"
        },
        {
          "indexed": false,
          "internalType": "string",
          "name": "title",
          "type": "string"
        },
        {
          "indexed": false,
          "internalType": "string",
          "name": "description",
          "type": "string"
        },
        {
          "indexed": false,
          "internalType": "string",
          "name": "imageURI",
          "type": "string"
        },
        {
          "indexed": false,
          "internalType": "uint256",
          "name": "reward",
          "type": "uint256"
        }
      ],
      "name": "TaskCreated",
      "type": "event"
    },
    {
      "anonymous": false,
      "inputs": [
        {
          "indexed": true,
          "internalType": "address",
          "name": "from",
          "type": "address"
        },
        {
          "indexed": true,
          "internalType": "address",
          "name": "to",
          "type": "address"
        },
        {
          "indexed": true,
          "internalType": "uint256",
          "name": "tokenId",
          "type": "uint256"
        }
      ],
      "name": "Transfer",
      "type": "event"
    },
    {
      "inputs": [
        {
          "internalType": "address",
          "name": "to",
          "type": "address"
        },
        {
          "internalType": "uint256",
          "name": "tokenId",
          "type": "uint256"
        }
      ],
      "name": "approve",
      "outputs": [],
      "stateMutability": "nonpayable",
      "type": "function"
    },
    {
      "inputs": [
        {
          "internalType": "address",
          "name": "owner",
          "type": "address"
        }
      ],
      "name": "balanceOf",
      "outputs": [
        {
          "internalType": "uint256",
          "name": "",
          "type": "uint256"
        }
      ],
      "stateMutability": "view",
      "type": "function",
      "constant": true
    },
    {
      "inputs": [
        {
          "internalType": "uint256",
          "name": "tokenId",
          "type": "uint256"
        }
      ],
      "name": "getApproved",
      "outputs": [
        {
          "internalType": "address",
          "name": "",
          "type": "address"
        }
      ],
      "stateMutability": "view",
      "type": "function",
      "constant": true
    },
    {
      "inputs": [
        {
          "internalType": "address",
          "name": "owner",
          "type": "address"
        },
        {
          "internalType": "address",
          "name": "operator",
          "type": "address"
        }
      ],
      "name": "isApprovedForAll",
      "outputs": [
        {
          "internalType": "bool",
          "name": "",
          "type": "bool"
        }
      ],
      "stateMutability": "view",
      "type": "function",
      "constant": true
    },
    {
      "inputs": [],
      "name": "minimumReward",
      "outputs": [
        {
          "internalType": "uint256",
          "name": "",
          "type": "uint256"
        }
      ],
      "stateMutability": "view",
      "type": "function",
      "constant": true
    },
    {
      "inputs": [],
      "name": "name",
      "outputs": [
        {
          "internalType": "string",
          "name": "",
          "type": "string"
        }
      ],
      "stateMutability": "view",
      "type": "function",
      "constant": true
    },
    {
      "inputs": [],
      "name": "owner",
      "outputs": [
        {
          "internalType": "address",
          "name": "",
          "type": "address"
        }
      ],
      "stateMutability": "view",
      "type": "function",
      "constant": true
    },
    {
      "inputs": [
        {
          "internalType": "uint256",
          "name": "tokenId",
          "type": "uint256"
        }
      ],
      "name": "ownerOf",
      "outputs": [
        {
          "internalType": "address",
          "name": "",
          "type": "address"
        }
      ],
      "stateMutability": "view",
      "type": "function",
      "constant": true
    },
    {
      "inputs": [],
      "name": "renounceOwnership",
      "outputs": [],
      "stateMutability": "nonpayable",
      "type": "function"
    },
    {
      "inputs": [
        {
          "internalType": "address",
          "name": "from",
          "type": "address"
        },
        {
          "internalType": "address",
          "name": "to",
          "type": "address"
        },
        {
          "internalType": "uint256",
          "name": "tokenId",
          "type": "uint256"
        }
      ],
      "name": "safeTransferFrom",
      "outputs": [],
      "stateMutability": "nonpayable",
      "type": "function"
    },
    {
      "inputs": [
        {
          "internalType": "address",
          "name": "from",
          "type": "address"
        },
        {
          "internalType": "address",
          "name": "to",
          "type": "address"
        },
        {
          "internalType": "uint256",
          "name": "tokenId",
          "type": "uint256"
        },
        {
          "internalType": "bytes",
          "name": "data",
          "type": "bytes"
        }
      ],
      "name": "safeTransferFrom",
      "outputs": [],
      "stateMutability": "nonpayable",
      "type": "function"
    },
    {
      "inputs": [
        {
          "internalType": "address",
          "name": "operator",
          "type": "address"
        },
        {
          "internalType": "bool",
          "name": "approved",
          "type": "bool"
        }
      ],
      "name": "setApprovalForAll",
      "outputs": [],
      "stateMutability": "nonpayable",
      "type": "function"
    },
    {
      "inputs": [
        {
          "internalType": "bytes4",
          "name": "interfaceId",
          "type": "bytes4"
        }
      ],
      "name": "supportsInterface",
      "outputs": [
        {
          "internalType": "bool",
          "name": "",
          "type": "bool"
        }
      ],
      "stateMutability": "view",
      "type": "function",
      "constant": true
    },
    {
      "inputs": [],
      "name": "symbol",
      "outputs": [
        {
          "internalType": "string",
          "name": "",
          "type": "string"
        }
      ],
      "stateMutability": "view",
      "type": "function",
      "constant": true
    },
    {
      "inputs": [
        {
          "internalType": "uint256",
          "name": "",
          "type": "uint256"
        }
      ],
      "name": "taskCompleted",
      "outputs": [
        {
          "internalType": "bool",
          "name": "",
          "type": "bool"
        }
      ],
      "stateMutability": "view",
      "type": "function",
      "constant": true
    },
    {
      "inputs": [
        {
          "internalType": "uint256",
          "name": "",
          "type": "uint256"
        }
      ],
      "name": "taskExists",
      "outputs": [
        {
          "internalType": "bool",
          "name": "",
          "type": "bool"
        }
      ],
      "stateMutability": "view",
      "type": "function",
      "constant": true
    },
    {
      "inputs": [
        {
          "internalType": "uint256",
          "name": "",
          "type": "uint256"
        }
      ],
      "name": "tasks",
      "outputs": [
        {
          "internalType": "uint256",
          "name": "tokenId",
          "type": "uint256"
        },
        {
          "internalType": "address",
          "name": "owner",
          "type": "address"
        },
        {
          "internalType": "string",
          "name": "title",
          "type": "string"
        },
        {
          "internalType": "string",
          "name": "description",
          "type": "string"
        },
        {
          "internalType": "string",
          "name": "imageURI",
          "type": "string"
        },
        {
          "internalType": "uint256",
          "name": "reward",
          "type": "uint256"
        },
        {
          "internalType": "address",
          "name": "winner",
          "type": "address"
        }
      ],
      "stateMutability": "view",
      "type": "function",
      "constant": true
    },
    {
      "inputs": [
        {
          "internalType": "uint256",
          "name": "tokenId",
          "type": "uint256"
        }
      ],
      "name": "tokenURI",
      "outputs": [
        {
          "internalType": "string",
          "name": "",
          "type": "string"
        }
      ],
      "stateMutability": "view",
      "type": "function",
      "constant": true
    },
    {
      "inputs": [
        {
          "internalType": "address",
          "name": "from",
          "type": "address"
        },
        {
          "internalType": "address",
          "name": "to",
          "type": "address"
        },
        {
          "internalType": "uint256",
          "name": "tokenId",
          "type": "uint256"
        }
      ],
      "name": "transferFrom",
      "outputs": [],
      "stateMutability": "nonpayable",
      "type": "function"
    },
    {
      "inputs": [
        {
          "internalType": "address",
          "name": "newOwner",
          "type": "address"
        }
      ],
      "name": "transferOwnership",
      "outputs": [],
      "stateMutability": "nonpayable",
      "type": "function"
    },
    {
      "inputs": [
        {
          "internalType": "string",
          "name": "_title",
          "type": "string"
        },
        {
          "internalType": "string",
          "name": "_description",
          "type": "string"
        },
        {
          "internalType": "string",
          "name": "_imageURI",
          "type": "string"
        }
      ],
      "name": "createTask",
      "outputs": [],
      "stateMutability": "payable",
      "type": "function",
      "payable": true
    },
    {
      "inputs": [
        {
          "internalType": "uint256",
          "name": "_taskId",
          "type": "uint256"
        }
      ],
      "name": "participate",
      "outputs": [],
      "stateMutability": "nonpayable",
      "type": "function"
    },
    {
      "inputs": [
        {
          "internalType": "uint256",
          "name": "_taskId",
          "type": "uint256"
        },
        {
          "internalType": "address",
          "name": "_winner",
          "type": "address"
        },
        {
          "internalType": "string",
          "name": "ipfsUrl",
          "type": "string"
        }
      ],
      "name": "chooseWinner",
      "outputs": [],
      "stateMutability": "nonpayable",
      "type": "function"
    },
    {
      "inputs": [
        {
          "internalType": "uint256",
          "name": "_taskId",
          "type": "uint256"
        },
        {
          "internalType": "address",
          "name": "_participant",
          "type": "address"
        }
      ],
      "name": "_isParticipant",
      "outputs": [
        {
          "internalType": "bool",
          "name": "",
          "type": "bool"
        }
      ],
      "stateMutability": "view",
      "type": "function",
      "constant": true
    },
    {
      "inputs": [
        {
          "internalType": "uint256",
          "name": "_taskId",
          "type": "uint256"
        }
      ],
      "name": "_isCompleted",
      "outputs": [
        {
          "internalType": "bool",
          "name": "",
          "type": "bool"
        }
      ],
      "stateMutability": "view",
      "type": "function",
      "constant": true
    },
    {
      "inputs": [
        {
          "internalType": "uint256",
          "name": "_taskId",
          "type": "uint256"
        },
        {
          "internalType": "address",
          "name": "walletCheck",
          "type": "address"
        }
      ],
      "name": "_isOwner",
      "outputs": [
        {
          "internalType": "bool",
          "name": "",
          "type": "bool"
        }
      ],
      "stateMutability": "view",
      "type": "function",
      "constant": true
    },
    {
      "inputs": [],
      "name": "_getTasks",
      "outputs": [
        {
          "components": [
            {
              "internalType": "uint256",
              "name": "tokenId",
              "type": "uint256"
            },
            {
              "internalType": "address",
              "name": "owner",
              "type": "address"
            },
            {
              "internalType": "string",
              "name": "title",
              "type": "string"
            },
            {
              "internalType": "string",
              "name": "description",
              "type": "string"
            },
            {
              "internalType": "string",
              "name": "imageURI",
              "type": "string"
            },
            {
              "internalType": "uint256",
              "name": "reward",
              "type": "uint256"
            },
            {
              "internalType": "address[]",
              "name": "participants",
              "type": "address[]"
            },
            {
              "internalType": "address",
              "name": "winner",
              "type": "address"
            }
          ],
          "internalType": "struct Tasks.Task[]",
          "name": "",
          "type": "tuple[]"
        }
      ],
      "stateMutability": "view",
      "type": "function",
      "constant": true
    }
  ],
  "bytecode": "0x6080604052678ac7230489e80000600b553480156200001c575f80fd5b5060405162004d2838038062004d28833981810160405281019062000042919062000269565b6040518060400160405280600581526020017f5461736b730000000000000000000000000000000000000000000000000000008152506040518060400160405280600481526020017f5441534b00000000000000000000000000000000000000000000000000000000815250815f9081620000be9190620004fd565b508060019081620000d09190620004fd565b505050620000f3620000e76200013a60201b60201c565b6200014160201b60201c565b8060075f6101000a81548173ffffffffffffffffffffffffffffffffffffffff021916908373ffffffffffffffffffffffffffffffffffffffff16021790555050620005e1565b5f33905090565b5f60065f9054906101000a900473ffffffffffffffffffffffffffffffffffffffff1690508160065f6101000a81548173ffffffffffffffffffffffffffffffffffffffff021916908373ffffffffffffffffffffffffffffffffffffffff1602179055508173ffffffffffffffffffffffffffffffffffffffff168173ffffffffffffffffffffffffffffffffffffffff167f8be0079c531659141344cd1fd0a4f28419497f9722a3daafe3b4186f6b6457e060405160405180910390a35050565b5f80fd5b5f73ffffffffffffffffffffffffffffffffffffffff82169050919050565b5f620002338262000208565b9050919050565b620002458162000227565b811462000250575f80fd5b50565b5f8151905062000263816200023a565b92915050565b5f6020828403121562000281576200028062000204565b5b5f620002908482850162000253565b91505092915050565b5f81519050919050565b7f4e487b71000000000000000000000000000000000000000000000000000000005f52604160045260245ffd5b7f4e487b71000000000000000000000000000000000000000000000000000000005f52602260045260245ffd5b5f60028204905060018216806200031557607f821691505b6020821081036200032b576200032a620002d0565b5b50919050565b5f819050815f5260205f209050919050565b5f6020601f8301049050919050565b5f82821b905092915050565b5f600883026200038f7fffffffffffffffffffffffffffffffffffffffffffffffffffffffffffffffff8262000352565b6200039b868362000352565b95508019841693508086168417925050509392505050565b5f819050919050565b5f819050919050565b5f620003e5620003df620003d984620003b3565b620003bc565b620003b3565b9050919050565b5f819050919050565b6200040083620003c5565b620004186200040f82620003ec565b8484546200035e565b825550505050565b5f90565b6200042e62000420565b6200043b818484620003f5565b505050565b5b818110156200046257620004565f8262000424565b60018101905062000441565b5050565b601f821115620004b1576200047b8162000331565b620004868462000343565b8101602085101562000496578190505b620004ae620004a58562000343565b83018262000440565b50505b505050565b5f82821c905092915050565b5f620004d35f1984600802620004b6565b1980831691505092915050565b5f620004ed8383620004c2565b9150826002028217905092915050565b620005088262000299565b67ffffffffffffffff811115620005245762000523620002a3565b5b620005308254620002fd565b6200053d82828562000466565b5f60209050601f83116001811462000573575f84156200055e578287015190505b6200056a8582620004e0565b865550620005d9565b601f198416620005838662000331565b5f5b82811015620005ac5784890151825560018201915060208501945060208101905062000585565b86831015620005cc5784890151620005c8601f891682620004c2565b8355505b6001600288020188555050505b505050505050565b61473980620005ef5f395ff3fe60806040526004361061019b575f3560e01c8063813f8dc1116100eb578063b88d4fde11610089578063d2344f0a11610063578063d2344f0a146105fd578063d90583df14610619578063e985e9c514610655578063f2fde38b146106915761019b565b8063b88d4fde1461055d578063c0da8abc14610585578063c87b56dd146105c15761019b565b80638da5cb5b116100c55780638da5cb5b146104a55780638df83797146104cf57806395d89b411461050b578063a22cb465146105355761019b565b8063813f8dc114610411578063845c93061461043b5780638d977672146104635761019b565b806342842e0e116101585780636352211e116101325780636352211e1461034757806370a0823114610383578063715018a6146103bf5780637fea0249146103d55761019b565b806342842e0e146102b957806344fb29b7146102e15780634a4eefeb1461031d5761019b565b806301ffc9a71461019f57806306fdde03146101db578063081812fc14610205578063095ea7b31461024157806323b872dd146102695780632a23b7d014610291575b5f80fd5b3480156101aa575f80fd5b506101c560048036038101906101c09190612c3b565b6106b9565b6040516101d29190612c80565b60405180910390f35b3480156101e6575f80fd5b506101ef61079a565b6040516101fc9190612d23565b60405180910390f35b348015610210575f80fd5b5061022b60048036038101906102269190612d76565b610829565b6040516102389190612de0565b60405180910390f35b34801561024c575f80fd5b5061026760048036038101906102629190612e23565b61086b565b005b348015610274575f80fd5b5061028f600480360381019061028a9190612e61565b610981565b005b34801561029c575f80fd5b506102b760048036038101906102b29190612fdd565b6109e1565b005b3480156102c4575f80fd5b506102df60048036038101906102da9190612e61565b610d05565b005b3480156102ec575f80fd5b5061030760048036038101906103029190613049565b610d24565b6040516103149190612c80565b60405180910390f35b348015610328575f80fd5b50610331610d9e565b60405161033e9190613312565b60405180910390f35b348015610352575f80fd5b5061036d60048036038101906103689190612d76565b6110f3565b60405161037a9190612de0565b60405180910390f35b34801561038e575f80fd5b506103a960048036038101906103a49190613332565b611177565b6040516103b6919061336c565b60405180910390f35b3480156103ca575f80fd5b506103d361122b565b005b3480156103e0575f80fd5b506103fb60048036038101906103f69190612d76565b61123e565b6040516104089190612c80565b60405180910390f35b34801561041c575f80fd5b5061042561125b565b604051610432919061336c565b60405180910390f35b348015610446575f80fd5b50610461600480360381019061045c9190612d76565b611261565b005b34801561046e575f80fd5b5061048960048036038101906104849190612d76565b61143c565b60405161049c9796959493929190613385565b60405180910390f35b3480156104b0575f80fd5b506104b9611659565b6040516104c69190612de0565b60405180910390f35b3480156104da575f80fd5b506104f560048036038101906104f09190613049565b611681565b6040516105029190612c80565b60405180910390f35b348015610516575f80fd5b5061051f61176c565b60405161052c9190612d23565b60405180910390f35b348015610540575f80fd5b5061055b60048036038101906105569190613431565b6117fc565b005b348015610568575f80fd5b50610583600480360381019061057e919061350d565b611812565b005b348015610590575f80fd5b506105ab60048036038101906105a69190612d76565b611874565b6040516105b89190612c80565b60405180910390f35b3480156105cc575f80fd5b506105e760048036038101906105e29190612d76565b61189a565b6040516105f49190612d23565b60405180910390f35b6106176004803603810190610612919061358d565b6118ff565b005b348015610624575f80fd5b5061063f600480360381019061063a9190612d76565b611ba4565b60405161064c9190612c80565b60405180910390f35b348015610660575f80fd5b5061067b60048036038101906106769190613631565b611bc1565b6040516106889190612c80565b60405180910390f35b34801561069c575f80fd5b506106b760048036038101906106b29190613332565b611c4f565b005b5f7f80ac58cd000000000000000000000000000000000000000000000000000000007bffffffffffffffffffffffffffffffffffffffffffffffffffffffff1916827bffffffffffffffffffffffffffffffffffffffffffffffffffffffff1916148061078357507f5b5e139f000000000000000000000000000000000000000000000000000000007bffffffffffffffffffffffffffffffffffffffffffffffffffffffff1916827bffffffffffffffffffffffffffffffffffffffffffffffffffffffff1916145b80610793575061079282611cd1565b5b9050919050565b60605f80546107a89061369c565b80601f01602080910402602001604051908101604052809291908181526020018280546107d49061369c565b801561081f5780601f106107f65761010080835404028352916020019161081f565b820191905f5260205f20905b81548152906001019060200180831161080257829003601f168201915b5050505050905090565b5f61083382611d3a565b60045f8381526020019081526020015f205f9054906101000a900473ffffffffffffffffffffffffffffffffffffffff169050919050565b5f610875826110f3565b90508073ffffffffffffffffffffffffffffffffffffffff168373ffffffffffffffffffffffffffffffffffffffff16036108e5576040517f08c379a00000000000000000000000000000000000000000000000000000000081526004016108dc9061373c565b60405180910390fd5b8073ffffffffffffffffffffffffffffffffffffffff16610904611d85565b73ffffffffffffffffffffffffffffffffffffffff16148061093357506109328161092d611d85565b611bc1565b5b610972576040517f08c379a0000000000000000000000000000000000000000000000000000000008152600401610969906137ca565b60405180910390fd5b61097c8383611d8c565b505050565b61099261098c611d85565b82611e42565b6109d1576040517f08c379a00000000000000000000000000000000000000000000000000000000081526004016109c890613858565b60405180910390fd5b6109dc838383611ed6565b505050565b60095f8481526020019081526020015f205f9054906101000a900460ff16610a3e576040517f08c379a0000000000000000000000000000000000000000000000000000000008152600401610a35906138c0565b60405180910390fd5b610a4783611874565b15610a87576040517f08c379a0000000000000000000000000000000000000000000000000000000008152600401610a7e90613928565b60405180910390fd5b610a918383611681565b610ad0576040517f08c379a0000000000000000000000000000000000000000000000000000000008152600401610ac7906139b6565b60405180910390fd5b610ada8333610d24565b610ae2575f80fd5b8160088481548110610af757610af66139d4565b5b905f5260205f2090600802016007015f6101000a81548173ffffffffffffffffffffffffffffffffffffffff021916908373ffffffffffffffffffffffffffffffffffffffff1602179055506001600a5f8581526020019081526020015f205f6101000a81548160ff021916908315150217905550610b9a308360088681548110610b8557610b846139d4565b5b905f5260205f20906008020160050154611ed6565b60075f9054906101000a900473ffffffffffffffffffffffffffffffffffffffff1673ffffffffffffffffffffffffffffffffffffffff16637550ae138360088681548110610bec57610beb6139d4565b5b905f5260205f20906008020160020160088781548110610c0f57610c0e6139d4565b5b905f5260205f2090600802016003018560088981548110610c3357610c326139d4565b5b905f5260205f2090600802016005015460088a81548110610c5757610c566139d4565b5b905f5260205f2090600802016006016040518763ffffffff1660e01b8152600401610c8796959493929190613b84565b6020604051808303815f875af1158015610ca3573d5f803e3d5ffd5b505050506040513d601f19601f82011682018060405250810190610cc79190613c13565b50827fbb5889c77948badf90e8a5c73d55265e5f5d6e4837a79a78c5669691b897faed83604051610cf89190612de0565b60405180910390a2505050565b610d1f83838360405180602001604052805f815250611812565b505050565b5f8173ffffffffffffffffffffffffffffffffffffffff1660088481548110610d5057610d4f6139d4565b5b905f5260205f2090600802016001015f9054906101000a900473ffffffffffffffffffffffffffffffffffffffff1673ffffffffffffffffffffffffffffffffffffffff1614905092915050565b60606008805480602002602001604051908101604052809291908181526020015f905b828210156110ea578382905f5260205f209060080201604051806101000160405290815f8201548152602001600182015f9054906101000a900473ffffffffffffffffffffffffffffffffffffffff1673ffffffffffffffffffffffffffffffffffffffff1673ffffffffffffffffffffffffffffffffffffffff168152602001600282018054610e519061369c565b80601f0160208091040260200160405190810160405280929190818152602001828054610e7d9061369c565b8015610ec85780601f10610e9f57610100808354040283529160200191610ec8565b820191905f5260205f20905b815481529060010190602001808311610eab57829003601f168201915b50505050508152602001600382018054610ee19061369c565b80601f0160208091040260200160405190810160405280929190818152602001828054610f0d9061369c565b8015610f585780601f10610f2f57610100808354040283529160200191610f58565b820191905f5260205f20905b815481529060010190602001808311610f3b57829003601f168201915b50505050508152602001600482018054610f719061369c565b80601f0160208091040260200160405190810160405280929190818152602001828054610f9d9061369c565b8015610fe85780601f10610fbf57610100808354040283529160200191610fe8565b820191905f5260205f20905b815481529060010190602001808311610fcb57829003601f168201915b50505050508152602001600582015481526020016006820180548060200260200160405190810160405280929190818152602001828054801561107d57602002820191905f5260205f20905b815f9054906101000a900473ffffffffffffffffffffffffffffffffffffffff1673ffffffffffffffffffffffffffffffffffffffff1681526020019060010190808311611034575b50505050508152602001600782015f9054906101000a900473ffffffffffffffffffffffffffffffffffffffff1673ffffffffffffffffffffffffffffffffffffffff1673ffffffffffffffffffffffffffffffffffffffff168152505081526020019060010190610dc1565b50505050905090565b5f806110fe836121c2565b90505f73ffffffffffffffffffffffffffffffffffffffff168173ffffffffffffffffffffffffffffffffffffffff160361116e576040517f08c379a000000000000000000000000000000000000000000000000000000000815260040161116590613c88565b60405180910390fd5b80915050919050565b5f8073ffffffffffffffffffffffffffffffffffffffff168273ffffffffffffffffffffffffffffffffffffffff16036111e6576040517f08c379a00000000000000000000000000000000000000000000000000000000081526004016111dd90613d16565b60405180910390fd5b60035f8373ffffffffffffffffffffffffffffffffffffffff1673ffffffffffffffffffffffffffffffffffffffff1681526020019081526020015f20549050919050565b6112336121fb565b61123c5f612279565b565b600a602052805f5260405f205f915054906101000a900460ff1681565b600b5481565b60095f8281526020019081526020015f205f9054906101000a900460ff166112be576040517f08c379a00000000000000000000000000000000000000000000000000000000081526004016112b5906138c0565b60405180910390fd5b3373ffffffffffffffffffffffffffffffffffffffff16600882815481106112e9576112e86139d4565b5b905f5260205f2090600802016001015f9054906101000a900473ffffffffffffffffffffffffffffffffffffffff1673ffffffffffffffffffffffffffffffffffffffff160361136e576040517f08c379a000000000000000000000000000000000000000000000000000000000815260040161136590613da4565b60405180910390fd5b6113788133611681565b156113b8576040517f08c379a00000000000000000000000000000000000000000000000000000000081526004016113af90613e0c565b60405180910390fd5b600881815481106113cc576113cb6139d4565b5b905f5260205f20906008020160060133908060018154018082558091505060019003905f5260205f20015f9091909190916101000a81548173ffffffffffffffffffffffffffffffffffffffff021916908373ffffffffffffffffffffffffffffffffffffffff16021790555050565b6008818154811061144b575f80fd5b905f5260205f2090600802015f91509050805f015490806001015f9054906101000a900473ffffffffffffffffffffffffffffffffffffffff16908060020180546114959061369c565b80601f01602080910402602001604051908101604052809291908181526020018280546114c19061369c565b801561150c5780601f106114e35761010080835404028352916020019161150c565b820191905f5260205f20905b8154815290600101906020018083116114ef57829003601f168201915b5050505050908060030180546115219061369c565b80601f016020809104026020016040519081016040528092919081815260200182805461154d9061369c565b80156115985780601f1061156f57610100808354040283529160200191611598565b820191905f5260205f20905b81548152906001019060200180831161157b57829003601f168201915b5050505050908060040180546115ad9061369c565b80601f01602080910402602001604051908101604052809291908181526020018280546115d99061369c565b80156116245780601f106115fb57610100808354040283529160200191611624565b820191905f5260205f20905b81548152906001019060200180831161160757829003601f168201915b505050505090806005015490806007015f9054906101000a900473ffffffffffffffffffffffffffffffffffffffff16905087565b5f60065f9054906101000a900473ffffffffffffffffffffffffffffffffffffffff16905090565b5f805f90505b6008848154811061169b5761169a6139d4565b5b905f5260205f20906008020160060180549050811015611761578273ffffffffffffffffffffffffffffffffffffffff16600885815481106116e0576116df6139d4565b5b905f5260205f2090600802016006018281548110611701576117006139d4565b5b905f5260205f20015f9054906101000a900473ffffffffffffffffffffffffffffffffffffffff1673ffffffffffffffffffffffffffffffffffffffff160361174e576001915050611766565b808061175990613e57565b915050611687565b505f90505b92915050565b60606001805461177b9061369c565b80601f01602080910402602001604051908101604052809291908181526020018280546117a79061369c565b80156117f25780601f106117c9576101008083540402835291602001916117f2565b820191905f5260205f20905b8154815290600101906020018083116117d557829003601f168201915b5050505050905090565b61180e611807611d85565b838361233c565b5050565b61182361181d611d85565b83611e42565b611862576040517f08c379a000000000000000000000000000000000000000000000000000000000815260040161185990613858565b60405180910390fd5b61186e848484846124a3565b50505050565b5f600a5f8381526020019081526020015f205f9054906101000a900460ff169050919050565b60606118a582611d3a565b5f6118ae6124ff565b90505f8151116118cc5760405180602001604052805f8152506118f7565b806118d684612515565b6040516020016118e7929190613ed8565b6040516020818303038152906040525b915050919050565b600b54341015611944576040517f08c379a000000000000000000000000000000000000000000000000000000000815260040161193b90613f45565b60405180910390fd5b5f60405180610100016040528060088054905081526020013373ffffffffffffffffffffffffffffffffffffffff1681526020018581526020018481526020018381526020013481526020015f67ffffffffffffffff8111156119aa576119a9612eb9565b5b6040519080825280602002602001820160405280156119d85781602001602082028036833780820191505090505b5081526020015f73ffffffffffffffffffffffffffffffffffffffff168152509050600881908060018154018082558091505060019003905f5260205f2090600802015f909190919091505f820151815f01556020820151816001015f6101000a81548173ffffffffffffffffffffffffffffffffffffffff021916908373ffffffffffffffffffffffffffffffffffffffff1602179055506040820151816002019081611a8691906140ee565b506060820151816003019081611a9c91906140ee565b506080820151816004019081611ab291906140ee565b5060a0820151816005015560c0820151816006019080519060200190611ad9929190612b33565b5060e0820151816007015f6101000a81548173ffffffffffffffffffffffffffffffffffffffff021916908373ffffffffffffffffffffffffffffffffffffffff1602179055505050611b2f33825f01516125df565b600160095f835f015181526020019081526020015f205f6101000a81548160ff021916908315150217905550805f01517f4c202347b72517bb87f988a35bf19d250d8a3e9dcdf776616ef17eb1c0a94f113386868634604051611b969594939291906141bd565b60405180910390a250505050565b6009602052805f5260405f205f915054906101000a900460ff1681565b5f60055f8473ffffffffffffffffffffffffffffffffffffffff1673ffffffffffffffffffffffffffffffffffffffff1681526020019081526020015f205f8373ffffffffffffffffffffffffffffffffffffffff1673ffffffffffffffffffffffffffffffffffffffff1681526020019081526020015f205f9054906101000a900460ff16905092915050565b611c576121fb565b5f73ffffffffffffffffffffffffffffffffffffffff168173ffffffffffffffffffffffffffffffffffffffff1603611cc5576040517f08c379a0000000000000000000000000000000000000000000000000000000008152600401611cbc90614293565b60405180910390fd5b611cce81612279565b50565b5f7f01ffc9a7000000000000000000000000000000000000000000000000000000007bffffffffffffffffffffffffffffffffffffffffffffffffffffffff1916827bffffffffffffffffffffffffffffffffffffffffffffffffffffffff1916149050919050565b611d43816127f2565b611d82576040517f08c379a0000000000000000000000000000000000000000000000000000000008152600401611d7990613c88565b60405180910390fd5b50565b5f33905090565b8160045f8381526020019081526020015f205f6101000a81548173ffffffffffffffffffffffffffffffffffffffff021916908373ffffffffffffffffffffffffffffffffffffffff160217905550808273ffffffffffffffffffffffffffffffffffffffff16611dfc836110f3565b73ffffffffffffffffffffffffffffffffffffffff167f8c5be1e5ebec7d5bd14f71427d1e84f3dd0314c0f7b2291e5b200ac8c7c3b92560405160405180910390a45050565b5f80611e4d836110f3565b90508073ffffffffffffffffffffffffffffffffffffffff168473ffffffffffffffffffffffffffffffffffffffff161480611e8f5750611e8e8185611bc1565b5b80611ecd57508373ffffffffffffffffffffffffffffffffffffffff16611eb584610829565b73ffffffffffffffffffffffffffffffffffffffff16145b91505092915050565b8273ffffffffffffffffffffffffffffffffffffffff16611ef6826110f3565b73ffffffffffffffffffffffffffffffffffffffff1614611f4c576040517f08c379a0000000000000000000000000000000000000000000000000000000008152600401611f4390614321565b60405180910390fd5b5f73ffffffffffffffffffffffffffffffffffffffff168273ffffffffffffffffffffffffffffffffffffffff1603611fba576040517f08c379a0000000000000000000000000000000000000000000000000000000008152600401611fb1906143af565b60405180910390fd5b611fc78383836001612832565b8273ffffffffffffffffffffffffffffffffffffffff16611fe7826110f3565b73ffffffffffffffffffffffffffffffffffffffff161461203d576040517f08c379a000000000000000000000000000000000000000000000000000000000815260040161203490614321565b60405180910390fd5b60045f8281526020019081526020015f205f6101000a81549073ffffffffffffffffffffffffffffffffffffffff0219169055600160035f8573ffffffffffffffffffffffffffffffffffffffff1673ffffffffffffffffffffffffffffffffffffffff1681526020019081526020015f205f8282540392505081905550600160035f8473ffffffffffffffffffffffffffffffffffffffff1673ffffffffffffffffffffffffffffffffffffffff1681526020019081526020015f205f82825401925050819055508160025f8381526020019081526020015f205f6101000a81548173ffffffffffffffffffffffffffffffffffffffff021916908373ffffffffffffffffffffffffffffffffffffffff160217905550808273ffffffffffffffffffffffffffffffffffffffff168473ffffffffffffffffffffffffffffffffffffffff167fddf252ad1be2c89b69c2b068fc378daa952ba7f163c4a11628f55a4df523b3ef60405160405180910390a46121bd8383836001612838565b505050565b5f60025f8381526020019081526020015f205f9054906101000a900473ffffffffffffffffffffffffffffffffffffffff169050919050565b612203611d85565b73ffffffffffffffffffffffffffffffffffffffff16612221611659565b73ffffffffffffffffffffffffffffffffffffffff1614612277576040517f08c379a000000000000000000000000000000000000000000000000000000000815260040161226e90614417565b60405180910390fd5b565b5f60065f9054906101000a900473ffffffffffffffffffffffffffffffffffffffff1690508160065f6101000a81548173ffffffffffffffffffffffffffffffffffffffff021916908373ffffffffffffffffffffffffffffffffffffffff1602179055508173ffffffffffffffffffffffffffffffffffffffff168173ffffffffffffffffffffffffffffffffffffffff167f8be0079c531659141344cd1fd0a4f28419497f9722a3daafe3b4186f6b6457e060405160405180910390a35050565b8173ffffffffffffffffffffffffffffffffffffffff168373ffffffffffffffffffffffffffffffffffffffff16036123aa576040517f08c379a00000000000000000000000000000000000000000000000000000000081526004016123a19061447f565b60405180910390fd5b8060055f8573ffffffffffffffffffffffffffffffffffffffff1673ffffffffffffffffffffffffffffffffffffffff1681526020019081526020015f205f8473ffffffffffffffffffffffffffffffffffffffff1673ffffffffffffffffffffffffffffffffffffffff1681526020019081526020015f205f6101000a81548160ff0219169083151502179055508173ffffffffffffffffffffffffffffffffffffffff168373ffffffffffffffffffffffffffffffffffffffff167f17307eab39ab6107e8899845ad3d59bd9653f200f220920489ca2b5937696c31836040516124969190612c80565b60405180910390a3505050565b6124ae848484611ed6565b6124ba8484848461283e565b6124f9576040517f08c379a00000000000000000000000000000000000000000000000000000000081526004016124f09061450d565b60405180910390fd5b50505050565b606060405180602001604052805f815250905090565b60605f6001612523846129c0565b0190505f8167ffffffffffffffff81111561254157612540612eb9565b5b6040519080825280601f01601f1916602001820160405280156125735781602001600182028036833780820191505090505b5090505f82602001820190505b6001156125d4578080600190039150507f3031323334353637383961626364656600000000000000000000000000000000600a86061a8153600a85816125c9576125c861452b565b5b0494505f8503612580575b819350505050919050565b5f73ffffffffffffffffffffffffffffffffffffffff168273ffffffffffffffffffffffffffffffffffffffff160361264d576040517f08c379a0000000000000000000000000000000000000000000000000000000008152600401612644906145a2565b60405180910390fd5b612656816127f2565b15612696576040517f08c379a000000000000000000000000000000000000000000000000000000000815260040161268d9061460a565b60405180910390fd5b6126a35f83836001612832565b6126ac816127f2565b156126ec576040517f08c379a00000000000000000000000000000000000000000000000000000000081526004016126e39061460a565b60405180910390fd5b600160035f8473ffffffffffffffffffffffffffffffffffffffff1673ffffffffffffffffffffffffffffffffffffffff1681526020019081526020015f205f82825401925050819055508160025f8381526020019081526020015f205f6101000a81548173ffffffffffffffffffffffffffffffffffffffff021916908373ffffffffffffffffffffffffffffffffffffffff160217905550808273ffffffffffffffffffffffffffffffffffffffff165f73ffffffffffffffffffffffffffffffffffffffff167fddf252ad1be2c89b69c2b068fc378daa952ba7f163c4a11628f55a4df523b3ef60405160405180910390a46127ee5f83836001612838565b5050565b5f8073ffffffffffffffffffffffffffffffffffffffff16612813836121c2565b73ffffffffffffffffffffffffffffffffffffffff1614159050919050565b50505050565b50505050565b5f61285e8473ffffffffffffffffffffffffffffffffffffffff16612b11565b156129b3578373ffffffffffffffffffffffffffffffffffffffff1663150b7a02612887611d85565b8786866040518563ffffffff1660e01b81526004016128a9949392919061467a565b6020604051808303815f875af19250505080156128e457506040513d601f19601f820116820180604052508101906128e191906146d8565b60015b612963573d805f8114612912576040519150601f19603f3d011682016040523d82523d5f602084013e612917565b606091505b505f81510361295b576040517f08c379a00000000000000000000000000000000000000000000000000000000081526004016129529061450d565b60405180910390fd5b805181602001fd5b63150b7a0260e01b7bffffffffffffffffffffffffffffffffffffffffffffffffffffffff1916817bffffffffffffffffffffffffffffffffffffffffffffffffffffffff1916149150506129b8565b600190505b949350505050565b5f805f90507a184f03e93ff9f4daa797ed6e38ed64bf6a1f0100000000000000008310612a1c577a184f03e93ff9f4daa797ed6e38ed64bf6a1f0100000000000000008381612a1257612a1161452b565b5b0492506040810190505b6d04ee2d6d415b85acef81000000008310612a59576d04ee2d6d415b85acef81000000008381612a4f57612a4e61452b565b5b0492506020810190505b662386f26fc100008310612a8857662386f26fc100008381612a7e57612a7d61452b565b5b0492506010810190505b6305f5e1008310612ab1576305f5e1008381612aa757612aa661452b565b5b0492506008810190505b6127108310612ad6576127108381612acc57612acb61452b565b5b0492506004810190505b60648310612af95760648381612aef57612aee61452b565b5b0492506002810190505b600a8310612b08576001810190505b80915050919050565b5f808273ffffffffffffffffffffffffffffffffffffffff163b119050919050565b828054828255905f5260205f20908101928215612ba9579160200282015b82811115612ba8578251825f6101000a81548173ffffffffffffffffffffffffffffffffffffffff021916908373ffffffffffffffffffffffffffffffffffffffff16021790555091602001919060010190612b51565b5b509050612bb69190612bba565b5090565b5b80821115612bd1575f815f905550600101612bbb565b5090565b5f604051905090565b5f80fd5b5f80fd5b5f7fffffffff0000000000000000000000000000000000000000000000000000000082169050919050565b612c1a81612be6565b8114612c24575f80fd5b50565b5f81359050612c3581612c11565b92915050565b5f60208284031215612c5057612c4f612bde565b5b5f612c5d84828501612c27565b91505092915050565b5f8115159050919050565b612c7a81612c66565b82525050565b5f602082019050612c935f830184612c71565b92915050565b5f81519050919050565b5f82825260208201905092915050565b5f5b83811015612cd0578082015181840152602081019050612cb5565b5f8484015250505050565b5f601f19601f8301169050919050565b5f612cf582612c99565b612cff8185612ca3565b9350612d0f818560208601612cb3565b612d1881612cdb565b840191505092915050565b5f6020820190508181035f830152612d3b8184612ceb565b905092915050565b5f819050919050565b612d5581612d43565b8114612d5f575f80fd5b50565b5f81359050612d7081612d4c565b92915050565b5f60208284031215612d8b57612d8a612bde565b5b5f612d9884828501612d62565b91505092915050565b5f73ffffffffffffffffffffffffffffffffffffffff82169050919050565b5f612dca82612da1565b9050919050565b612dda81612dc0565b82525050565b5f602082019050612df35f830184612dd1565b92915050565b612e0281612dc0565b8114612e0c575f80fd5b50565b5f81359050612e1d81612df9565b92915050565b5f8060408385031215612e3957612e38612bde565b5b5f612e4685828601612e0f565b9250506020612e5785828601612d62565b9150509250929050565b5f805f60608486031215612e7857612e77612bde565b5b5f612e8586828701612e0f565b9350506020612e9686828701612e0f565b9250506040612ea786828701612d62565b9150509250925092565b5f80fd5b5f80fd5b7f4e487b71000000000000000000000000000000000000000000000000000000005f52604160045260245ffd5b612eef82612cdb565b810181811067ffffffffffffffff82111715612f0e57612f0d612eb9565b5b80604052505050565b5f612f20612bd5565b9050612f2c8282612ee6565b919050565b5f67ffffffffffffffff821115612f4b57612f4a612eb9565b5b612f5482612cdb565b9050602081019050919050565b828183375f83830152505050565b5f612f81612f7c84612f31565b612f17565b905082815260208101848484011115612f9d57612f9c612eb5565b5b612fa8848285612f61565b509392505050565b5f82601f830112612fc457612fc3612eb1565b5b8135612fd4848260208601612f6f565b91505092915050565b5f805f60608486031215612ff457612ff3612bde565b5b5f61300186828701612d62565b935050602061301286828701612e0f565b925050604084013567ffffffffffffffff81111561303357613032612be2565b5b61303f86828701612fb0565b9150509250925092565b5f806040838503121561305f5761305e612bde565b5b5f61306c85828601612d62565b925050602061307d85828601612e0f565b9150509250929050565b5f81519050919050565b5f82825260208201905092915050565b5f819050602082019050919050565b6130b981612d43565b82525050565b6130c881612dc0565b82525050565b5f82825260208201905092915050565b5f6130e882612c99565b6130f281856130ce565b9350613102818560208601612cb3565b61310b81612cdb565b840191505092915050565b5f81519050919050565b5f82825260208201905092915050565b5f819050602082019050919050565b5f61314a83836130bf565b60208301905092915050565b5f602082019050919050565b5f61316c82613116565b6131768185613120565b935061318183613130565b805f5b838110156131b1578151613198888261313f565b97506131a383613156565b925050600181019050613184565b5085935050505092915050565b5f61010083015f8301516131d45f8601826130b0565b5060208301516131e760208601826130bf565b50604083015184820360408601526131ff82826130de565b9150506060830151848203606086015261321982826130de565b9150506080830151848203608086015261323382826130de565b91505060a083015161324860a08601826130b0565b5060c083015184820360c08601526132608282613162565b91505060e083015161327560e08601826130bf565b508091505092915050565b5f61328b83836131be565b905092915050565b5f602082019050919050565b5f6132a982613087565b6132b38185613091565b9350836020820285016132c5856130a1565b805f5b8581101561330057848403895281516132e18582613280565b94506132ec83613293565b925060208a019950506001810190506132c8565b50829750879550505050505092915050565b5f6020820190508181035f83015261332a818461329f565b905092915050565b5f6020828403121561334757613346612bde565b5b5f61335484828501612e0f565b91505092915050565b61336681612d43565b82525050565b5f60208201905061337f5f83018461335d565b92915050565b5f60e0820190506133985f83018a61335d565b6133a56020830189612dd1565b81810360408301526133b78188612ceb565b905081810360608301526133cb8187612ceb565b905081810360808301526133df8186612ceb565b90506133ee60a083018561335d565b6133fb60c0830184612dd1565b98975050505050505050565b61341081612c66565b811461341a575f80fd5b50565b5f8135905061342b81613407565b92915050565b5f806040838503121561344757613446612bde565b5b5f61345485828601612e0f565b92505060206134658582860161341d565b9150509250929050565b5f67ffffffffffffffff82111561348957613488612eb9565b5b61349282612cdb565b9050602081019050919050565b5f6134b16134ac8461346f565b612f17565b9050828152602081018484840111156134cd576134cc612eb5565b5b6134d8848285612f61565b509392505050565b5f82601f8301126134f4576134f3612eb1565b5b813561350484826020860161349f565b91505092915050565b5f805f806080858703121561352557613524612bde565b5b5f61353287828801612e0f565b945050602061354387828801612e0f565b935050604061355487828801612d62565b925050606085013567ffffffffffffffff81111561357557613574612be2565b5b613581878288016134e0565b91505092959194509250565b5f805f606084860312156135a4576135a3612bde565b5b5f84013567ffffffffffffffff8111156135c1576135c0612be2565b5b6135cd86828701612fb0565b935050602084013567ffffffffffffffff8111156135ee576135ed612be2565b5b6135fa86828701612fb0565b925050604084013567ffffffffffffffff81111561361b5761361a612be2565b5b61362786828701612fb0565b9150509250925092565b5f806040838503121561364757613646612bde565b5b5f61365485828601612e0f565b925050602061366585828601612e0f565b9150509250929050565b7f4e487b71000000000000000000000000000000000000000000000000000000005f52602260045260245ffd5b5f60028204905060018216806136b357607f821691505b6020821081036136c6576136c561366f565b5b50919050565b7f4552433732313a20617070726f76616c20746f2063757272656e74206f776e655f8201527f7200000000000000000000000000000000000000000000000000000000000000602082015250565b5f613726602183612ca3565b9150613731826136cc565b604082019050919050565b5f6020820190508181035f8301526137538161371a565b9050919050565b7f4552433732313a20617070726f76652063616c6c6572206973206e6f7420746f5f8201527f6b656e206f776e6572206f7220617070726f76656420666f7220616c6c000000602082015250565b5f6137b4603d83612ca3565b91506137bf8261375a565b604082019050919050565b5f6020820190508181035f8301526137e1816137a8565b9050919050565b7f4552433732313a2063616c6c6572206973206e6f7420746f6b656e206f776e655f8201527f72206f7220617070726f76656400000000000000000000000000000000000000602082015250565b5f613842602d83612ca3565b915061384d826137e8565b604082019050919050565b5f6020820190508181035f83015261386f81613836565b9050919050565b7f5461736b20646f6573206e6f74206578697374000000000000000000000000005f82015250565b5f6138aa601383612ca3565b91506138b582613876565b602082019050919050565b5f6020820190508181035f8301526138d78161389e565b9050919050565b7f5461736b20697320616c726561647920636f6d706c65746564000000000000005f82015250565b5f613912601983612ca3565b915061391d826138de565b602082019050919050565b5f6020820190508181035f83015261393f81613906565b9050919050565b7f54686520757365722063686f73656e20646964206e6f742070617274696369705f8201527f6174650000000000000000000000000000000000000000000000000000000000602082015250565b5f6139a0602383612ca3565b91506139ab82613946565b604082019050919050565b5f6020820190508181035f8301526139cd81613994565b9050919050565b7f4e487b71000000000000000000000000000000000000000000000000000000005f52603260045260245ffd5b5f819050815f5260205f209050919050565b5f8154613a1f8161369c565b613a298186612ca3565b9450600182165f8114613a435760018114613a5957613a8b565b60ff198316865281151560200286019350613a8b565b613a6285613a01565b5f5b83811015613a8357815481890152600182019150602081019050613a64565b808801955050505b50505092915050565b5f81549050919050565b5f82825260208201905092915050565b5f819050815f5260205f209050919050565b5f815f1c9050919050565b5f73ffffffffffffffffffffffffffffffffffffffff82169050919050565b5f613afc613af783613ac0565b613acb565b9050919050565b5f613b0e8254613aea565b9050919050565b5f600182019050919050565b5f613b2b82613a94565b613b358185613a9e565b9350613b4083613aae565b805f5b83811015613b7757613b5482613b03565b613b5e888261313f565b9750613b6983613b15565b925050600181019050613b43565b5085935050505092915050565b5f60c082019050613b975f830189612dd1565b8181036020830152613ba98188613a13565b90508181036040830152613bbd8187613a13565b90508181036060830152613bd18186612ceb565b9050613be0608083018561335d565b81810360a0830152613bf28184613b21565b9050979650505050505050565b5f81519050613c0d81612d4c565b92915050565b5f60208284031215613c2857613c27612bde565b5b5f613c3584828501613bff565b91505092915050565b7f4552433732313a20696e76616c696420746f6b656e20494400000000000000005f82015250565b5f613c72601883612ca3565b9150613c7d82613c3e565b602082019050919050565b5f6020820190508181035f830152613c9f81613c66565b9050919050565b7f4552433732313a2061646472657373207a65726f206973206e6f7420612076615f8201527f6c6964206f776e65720000000000000000000000000000000000000000000000602082015250565b5f613d00602983612ca3565b9150613d0b82613ca6565b604082019050919050565b5f6020820190508181035f830152613d2d81613cf4565b9050919050565b7f596f752063616e6e6f7420706172746963697061746520696e20796f7572206f5f8201527f776e207461736b00000000000000000000000000000000000000000000000000602082015250565b5f613d8e602783612ca3565b9150613d9982613d34565b604082019050919050565b5f6020820190508181035f830152613dbb81613d82565b9050919050565b7f416c7265616479207061727469636970617465640000000000000000000000005f82015250565b5f613df6601483612ca3565b9150613e0182613dc2565b602082019050919050565b5f6020820190508181035f830152613e2381613dea565b9050919050565b7f4e487b71000000000000000000000000000000000000000000000000000000005f52601160045260245ffd5b5f613e6182612d43565b91507fffffffffffffffffffffffffffffffffffffffffffffffffffffffffffffffff8203613e9357613e92613e2a565b5b600182019050919050565b5f81905092915050565b5f613eb282612c99565b613ebc8185613e9e565b9350613ecc818560208601612cb3565b80840191505092915050565b5f613ee38285613ea8565b9150613eef8284613ea8565b91508190509392505050565b7f52657761726420697320746f6f206c6f770000000000000000000000000000005f82015250565b5f613f2f601183612ca3565b9150613f3a82613efb565b602082019050919050565b5f6020820190508181035f830152613f5c81613f23565b9050919050565b5f6020601f8301049050919050565b5f82821b905092915050565b5f60088302613fad7fffffffffffffffffffffffffffffffffffffffffffffffffffffffffffffffff82613f72565b613fb78683613f72565b95508019841693508086168417925050509392505050565b5f819050919050565b5f613ff2613fed613fe884612d43565b613fcf565b612d43565b9050919050565b5f819050919050565b61400b83613fd8565b61401f61401782613ff9565b848454613f7e565b825550505050565b5f90565b614033614027565b61403e818484614002565b505050565b5b81811015614061576140565f8261402b565b600181019050614044565b5050565b601f8211156140a65761407781613a01565b61408084613f63565b8101602085101561408f578190505b6140a361409b85613f63565b830182614043565b50505b505050565b5f82821c905092915050565b5f6140c65f19846008026140ab565b1980831691505092915050565b5f6140de83836140b7565b9150826002028217905092915050565b6140f782612c99565b67ffffffffffffffff8111156141105761410f612eb9565b5b61411a825461369c565b614125828285614065565b5f60209050601f831160018114614156575f8415614144578287015190505b61414e85826140d3565b8655506141b5565b601f19841661416486613a01565b5f5b8281101561418b57848901518255600182019150602085019450602081019050614166565b868310156141a857848901516141a4601f8916826140b7565b8355505b6001600288020188555050505b505050505050565b5f60a0820190506141d05f830188612dd1565b81810360208301526141e28187612ceb565b905081810360408301526141f68186612ceb565b9050818103606083015261420a8185612ceb565b9050614219608083018461335d565b9695505050505050565b7f4f776e61626c653a206e6577206f776e657220697320746865207a65726f20615f8201527f6464726573730000000000000000000000000000000000000000000000000000602082015250565b5f61427d602683612ca3565b915061428882614223565b604082019050919050565b5f6020820190508181035f8301526142aa81614271565b9050919050565b7f4552433732313a207472616e736665722066726f6d20696e636f7272656374205f8201527f6f776e6572000000000000000000000000000000000000000000000000000000602082015250565b5f61430b602583612ca3565b9150614316826142b1565b604082019050919050565b5f6020820190508181035f830152614338816142ff565b9050919050565b7f4552433732313a207472616e7366657220746f20746865207a65726f206164645f8201527f7265737300000000000000000000000000000000000000000000000000000000602082015250565b5f614399602483612ca3565b91506143a48261433f565b604082019050919050565b5f6020820190508181035f8301526143c68161438d565b9050919050565b7f4f776e61626c653a2063616c6c6572206973206e6f7420746865206f776e65725f82015250565b5f614401602083612ca3565b915061440c826143cd565b602082019050919050565b5f6020820190508181035f83015261442e816143f5565b9050919050565b7f4552433732313a20617070726f766520746f2063616c6c6572000000000000005f82015250565b5f614469601983612ca3565b915061447482614435565b602082019050919050565b5f6020820190508181035f8301526144968161445d565b9050919050565b7f4552433732313a207472616e7366657220746f206e6f6e2045524337323152655f8201527f63656976657220696d706c656d656e7465720000000000000000000000000000602082015250565b5f6144f7603283612ca3565b91506145028261449d565b604082019050919050565b5f6020820190508181035f830152614524816144eb565b9050919050565b7f4e487b71000000000000000000000000000000000000000000000000000000005f52601260045260245ffd5b7f4552433732313a206d696e7420746f20746865207a65726f20616464726573735f82015250565b5f61458c602083612ca3565b915061459782614558565b602082019050919050565b5f6020820190508181035f8301526145b981614580565b9050919050565b7f4552433732313a20746f6b656e20616c7265616479206d696e746564000000005f82015250565b5f6145f4601c83612ca3565b91506145ff826145c0565b602082019050919050565b5f6020820190508181035f830152614621816145e8565b9050919050565b5f81519050919050565b5f82825260208201905092915050565b5f61464c82614628565b6146568185614632565b9350614666818560208601612cb3565b61466f81612cdb565b840191505092915050565b5f60808201905061468d5f830187612dd1565b61469a6020830186612dd1565b6146a7604083018561335d565b81810360608301526146b98184614642565b905095945050505050565b5f815190506146d281612c11565b92915050565b5f602082840312156146ed576146ec612bde565b5b5f6146fa848285016146c4565b9150509291505056fea26469706673582212207024d2203a175c9dac5b73e3000e56d95f85f52b88146ec3760d32c55d23507964736f6c63430008140033",
  "immutableReferences": {},
  "source": "// SPDX-License-Identifier: MIT\npragma solidity ^0.8.0;\n\nimport \"@openzeppelin/contracts/token/ERC721/ERC721.sol\";\nimport \"@openzeppelin/contracts/access/Ownable.sol\";\n\ninterface ITasksSamaContract {\n    function mintVideoNFT(address recipient, string calldata title, string calldata description, string calldata ipfsUrl, uint256 rewardEarned, address[] calldata participants) external returns (uint256);\n}\n\ncontract Tasks is ERC721, Ownable {\n    \n    struct Task {\n        uint256 tokenId;\n        address owner;\n        string title;\n        string description;\n        string imageURI;\n        uint256 reward;\n        address[] participants;\n        address winner;\n    }\n\n    ITasksSamaContract private _taskSamaContract;\n    Task[] public tasks;\n\n    mapping(uint256 => bool) public taskExists;\n    mapping(uint256 => bool) public taskCompleted;\n\n    uint256 public minimumReward = 10 ether; // Minimum reward is 5 GLMR tokens //900\n\n    event TaskCreated(uint256 indexed taskId, address owner, string title, string description, string imageURI, uint256 reward);\n    event TaskCompleted(uint256 indexed taskId, address winner);\n\n    constructor(address taskSamaContractAddress) ERC721(\"Tasks\", \"TASK\") {\n        _taskSamaContract = ITasksSamaContract(taskSamaContractAddress);\n    }\n\n    function createTask(string memory _title, string memory _description, string memory _imageURI) public payable {\n        require(msg.value >= minimumReward, \"Reward is too low\");\n\n        Task memory newTask = Task({\n            tokenId: tasks.length,\n            owner: msg.sender,\n            title: _title,\n            description: _description,\n            imageURI: _imageURI,\n            reward: msg.value,\n            participants: new address[](0),\n            winner: address(0)\n        });\n\n        tasks.push(newTask);\n\n        _mint(msg.sender, newTask.tokenId);\n        taskExists[newTask.tokenId] = true;\n\n        emit TaskCreated(newTask.tokenId, msg.sender, _title, _description, _imageURI, msg.value);\n    }\n\n    function participate(uint256 _taskId) public {\n        require(taskExists[_taskId], \"Task does not exist\");\n        require(tasks[_taskId].owner != msg.sender, \"You cannot participate in your own task\");\n        require(!_isParticipant(_taskId, msg.sender), \"Already participated\");\n\n        tasks[_taskId].participants.push(msg.sender);\n    }\n\n    function chooseWinner(uint256 _taskId, address _winner, string memory ipfsUrl) public {\n        require(taskExists[_taskId], \"Task does not exist\");\n        require(!_isCompleted(_taskId), \"Task is already completed\");\n        require(_isParticipant(_taskId, _winner), \"The user chosen did not participate\");\n        require(_isOwner(_taskId, msg.sender));\n\n        tasks[_taskId].winner = _winner;\n        taskCompleted[_taskId] = true;\n\n        //transfer the reward to the winner\n        _transfer(address(this), _winner, tasks[_taskId].reward); \n         //mints the video NFT\n        _taskSamaContract.mintVideoNFT(_winner, tasks[_taskId].title, tasks[_taskId].description, ipfsUrl, tasks[_taskId].reward, tasks[_taskId].participants);\n\n        emit TaskCompleted(_taskId, _winner);\n    }\n\n    function _isParticipant(uint256 _taskId, address _participant) public view returns (bool) {\n        for (uint256 i = 0; i < tasks[_taskId].participants.length; i++) {\n            if (tasks[_taskId].participants[i] == _participant) {\n                return true;\n            }\n        }\n        return false;\n    }\n\n    function _isCompleted(uint256 _taskId) public view returns (bool) {\n        return taskCompleted[_taskId];\n    }\n\n    function _isOwner(uint256 _taskId, address walletCheck) public view returns (bool) {\n        return tasks[_taskId].owner == walletCheck;\n    }\n\n    function _getTasks() public view returns (Task[] memory) {\n        return tasks;\n    }\n}\n",
  "sourcePath": "/home/crosta/task-sama/truffle/contracts/Tasks.sol",
  "compiler": {
    "name": "solc",
    "version": "0.8.20+commit.a1b79de6.Emscripten.clang"
  },
  "schemaVersion": "3.4.13",
  "updatedAt": "2023-05-14T16:08:11.711Z",
  "networkType": "ethereum",
  "devdoc": {
    "events": {
      "Approval(address,address,uint256)": {
        "details": "Emitted when `owner` enables `approved` to manage the `tokenId` token."
      },
      "ApprovalForAll(address,address,bool)": {
        "details": "Emitted when `owner` enables or disables (`approved`) `operator` to manage all of its assets."
      },
      "Transfer(address,address,uint256)": {
        "details": "Emitted when `tokenId` token is transferred from `from` to `to`."
      }
    },
    "kind": "dev",
    "methods": {
      "approve(address,uint256)": {
        "details": "See {IERC721-approve}."
      },
      "balanceOf(address)": {
        "details": "See {IERC721-balanceOf}."
      },
      "getApproved(uint256)": {
        "details": "See {IERC721-getApproved}."
      },
      "isApprovedForAll(address,address)": {
        "details": "See {IERC721-isApprovedForAll}."
      },
      "name()": {
        "details": "See {IERC721Metadata-name}."
      },
      "owner()": {
        "details": "Returns the address of the current owner."
      },
      "ownerOf(uint256)": {
        "details": "See {IERC721-ownerOf}."
      },
      "renounceOwnership()": {
        "details": "Leaves the contract without owner. It will not be possible to call `onlyOwner` functions anymore. Can only be called by the current owner. NOTE: Renouncing ownership will leave the contract without an owner, thereby removing any functionality that is only available to the owner."
      },
      "safeTransferFrom(address,address,uint256)": {
        "details": "See {IERC721-safeTransferFrom}."
      },
      "safeTransferFrom(address,address,uint256,bytes)": {
        "details": "See {IERC721-safeTransferFrom}."
      },
      "setApprovalForAll(address,bool)": {
        "details": "See {IERC721-setApprovalForAll}."
      },
      "supportsInterface(bytes4)": {
        "details": "See {IERC165-supportsInterface}."
      },
      "symbol()": {
        "details": "See {IERC721Metadata-symbol}."
      },
      "tokenURI(uint256)": {
        "details": "See {IERC721Metadata-tokenURI}."
      },
      "transferFrom(address,address,uint256)": {
        "details": "See {IERC721-transferFrom}."
      },
      "transferOwnership(address)": {
        "details": "Transfers ownership of the contract to a new account (`newOwner`). Can only be called by the current owner."
      }
    },
    "version": 1
  },
  "userdoc": {
    "kind": "user",
    "methods": {},
    "version": 1
  }
}