{
  "contractName": "TaskSama",
  "abi": [
    {
      "inputs": [],
      "stateMutability": "nonpayable",
      "type": "constructor"
    },
    {
      "anonymous": false,
      "inputs": [
        {
          "indexed": true,
          "internalType": "address",
          "name": "owner",
          "type": "address"
        },
        {
          "indexed": true,
          "internalType": "address",
          "name": "approved",
          "type": "address"
        },
        {
          "indexed": true,
          "internalType": "uint256",
          "name": "tokenId",
          "type": "uint256"
        }
      ],
      "name": "Approval",
      "type": "event"
    },
    {
      "anonymous": false,
      "inputs": [
        {
          "indexed": true,
          "internalType": "address",
          "name": "owner",
          "type": "address"
        },
        {
          "indexed": true,
          "internalType": "address",
          "name": "operator",
          "type": "address"
        },
        {
          "indexed": false,
          "internalType": "bool",
          "name": "approved",
          "type": "bool"
        }
      ],
      "name": "ApprovalForAll",
      "type": "event"
    },
    {
      "anonymous": false,
      "inputs": [
        {
          "indexed": true,
          "internalType": "address",
          "name": "previousOwner",
          "type": "address"
        },
        {
          "indexed": true,
          "internalType": "address",
          "name": "newOwner",
          "type": "address"
        }
      ],
      "name": "OwnershipTransferred",
      "type": "event"
    },
    {
      "anonymous": false,
      "inputs": [
        {
          "indexed": true,
          "internalType": "address",
          "name": "from",
          "type": "address"
        },
        {
          "indexed": true,
          "internalType": "address",
          "name": "to",
          "type": "address"
        },
        {
          "indexed": true,
          "internalType": "uint256",
          "name": "tokenId",
          "type": "uint256"
        }
      ],
      "name": "Transfer",
      "type": "event"
    },
    {
      "inputs": [
        {
          "internalType": "address",
          "name": "to",
          "type": "address"
        },
        {
          "internalType": "uint256",
          "name": "tokenId",
          "type": "uint256"
        }
      ],
      "name": "approve",
      "outputs": [],
      "stateMutability": "nonpayable",
      "type": "function"
    },
    {
      "inputs": [
        {
          "internalType": "address",
          "name": "owner",
          "type": "address"
        }
      ],
      "name": "balanceOf",
      "outputs": [
        {
          "internalType": "uint256",
          "name": "",
          "type": "uint256"
        }
      ],
      "stateMutability": "view",
      "type": "function"
    },
    {
      "inputs": [
        {
          "internalType": "uint256",
          "name": "tokenId",
          "type": "uint256"
        }
      ],
      "name": "getApproved",
      "outputs": [
        {
          "internalType": "address",
          "name": "",
          "type": "address"
        }
      ],
      "stateMutability": "view",
      "type": "function"
    },
    {
      "inputs": [
        {
          "internalType": "address",
          "name": "owner",
          "type": "address"
        },
        {
          "internalType": "address",
          "name": "operator",
          "type": "address"
        }
      ],
      "name": "isApprovedForAll",
      "outputs": [
        {
          "internalType": "bool",
          "name": "",
          "type": "bool"
        }
      ],
      "stateMutability": "view",
      "type": "function"
    },
    {
      "inputs": [],
      "name": "name",
      "outputs": [
        {
          "internalType": "string",
          "name": "",
          "type": "string"
        }
      ],
      "stateMutability": "view",
      "type": "function"
    },
    {
      "inputs": [],
      "name": "owner",
      "outputs": [
        {
          "internalType": "address",
          "name": "",
          "type": "address"
        }
      ],
      "stateMutability": "view",
      "type": "function"
    },
    {
      "inputs": [
        {
          "internalType": "uint256",
          "name": "tokenId",
          "type": "uint256"
        }
      ],
      "name": "ownerOf",
      "outputs": [
        {
          "internalType": "address",
          "name": "",
          "type": "address"
        }
      ],
      "stateMutability": "view",
      "type": "function"
    },
    {
      "inputs": [],
      "name": "renounceOwnership",
      "outputs": [],
      "stateMutability": "nonpayable",
      "type": "function"
    },
    {
      "inputs": [
        {
          "internalType": "address",
          "name": "from",
          "type": "address"
        },
        {
          "internalType": "address",
          "name": "to",
          "type": "address"
        },
        {
          "internalType": "uint256",
          "name": "tokenId",
          "type": "uint256"
        }
      ],
      "name": "safeTransferFrom",
      "outputs": [],
      "stateMutability": "nonpayable",
      "type": "function"
    },
    {
      "inputs": [
        {
          "internalType": "address",
          "name": "from",
          "type": "address"
        },
        {
          "internalType": "address",
          "name": "to",
          "type": "address"
        },
        {
          "internalType": "uint256",
          "name": "tokenId",
          "type": "uint256"
        },
        {
          "internalType": "bytes",
          "name": "data",
          "type": "bytes"
        }
      ],
      "name": "safeTransferFrom",
      "outputs": [],
      "stateMutability": "nonpayable",
      "type": "function"
    },
    {
      "inputs": [
        {
          "internalType": "address",
          "name": "operator",
          "type": "address"
        },
        {
          "internalType": "bool",
          "name": "approved",
          "type": "bool"
        }
      ],
      "name": "setApprovalForAll",
      "outputs": [],
      "stateMutability": "nonpayable",
      "type": "function"
    },
    {
      "inputs": [
        {
          "internalType": "bytes4",
          "name": "interfaceId",
          "type": "bytes4"
        }
      ],
      "name": "supportsInterface",
      "outputs": [
        {
          "internalType": "bool",
          "name": "",
          "type": "bool"
        }
      ],
      "stateMutability": "view",
      "type": "function"
    },
    {
      "inputs": [],
      "name": "symbol",
      "outputs": [
        {
          "internalType": "string",
          "name": "",
          "type": "string"
        }
      ],
      "stateMutability": "view",
      "type": "function"
    },
    {
      "inputs": [
        {
          "internalType": "uint256",
          "name": "tokenId",
          "type": "uint256"
        }
      ],
      "name": "tokenURI",
      "outputs": [
        {
          "internalType": "string",
          "name": "",
          "type": "string"
        }
      ],
      "stateMutability": "view",
      "type": "function"
    },
    {
      "inputs": [
        {
          "internalType": "address",
          "name": "from",
          "type": "address"
        },
        {
          "internalType": "address",
          "name": "to",
          "type": "address"
        },
        {
          "internalType": "uint256",
          "name": "tokenId",
          "type": "uint256"
        }
      ],
      "name": "transferFrom",
      "outputs": [],
      "stateMutability": "nonpayable",
      "type": "function"
    },
    {
      "inputs": [
        {
          "internalType": "address",
          "name": "newOwner",
          "type": "address"
        }
      ],
      "name": "transferOwnership",
      "outputs": [],
      "stateMutability": "nonpayable",
      "type": "function"
    },
    {
      "inputs": [
        {
          "internalType": "address",
          "name": "recipient",
          "type": "address"
        },
        {
          "internalType": "string",
          "name": "title",
          "type": "string"
        },
        {
          "internalType": "string",
          "name": "description",
          "type": "string"
        },
        {
          "internalType": "string",
          "name": "ipfsUrl",
          "type": "string"
        },
        {
          "internalType": "uint256",
          "name": "rewardEarned",
          "type": "uint256"
        },
        {
          "internalType": "address[]",
          "name": "participants",
          "type": "address[]"
        }
      ],
      "name": "mintVideoNFT",
      "outputs": [
        {
          "internalType": "uint256",
          "name": "",
          "type": "uint256"
        }
      ],
      "stateMutability": "nonpayable",
      "type": "function"
    },
    {
      "inputs": [
        {
          "internalType": "uint256",
          "name": "tokenId",
          "type": "uint256"
        }
      ],
      "name": "getVideoData",
      "outputs": [
        {
          "components": [
            {
              "internalType": "string",
              "name": "title",
              "type": "string"
            },
            {
              "internalType": "string",
              "name": "description",
              "type": "string"
            },
            {
              "internalType": "string",
              "name": "ipfsUrl",
              "type": "string"
            },
            {
              "internalType": "uint256",
              "name": "rewardEarned",
              "type": "uint256"
            },
            {
              "internalType": "address[]",
              "name": "participants",
              "type": "address[]"
            },
            {
              "internalType": "address",
              "name": "winner",
              "type": "address"
            },
            {
              "internalType": "uint256",
              "name": "timestamp",
              "type": "uint256"
            }
          ],
          "internalType": "struct TaskSama.Video",
          "name": "",
          "type": "tuple"
        }
      ],
      "stateMutability": "view",
      "type": "function"
    }
  ],
  "bytecode": "0x608060405234801562000010575f80fd5b506040518060400160405280600881526020017f5461736b53616d610000000000000000000000000000000000000000000000008152506040518060400160405280600381526020017f54534b0000000000000000000000000000000000000000000000000000000000815250815f90816200008d9190620003f6565b5080600190816200009f9190620003f6565b505050620000c2620000b6620000c860201b60201c565b620000cf60201b60201c565b620004da565b5f33905090565b5f60065f9054906101000a900473ffffffffffffffffffffffffffffffffffffffff1690508160065f6101000a81548173ffffffffffffffffffffffffffffffffffffffff021916908373ffffffffffffffffffffffffffffffffffffffff1602179055508173ffffffffffffffffffffffffffffffffffffffff168173ffffffffffffffffffffffffffffffffffffffff167f8be0079c531659141344cd1fd0a4f28419497f9722a3daafe3b4186f6b6457e060405160405180910390a35050565b5f81519050919050565b7f4e487b71000000000000000000000000000000000000000000000000000000005f52604160045260245ffd5b7f4e487b71000000000000000000000000000000000000000000000000000000005f52602260045260245ffd5b5f60028204905060018216806200020e57607f821691505b602082108103620002245762000223620001c9565b5b50919050565b5f819050815f5260205f209050919050565b5f6020601f8301049050919050565b5f82821b905092915050565b5f60088302620002887fffffffffffffffffffffffffffffffffffffffffffffffffffffffffffffffff826200024b565b6200029486836200024b565b95508019841693508086168417925050509392505050565b5f819050919050565b5f819050919050565b5f620002de620002d8620002d284620002ac565b620002b5565b620002ac565b9050919050565b5f819050919050565b620002f983620002be565b620003116200030882620002e5565b84845462000257565b825550505050565b5f90565b6200032762000319565b62000334818484620002ee565b505050565b5b818110156200035b576200034f5f826200031d565b6001810190506200033a565b5050565b601f821115620003aa5762000374816200022a565b6200037f846200023c565b810160208510156200038f578190505b620003a76200039e856200023c565b83018262000339565b50505b505050565b5f82821c905092915050565b5f620003cc5f1984600802620003af565b1980831691505092915050565b5f620003e68383620003bb565b9150826002028217905092915050565b620004018262000192565b67ffffffffffffffff8111156200041d576200041c6200019c565b5b620004298254620001f6565b620004368282856200035f565b5f60209050601f8311600181146200046c575f841562000457578287015190505b620004638582620003d9565b865550620004d2565b601f1984166200047c866200022a565b5f5b82811015620004a5578489015182556001820191506020850194506020810190506200047e565b86831015620004c55784890151620004c1601f891682620003bb565b8355505b6001600288020188555050505b505050505050565b6133ad80620004e85f395ff3fe608060405234801561000f575f80fd5b5060043610610114575f3560e01c80637550ae13116100a0578063b88d4fde1161006f578063b88d4fde146102dc578063c87b56dd146102f8578063e985e9c514610328578063f249e3cc14610358578063f2fde38b1461038857610114565b80637550ae13146102545780638da5cb5b1461028457806395d89b41146102a2578063a22cb465146102c057610114565b806323b872dd116100e757806323b872dd146101b257806342842e0e146101ce5780636352211e146101ea57806370a082311461021a578063715018a61461024a57610114565b806301ffc9a71461011857806306fdde0314610148578063081812fc14610166578063095ea7b314610196575b5f80fd5b610132600480360381019061012d9190611f17565b6103a4565b60405161013f9190611f5c565b60405180910390f35b610150610485565b60405161015d9190611fff565b60405180910390f35b610180600480360381019061017b9190612052565b610514565b60405161018d91906120bc565b60405180910390f35b6101b060048036038101906101ab91906120ff565b610556565b005b6101cc60048036038101906101c7919061213d565b61066c565b005b6101e860048036038101906101e3919061213d565b6106cc565b005b61020460048036038101906101ff9190612052565b6106eb565b60405161021191906120bc565b60405180910390f35b610234600480360381019061022f919061218d565b61076f565b60405161024191906121c7565b60405180910390f35b610252610823565b005b61026e600480360381019061026991906123d0565b610836565b60405161027b91906121c7565b60405180910390f35b61028c610982565b60405161029991906120bc565b60405180910390f35b6102aa6109aa565b6040516102b79190611fff565b60405180910390f35b6102da60048036038101906102d591906124f3565b610a3a565b005b6102f660048036038101906102f191906125cf565b610a50565b005b610312600480360381019061030d9190612052565b610ab2565b60405161031f9190611fff565b60405180910390f35b610342600480360381019061033d919061264f565b610b17565b60405161034f9190611f5c565b60405180910390f35b610372600480360381019061036d9190612052565b610ba5565b60405161037f9190612849565b60405180910390f35b6103a2600480360381019061039d919061218d565b610ebb565b005b5f7f80ac58cd000000000000000000000000000000000000000000000000000000007bffffffffffffffffffffffffffffffffffffffffffffffffffffffff1916827bffffffffffffffffffffffffffffffffffffffffffffffffffffffff1916148061046e57507f5b5e139f000000000000000000000000000000000000000000000000000000007bffffffffffffffffffffffffffffffffffffffffffffffffffffffff1916827bffffffffffffffffffffffffffffffffffffffffffffffffffffffff1916145b8061047e575061047d82610f3d565b5b9050919050565b60605f805461049390612896565b80601f01602080910402602001604051908101604052809291908181526020018280546104bf90612896565b801561050a5780601f106104e15761010080835404028352916020019161050a565b820191905f5260205f20905b8154815290600101906020018083116104ed57829003601f168201915b5050505050905090565b5f61051e82610fa6565b60045f8381526020019081526020015f205f9054906101000a900473ffffffffffffffffffffffffffffffffffffffff169050919050565b5f610560826106eb565b90508073ffffffffffffffffffffffffffffffffffffffff168373ffffffffffffffffffffffffffffffffffffffff16036105d0576040517f08c379a00000000000000000000000000000000000000000000000000000000081526004016105c790612936565b60405180910390fd5b8073ffffffffffffffffffffffffffffffffffffffff166105ef610ff1565b73ffffffffffffffffffffffffffffffffffffffff16148061061e575061061d81610618610ff1565b610b17565b5b61065d576040517f08c379a0000000000000000000000000000000000000000000000000000000008152600401610654906129c4565b60405180910390fd5b6106678383610ff8565b505050565b61067d610677610ff1565b826110ae565b6106bc576040517f08c379a00000000000000000000000000000000000000000000000000000000081526004016106b390612a52565b60405180910390fd5b6106c7838383611142565b505050565b6106e683838360405180602001604052805f815250610a50565b505050565b5f806106f68361142e565b90505f73ffffffffffffffffffffffffffffffffffffffff168173ffffffffffffffffffffffffffffffffffffffff1603610766576040517f08c379a000000000000000000000000000000000000000000000000000000000815260040161075d90612aba565b60405180910390fd5b80915050919050565b5f8073ffffffffffffffffffffffffffffffffffffffff168273ffffffffffffffffffffffffffffffffffffffff16036107de576040517f08c379a00000000000000000000000000000000000000000000000000000000081526004016107d590612b48565b60405180910390fd5b60035f8373ffffffffffffffffffffffffffffffffffffffff1673ffffffffffffffffffffffffffffffffffffffff1681526020019081526020015f20549050919050565b61082b611467565b6108345f6114e5565b565b5f61083f611467565b61084960076115a8565b5f61085460076115bc565b905061086088826115c8565b6040518060e001604052808881526020018781526020018681526020018581526020018481526020018973ffffffffffffffffffffffffffffffffffffffff1681526020014281525060085f8381526020019081526020015f205f820151815f0190816108cd9190612d03565b5060208201518160010190816108e39190612d03565b5060408201518160020190816108f99190612d03565b50606082015181600301556080820151816004019080519060200190610920929190611dbf565b5060a0820151816005015f6101000a81548173ffffffffffffffffffffffffffffffffffffffff021916908373ffffffffffffffffffffffffffffffffffffffff16021790555060c08201518160060155905050809150509695505050505050565b5f60065f9054906101000a900473ffffffffffffffffffffffffffffffffffffffff16905090565b6060600180546109b990612896565b80601f01602080910402602001604051908101604052809291908181526020018280546109e590612896565b8015610a305780601f10610a0757610100808354040283529160200191610a30565b820191905f5260205f20905b815481529060010190602001808311610a1357829003601f168201915b5050505050905090565b610a4c610a45610ff1565b83836117db565b5050565b610a61610a5b610ff1565b836110ae565b610aa0576040517f08c379a0000000000000000000000000000000000000000000000000000000008152600401610a9790612a52565b60405180910390fd5b610aac84848484611942565b50505050565b6060610abd82610fa6565b5f610ac661199e565b90505f815111610ae45760405180602001604052805f815250610b0f565b80610aee846119b4565b604051602001610aff929190612e0c565b6040516020818303038152906040525b915050919050565b5f60055f8473ffffffffffffffffffffffffffffffffffffffff1673ffffffffffffffffffffffffffffffffffffffff1681526020019081526020015f205f8373ffffffffffffffffffffffffffffffffffffffff1673ffffffffffffffffffffffffffffffffffffffff1681526020019081526020015f205f9054906101000a900460ff16905092915050565b610bad611e46565b610bb682611a7e565b610bf5576040517f08c379a0000000000000000000000000000000000000000000000000000000008152600401610bec90612e79565b60405180910390fd5b60085f8381526020019081526020015f206040518060e00160405290815f82018054610c2090612896565b80601f0160208091040260200160405190810160405280929190818152602001828054610c4c90612896565b8015610c975780601f10610c6e57610100808354040283529160200191610c97565b820191905f5260205f20905b815481529060010190602001808311610c7a57829003601f168201915b50505050508152602001600182018054610cb090612896565b80601f0160208091040260200160405190810160405280929190818152602001828054610cdc90612896565b8015610d275780601f10610cfe57610100808354040283529160200191610d27565b820191905f5260205f20905b815481529060010190602001808311610d0a57829003601f168201915b50505050508152602001600282018054610d4090612896565b80601f0160208091040260200160405190810160405280929190818152602001828054610d6c90612896565b8015610db75780601f10610d8e57610100808354040283529160200191610db7565b820191905f5260205f20905b815481529060010190602001808311610d9a57829003601f168201915b505050505081526020016003820154815260200160048201805480602002602001604051908101604052809291908181526020018280548015610e4c57602002820191905f5260205f20905b815f9054906101000a900473ffffffffffffffffffffffffffffffffffffffff1673ffffffffffffffffffffffffffffffffffffffff1681526020019060010190808311610e03575b50505050508152602001600582015f9054906101000a900473ffffffffffffffffffffffffffffffffffffffff1673ffffffffffffffffffffffffffffffffffffffff1673ffffffffffffffffffffffffffffffffffffffff1681526020016006820154815250509050919050565b610ec3611467565b5f73ffffffffffffffffffffffffffffffffffffffff168173ffffffffffffffffffffffffffffffffffffffff1603610f31576040517f08c379a0000000000000000000000000000000000000000000000000000000008152600401610f2890612f07565b60405180910390fd5b610f3a816114e5565b50565b5f7f01ffc9a7000000000000000000000000000000000000000000000000000000007bffffffffffffffffffffffffffffffffffffffffffffffffffffffff1916827bffffffffffffffffffffffffffffffffffffffffffffffffffffffff1916149050919050565b610faf81611a7e565b610fee576040517f08c379a0000000000000000000000000000000000000000000000000000000008152600401610fe590612aba565b60405180910390fd5b50565b5f33905090565b8160045f8381526020019081526020015f205f6101000a81548173ffffffffffffffffffffffffffffffffffffffff021916908373ffffffffffffffffffffffffffffffffffffffff160217905550808273ffffffffffffffffffffffffffffffffffffffff16611068836106eb565b73ffffffffffffffffffffffffffffffffffffffff167f8c5be1e5ebec7d5bd14f71427d1e84f3dd0314c0f7b2291e5b200ac8c7c3b92560405160405180910390a45050565b5f806110b9836106eb565b90508073ffffffffffffffffffffffffffffffffffffffff168473ffffffffffffffffffffffffffffffffffffffff1614806110fb57506110fa8185610b17565b5b8061113957508373ffffffffffffffffffffffffffffffffffffffff1661112184610514565b73ffffffffffffffffffffffffffffffffffffffff16145b91505092915050565b8273ffffffffffffffffffffffffffffffffffffffff16611162826106eb565b73ffffffffffffffffffffffffffffffffffffffff16146111b8576040517f08c379a00000000000000000000000000000000000000000000000000000000081526004016111af90612f95565b60405180910390fd5b5f73ffffffffffffffffffffffffffffffffffffffff168273ffffffffffffffffffffffffffffffffffffffff1603611226576040517f08c379a000000000000000000000000000000000000000000000000000000000815260040161121d90613023565b60405180910390fd5b6112338383836001611abe565b8273ffffffffffffffffffffffffffffffffffffffff16611253826106eb565b73ffffffffffffffffffffffffffffffffffffffff16146112a9576040517f08c379a00000000000000000000000000000000000000000000000000000000081526004016112a090612f95565b60405180910390fd5b60045f8281526020019081526020015f205f6101000a81549073ffffffffffffffffffffffffffffffffffffffff0219169055600160035f8573ffffffffffffffffffffffffffffffffffffffff1673ffffffffffffffffffffffffffffffffffffffff1681526020019081526020015f205f8282540392505081905550600160035f8473ffffffffffffffffffffffffffffffffffffffff1673ffffffffffffffffffffffffffffffffffffffff1681526020019081526020015f205f82825401925050819055508160025f8381526020019081526020015f205f6101000a81548173ffffffffffffffffffffffffffffffffffffffff021916908373ffffffffffffffffffffffffffffffffffffffff160217905550808273ffffffffffffffffffffffffffffffffffffffff168473ffffffffffffffffffffffffffffffffffffffff167fddf252ad1be2c89b69c2b068fc378daa952ba7f163c4a11628f55a4df523b3ef60405160405180910390a46114298383836001611ac4565b505050565b5f60025f8381526020019081526020015f205f9054906101000a900473ffffffffffffffffffffffffffffffffffffffff169050919050565b61146f610ff1565b73ffffffffffffffffffffffffffffffffffffffff1661148d610982565b73ffffffffffffffffffffffffffffffffffffffff16146114e3576040517f08c379a00000000000000000000000000000000000000000000000000000000081526004016114da9061308b565b60405180910390fd5b565b5f60065f9054906101000a900473ffffffffffffffffffffffffffffffffffffffff1690508160065f6101000a81548173ffffffffffffffffffffffffffffffffffffffff021916908373ffffffffffffffffffffffffffffffffffffffff1602179055508173ffffffffffffffffffffffffffffffffffffffff168173ffffffffffffffffffffffffffffffffffffffff167f8be0079c531659141344cd1fd0a4f28419497f9722a3daafe3b4186f6b6457e060405160405180910390a35050565b6001815f015f828254019250508190555050565b5f815f01549050919050565b5f73ffffffffffffffffffffffffffffffffffffffff168273ffffffffffffffffffffffffffffffffffffffff1603611636576040517f08c379a000000000000000000000000000000000000000000000000000000000815260040161162d906130f3565b60405180910390fd5b61163f81611a7e565b1561167f576040517f08c379a00000000000000000000000000000000000000000000000000000000081526004016116769061315b565b60405180910390fd5b61168c5f83836001611abe565b61169581611a7e565b156116d5576040517f08c379a00000000000000000000000000000000000000000000000000000000081526004016116cc9061315b565b60405180910390fd5b600160035f8473ffffffffffffffffffffffffffffffffffffffff1673ffffffffffffffffffffffffffffffffffffffff1681526020019081526020015f205f82825401925050819055508160025f8381526020019081526020015f205f6101000a81548173ffffffffffffffffffffffffffffffffffffffff021916908373ffffffffffffffffffffffffffffffffffffffff160217905550808273ffffffffffffffffffffffffffffffffffffffff165f73ffffffffffffffffffffffffffffffffffffffff167fddf252ad1be2c89b69c2b068fc378daa952ba7f163c4a11628f55a4df523b3ef60405160405180910390a46117d75f83836001611ac4565b5050565b8173ffffffffffffffffffffffffffffffffffffffff168373ffffffffffffffffffffffffffffffffffffffff1603611849576040517f08c379a0000000000000000000000000000000000000000000000000000000008152600401611840906131c3565b60405180910390fd5b8060055f8573ffffffffffffffffffffffffffffffffffffffff1673ffffffffffffffffffffffffffffffffffffffff1681526020019081526020015f205f8473ffffffffffffffffffffffffffffffffffffffff1673ffffffffffffffffffffffffffffffffffffffff1681526020019081526020015f205f6101000a81548160ff0219169083151502179055508173ffffffffffffffffffffffffffffffffffffffff168373ffffffffffffffffffffffffffffffffffffffff167f17307eab39ab6107e8899845ad3d59bd9653f200f220920489ca2b5937696c31836040516119359190611f5c565b60405180910390a3505050565b61194d848484611142565b61195984848484611aca565b611998576040517f08c379a000000000000000000000000000000000000000000000000000000000815260040161198f90613251565b60405180910390fd5b50505050565b606060405180602001604052805f815250905090565b60605f60016119c284611c4c565b0190505f8167ffffffffffffffff8111156119e0576119df6121e8565b5b6040519080825280601f01601f191660200182016040528015611a125781602001600182028036833780820191505090505b5090505f82602001820190505b600115611a73578080600190039150507f3031323334353637383961626364656600000000000000000000000000000000600a86061a8153600a8581611a6857611a6761326f565b5b0494505f8503611a1f575b819350505050919050565b5f8073ffffffffffffffffffffffffffffffffffffffff16611a9f8361142e565b73ffffffffffffffffffffffffffffffffffffffff1614159050919050565b50505050565b50505050565b5f611aea8473ffffffffffffffffffffffffffffffffffffffff16611d9d565b15611c3f578373ffffffffffffffffffffffffffffffffffffffff1663150b7a02611b13610ff1565b8786866040518563ffffffff1660e01b8152600401611b3594939291906132ee565b6020604051808303815f875af1925050508015611b7057506040513d601f19601f82011682018060405250810190611b6d919061334c565b60015b611bef573d805f8114611b9e576040519150601f19603f3d011682016040523d82523d5f602084013e611ba3565b606091505b505f815103611be7576040517f08c379a0000000000000000000000000000000000000000000000000000000008152600401611bde90613251565b60405180910390fd5b805181602001fd5b63150b7a0260e01b7bffffffffffffffffffffffffffffffffffffffffffffffffffffffff1916817bffffffffffffffffffffffffffffffffffffffffffffffffffffffff191614915050611c44565b600190505b949350505050565b5f805f90507a184f03e93ff9f4daa797ed6e38ed64bf6a1f0100000000000000008310611ca8577a184f03e93ff9f4daa797ed6e38ed64bf6a1f0100000000000000008381611c9e57611c9d61326f565b5b0492506040810190505b6d04ee2d6d415b85acef81000000008310611ce5576d04ee2d6d415b85acef81000000008381611cdb57611cda61326f565b5b0492506020810190505b662386f26fc100008310611d1457662386f26fc100008381611d0a57611d0961326f565b5b0492506010810190505b6305f5e1008310611d3d576305f5e1008381611d3357611d3261326f565b5b0492506008810190505b6127108310611d62576127108381611d5857611d5761326f565b5b0492506004810190505b60648310611d855760648381611d7b57611d7a61326f565b5b0492506002810190505b600a8310611d94576001810190505b80915050919050565b5f808273ffffffffffffffffffffffffffffffffffffffff163b119050919050565b828054828255905f5260205f20908101928215611e35579160200282015b82811115611e34578251825f6101000a81548173ffffffffffffffffffffffffffffffffffffffff021916908373ffffffffffffffffffffffffffffffffffffffff16021790555091602001919060010190611ddd565b5b509050611e429190611e96565b5090565b6040518060e001604052806060815260200160608152602001606081526020015f8152602001606081526020015f73ffffffffffffffffffffffffffffffffffffffff1681526020015f81525090565b5b80821115611ead575f815f905550600101611e97565b5090565b5f604051905090565b5f80fd5b5f80fd5b5f7fffffffff0000000000000000000000000000000000000000000000000000000082169050919050565b611ef681611ec2565b8114611f00575f80fd5b50565b5f81359050611f1181611eed565b92915050565b5f60208284031215611f2c57611f2b611eba565b5b5f611f3984828501611f03565b91505092915050565b5f8115159050919050565b611f5681611f42565b82525050565b5f602082019050611f6f5f830184611f4d565b92915050565b5f81519050919050565b5f82825260208201905092915050565b5f5b83811015611fac578082015181840152602081019050611f91565b5f8484015250505050565b5f601f19601f8301169050919050565b5f611fd182611f75565b611fdb8185611f7f565b9350611feb818560208601611f8f565b611ff481611fb7565b840191505092915050565b5f6020820190508181035f8301526120178184611fc7565b905092915050565b5f819050919050565b6120318161201f565b811461203b575f80fd5b50565b5f8135905061204c81612028565b92915050565b5f6020828403121561206757612066611eba565b5b5f6120748482850161203e565b91505092915050565b5f73ffffffffffffffffffffffffffffffffffffffff82169050919050565b5f6120a68261207d565b9050919050565b6120b68161209c565b82525050565b5f6020820190506120cf5f8301846120ad565b92915050565b6120de8161209c565b81146120e8575f80fd5b50565b5f813590506120f9816120d5565b92915050565b5f806040838503121561211557612114611eba565b5b5f612122858286016120eb565b92505060206121338582860161203e565b9150509250929050565b5f805f6060848603121561215457612153611eba565b5b5f612161868287016120eb565b9350506020612172868287016120eb565b92505060406121838682870161203e565b9150509250925092565b5f602082840312156121a2576121a1611eba565b5b5f6121af848285016120eb565b91505092915050565b6121c18161201f565b82525050565b5f6020820190506121da5f8301846121b8565b92915050565b5f80fd5b5f80fd5b7f4e487b71000000000000000000000000000000000000000000000000000000005f52604160045260245ffd5b61221e82611fb7565b810181811067ffffffffffffffff8211171561223d5761223c6121e8565b5b80604052505050565b5f61224f611eb1565b905061225b8282612215565b919050565b5f67ffffffffffffffff82111561227a576122796121e8565b5b61228382611fb7565b9050602081019050919050565b828183375f83830152505050565b5f6122b06122ab84612260565b612246565b9050828152602081018484840111156122cc576122cb6121e4565b5b6122d7848285612290565b509392505050565b5f82601f8301126122f3576122f26121e0565b5b813561230384826020860161229e565b91505092915050565b5f67ffffffffffffffff821115612326576123256121e8565b5b602082029050602081019050919050565b5f80fd5b5f61234d6123488461230c565b612246565b905080838252602082019050602084028301858111156123705761236f612337565b5b835b81811015612399578061238588826120eb565b845260208401935050602081019050612372565b5050509392505050565b5f82601f8301126123b7576123b66121e0565b5b81356123c784826020860161233b565b91505092915050565b5f805f805f8060c087890312156123ea576123e9611eba565b5b5f6123f789828a016120eb565b965050602087013567ffffffffffffffff81111561241857612417611ebe565b5b61242489828a016122df565b955050604087013567ffffffffffffffff81111561244557612444611ebe565b5b61245189828a016122df565b945050606087013567ffffffffffffffff81111561247257612471611ebe565b5b61247e89828a016122df565b935050608061248f89828a0161203e565b92505060a087013567ffffffffffffffff8111156124b0576124af611ebe565b5b6124bc89828a016123a3565b9150509295509295509295565b6124d281611f42565b81146124dc575f80fd5b50565b5f813590506124ed816124c9565b92915050565b5f806040838503121561250957612508611eba565b5b5f612516858286016120eb565b9250506020612527858286016124df565b9150509250929050565b5f67ffffffffffffffff82111561254b5761254a6121e8565b5b61255482611fb7565b9050602081019050919050565b5f61257361256e84612531565b612246565b90508281526020810184848401111561258f5761258e6121e4565b5b61259a848285612290565b509392505050565b5f82601f8301126125b6576125b56121e0565b5b81356125c6848260208601612561565b91505092915050565b5f805f80608085870312156125e7576125e6611eba565b5b5f6125f4878288016120eb565b9450506020612605878288016120eb565b93505060406126168782880161203e565b925050606085013567ffffffffffffffff81111561263757612636611ebe565b5b612643878288016125a2565b91505092959194509250565b5f806040838503121561266557612664611eba565b5b5f612672858286016120eb565b9250506020612683858286016120eb565b9150509250929050565b5f82825260208201905092915050565b5f6126a782611f75565b6126b1818561268d565b93506126c1818560208601611f8f565b6126ca81611fb7565b840191505092915050565b6126de8161201f565b82525050565b5f81519050919050565b5f82825260208201905092915050565b5f819050602082019050919050565b6127168161209c565b82525050565b5f612727838361270d565b60208301905092915050565b5f602082019050919050565b5f612749826126e4565b61275381856126ee565b935061275e836126fe565b805f5b8381101561278e578151612775888261271c565b975061278083612733565b925050600181019050612761565b5085935050505092915050565b5f60e083015f8301518482035f8601526127b5828261269d565b915050602083015184820360208601526127cf828261269d565b915050604083015184820360408601526127e9828261269d565b91505060608301516127fe60608601826126d5565b5060808301518482036080860152612816828261273f565b91505060a083015161282b60a086018261270d565b5060c083015161283e60c08601826126d5565b508091505092915050565b5f6020820190508181035f830152612861818461279b565b905092915050565b7f4e487b71000000000000000000000000000000000000000000000000000000005f52602260045260245ffd5b5f60028204905060018216806128ad57607f821691505b6020821081036128c0576128bf612869565b5b50919050565b7f4552433732313a20617070726f76616c20746f2063757272656e74206f776e655f8201527f7200000000000000000000000000000000000000000000000000000000000000602082015250565b5f612920602183611f7f565b915061292b826128c6565b604082019050919050565b5f6020820190508181035f83015261294d81612914565b9050919050565b7f4552433732313a20617070726f76652063616c6c6572206973206e6f7420746f5f8201527f6b656e206f776e6572206f7220617070726f76656420666f7220616c6c000000602082015250565b5f6129ae603d83611f7f565b91506129b982612954565b604082019050919050565b5f6020820190508181035f8301526129db816129a2565b9050919050565b7f4552433732313a2063616c6c6572206973206e6f7420746f6b656e206f776e655f8201527f72206f7220617070726f76656400000000000000000000000000000000000000602082015250565b5f612a3c602d83611f7f565b9150612a47826129e2565b604082019050919050565b5f6020820190508181035f830152612a6981612a30565b9050919050565b7f4552433732313a20696e76616c696420746f6b656e20494400000000000000005f82015250565b5f612aa4601883611f7f565b9150612aaf82612a70565b602082019050919050565b5f6020820190508181035f830152612ad181612a98565b9050919050565b7f4552433732313a2061646472657373207a65726f206973206e6f7420612076615f8201527f6c6964206f776e65720000000000000000000000000000000000000000000000602082015250565b5f612b32602983611f7f565b9150612b3d82612ad8565b604082019050919050565b5f6020820190508181035f830152612b5f81612b26565b9050919050565b5f819050815f5260205f209050919050565b5f6020601f8301049050919050565b5f82821b905092915050565b5f60088302612bc27fffffffffffffffffffffffffffffffffffffffffffffffffffffffffffffffff82612b87565b612bcc8683612b87565b95508019841693508086168417925050509392505050565b5f819050919050565b5f612c07612c02612bfd8461201f565b612be4565b61201f565b9050919050565b5f819050919050565b612c2083612bed565b612c34612c2c82612c0e565b848454612b93565b825550505050565b5f90565b612c48612c3c565b612c53818484612c17565b505050565b5b81811015612c7657612c6b5f82612c40565b600181019050612c59565b5050565b601f821115612cbb57612c8c81612b66565b612c9584612b78565b81016020851015612ca4578190505b612cb8612cb085612b78565b830182612c58565b50505b505050565b5f82821c905092915050565b5f612cdb5f1984600802612cc0565b1980831691505092915050565b5f612cf38383612ccc565b9150826002028217905092915050565b612d0c82611f75565b67ffffffffffffffff811115612d2557612d246121e8565b5b612d2f8254612896565b612d3a828285612c7a565b5f60209050601f831160018114612d6b575f8415612d59578287015190505b612d638582612ce8565b865550612dca565b601f198416612d7986612b66565b5f5b82811015612da057848901518255600182019150602085019450602081019050612d7b565b86831015612dbd5784890151612db9601f891682612ccc565b8355505b6001600288020188555050505b505050505050565b5f81905092915050565b5f612de682611f75565b612df08185612dd2565b9350612e00818560208601611f8f565b80840191505092915050565b5f612e178285612ddc565b9150612e238284612ddc565b91508190509392505050565b7f546f6b656e20494420646f6573206e6f742065786973740000000000000000005f82015250565b5f612e63601783611f7f565b9150612e6e82612e2f565b602082019050919050565b5f6020820190508181035f830152612e9081612e57565b9050919050565b7f4f776e61626c653a206e6577206f776e657220697320746865207a65726f20615f8201527f6464726573730000000000000000000000000000000000000000000000000000602082015250565b5f612ef1602683611f7f565b9150612efc82612e97565b604082019050919050565b5f6020820190508181035f830152612f1e81612ee5565b9050919050565b7f4552433732313a207472616e736665722066726f6d20696e636f7272656374205f8201527f6f776e6572000000000000000000000000000000000000000000000000000000602082015250565b5f612f7f602583611f7f565b9150612f8a82612f25565b604082019050919050565b5f6020820190508181035f830152612fac81612f73565b9050919050565b7f4552433732313a207472616e7366657220746f20746865207a65726f206164645f8201527f7265737300000000000000000000000000000000000000000000000000000000602082015250565b5f61300d602483611f7f565b915061301882612fb3565b604082019050919050565b5f6020820190508181035f83015261303a81613001565b9050919050565b7f4f776e61626c653a2063616c6c6572206973206e6f7420746865206f776e65725f82015250565b5f613075602083611f7f565b915061308082613041565b602082019050919050565b5f6020820190508181035f8301526130a281613069565b9050919050565b7f4552433732313a206d696e7420746f20746865207a65726f20616464726573735f82015250565b5f6130dd602083611f7f565b91506130e8826130a9565b602082019050919050565b5f6020820190508181035f83015261310a816130d1565b9050919050565b7f4552433732313a20746f6b656e20616c7265616479206d696e746564000000005f82015250565b5f613145601c83611f7f565b915061315082613111565b602082019050919050565b5f6020820190508181035f83015261317281613139565b9050919050565b7f4552433732313a20617070726f766520746f2063616c6c6572000000000000005f82015250565b5f6131ad601983611f7f565b91506131b882613179565b602082019050919050565b5f6020820190508181035f8301526131da816131a1565b9050919050565b7f4552433732313a207472616e7366657220746f206e6f6e2045524337323152655f8201527f63656976657220696d706c656d656e7465720000000000000000000000000000602082015250565b5f61323b603283611f7f565b9150613246826131e1565b604082019050919050565b5f6020820190508181035f8301526132688161322f565b9050919050565b7f4e487b71000000000000000000000000000000000000000000000000000000005f52601260045260245ffd5b5f81519050919050565b5f82825260208201905092915050565b5f6132c08261329c565b6132ca81856132a6565b93506132da818560208601611f8f565b6132e381611fb7565b840191505092915050565b5f6080820190506133015f8301876120ad565b61330e60208301866120ad565b61331b60408301856121b8565b818103606083015261332d81846132b6565b905095945050505050565b5f8151905061334681611eed565b92915050565b5f6020828403121561336157613360611eba565b5b5f61336e84828501613338565b9150509291505056fea264697066735822122082ecd00aeb5e370f99bf2bf0275e81eb02d1a21ff61084efd7257c253612adce64736f6c63430008140033",
  "immutableReferences": {},
  "source": "// SPDX-License-Identifier: MIT\npragma solidity ^0.8.0;\n\nimport \"@openzeppelin/contracts/token/ERC721/ERC721.sol\";\nimport \"@openzeppelin/contracts/access/Ownable.sol\";\nimport \"@openzeppelin/contracts/utils/Counters.sol\";\n\ncontract TaskSama is ERC721, Ownable {\n\n    using Counters for Counters.Counter;\n    Counters.Counter private _tokenIdCounter;\n\n    struct Video {\n        string title;\n        string description;\n        string ipfsUrl;\n        uint256 rewardEarned;\n        address[] participants;\n        address winner;\n        uint256 timestamp;\n    }\n\n    mapping(uint256 => Video) private _videoWinner;\n\n    constructor() ERC721(\"TaskSama\", \"TSK\") { }\n\n    function mintVideoNFT(address recipient, string memory title, string memory description, string memory ipfsUrl, uint256 rewardEarned, address[] memory participants) public onlyOwner returns (uint256) {\n        _tokenIdCounter.increment();\n        uint256 newTokenId = _tokenIdCounter.current();\n\n        _mint(recipient, newTokenId);\n        _videoWinner[newTokenId] = Video({\n            title: title,\n            description: description,\n            ipfsUrl: ipfsUrl,\n            rewardEarned: rewardEarned,\n            participants: participants,\n            winner: recipient,\n            timestamp: block.timestamp // Set the current timestamp\n        });\n\n        return newTokenId;\n    }\n\n\n    function getVideoData(uint256 tokenId) public view returns (Video memory) {\n        require(_exists(tokenId), \"Token ID does not exist\");\n        return _videoWinner[tokenId];\n    }\n}\n",
  "sourcePath": "/home/crosta/task-sama/truffle/contracts/TaskSama.sol",
  "compiler": {
    "name": "solc",
    "version": "0.8.20+commit.a1b79de6.Emscripten.clang"
  },
  "schemaVersion": "3.4.13",
  "updatedAt": "2023-05-10T17:27:03.481Z",
  "devdoc": {
    "events": {
      "Approval(address,address,uint256)": {
        "details": "Emitted when `owner` enables `approved` to manage the `tokenId` token."
      },
      "ApprovalForAll(address,address,bool)": {
        "details": "Emitted when `owner` enables or disables (`approved`) `operator` to manage all of its assets."
      },
      "Transfer(address,address,uint256)": {
        "details": "Emitted when `tokenId` token is transferred from `from` to `to`."
      }
    },
    "kind": "dev",
    "methods": {
      "approve(address,uint256)": {
        "details": "See {IERC721-approve}."
      },
      "balanceOf(address)": {
        "details": "See {IERC721-balanceOf}."
      },
      "getApproved(uint256)": {
        "details": "See {IERC721-getApproved}."
      },
      "isApprovedForAll(address,address)": {
        "details": "See {IERC721-isApprovedForAll}."
      },
      "name()": {
        "details": "See {IERC721Metadata-name}."
      },
      "owner()": {
        "details": "Returns the address of the current owner."
      },
      "ownerOf(uint256)": {
        "details": "See {IERC721-ownerOf}."
      },
      "renounceOwnership()": {
        "details": "Leaves the contract without owner. It will not be possible to call `onlyOwner` functions anymore. Can only be called by the current owner. NOTE: Renouncing ownership will leave the contract without an owner, thereby removing any functionality that is only available to the owner."
      },
      "safeTransferFrom(address,address,uint256)": {
        "details": "See {IERC721-safeTransferFrom}."
      },
      "safeTransferFrom(address,address,uint256,bytes)": {
        "details": "See {IERC721-safeTransferFrom}."
      },
      "setApprovalForAll(address,bool)": {
        "details": "See {IERC721-setApprovalForAll}."
      },
      "supportsInterface(bytes4)": {
        "details": "See {IERC165-supportsInterface}."
      },
      "symbol()": {
        "details": "See {IERC721Metadata-symbol}."
      },
      "tokenURI(uint256)": {
        "details": "See {IERC721Metadata-tokenURI}."
      },
      "transferFrom(address,address,uint256)": {
        "details": "See {IERC721-transferFrom}."
      },
      "transferOwnership(address)": {
        "details": "Transfers ownership of the contract to a new account (`newOwner`). Can only be called by the current owner."
      }
    },
    "version": 1
  },
  "userdoc": {
    "kind": "user",
    "methods": {},
    "version": 1
  }
}