{
  "contractName": "TaskVideos",
  "abi": [
    {
      "inputs": [],
      "stateMutability": "nonpayable",
      "type": "constructor"
    },
    {
      "inputs": [],
      "name": "owner",
      "outputs": [
        {
          "internalType": "address",
          "name": "",
          "type": "address"
        }
      ],
      "stateMutability": "view",
      "type": "function"
    },
    {
      "inputs": [
        {
          "internalType": "uint256",
          "name": "",
          "type": "uint256"
        }
      ],
      "name": "tokenData",
      "outputs": [
        {
          "internalType": "string",
          "name": "",
          "type": "string"
        }
      ],
      "stateMutability": "view",
      "type": "function"
    },
    {
      "inputs": [
        {
          "internalType": "uint256",
          "name": "",
          "type": "uint256"
        }
      ],
      "name": "tokenOwner",
      "outputs": [
        {
          "internalType": "address",
          "name": "",
          "type": "address"
        }
      ],
      "stateMutability": "view",
      "type": "function"
    },
    {
      "inputs": [],
      "name": "totalSupply",
      "outputs": [
        {
          "internalType": "uint256",
          "name": "_value",
          "type": "uint256"
        }
      ],
      "stateMutability": "view",
      "type": "function"
    },
    {
      "inputs": [
        {
          "internalType": "string",
          "name": "_video",
          "type": "string"
        }
      ],
      "name": "mint",
      "outputs": [],
      "stateMutability": "nonpayable",
      "type": "function"
    }
  ],
  "bytecode": "0x608060405234801561001057600080fd5b5033600360006101000a81548173ffffffffffffffffffffffffffffffffffffffff021916908373ffffffffffffffffffffffffffffffffffffffff16021790555061071e806100616000396000f3fe608060405234801561001057600080fd5b50600436106100575760003560e01c806318160ddd1461005c5780631caaa4871461007a5780638da5cb5b146100aa578063b4b5b48f146100c8578063d85d3d27146100f8575b600080fd5b610064610114565b60405161007191906104f4565b60405180910390f35b610094600480360381019061008f9190610437565b610120565b6040516100a191906104b7565b60405180910390f35b6100b2610153565b6040516100bf91906104b7565b60405180910390f35b6100e260048036038101906100dd9190610437565b610179565b6040516100ef91906104d2565b60405180910390f35b610112600480360381019061010d91906103f6565b610219565b005b60008060000154905081565b60016020528060005260406000206000915054906101000a900473ffffffffffffffffffffffffffffffffffffffff1681565b600360009054906101000a900473ffffffffffffffffffffffffffffffffffffffff1681565b60026020528060005260406000206000915090508054610198906105ff565b80601f01602080910402602001604051908101604052809291908181526020018280546101c4906105ff565b80156102115780601f106101e657610100808354040283529160200191610211565b820191906000526020600020905b8154815290600101906020018083116101f457829003601f168201915b505050505081565b61022360006102b2565b806002600061023260006102c8565b815260200190815260200160002090805190602001906102539291906102d6565b50336001600061026360006102c8565b815260200190815260200160002060006101000a81548173ffffffffffffffffffffffffffffffffffffffff021916908373ffffffffffffffffffffffffffffffffffffffff16021790555050565b6001816000016000828254019250508190555050565b600081600001549050919050565b8280546102e2906105ff565b90600052602060002090601f016020900481019282610304576000855561034b565b82601f1061031d57805160ff191683800117855561034b565b8280016001018555821561034b579182015b8281111561034a57825182559160200191906001019061032f565b5b509050610358919061035c565b5090565b5b8082111561037557600081600090555060010161035d565b5090565b600061038c61038784610534565b61050f565b9050828152602081018484840111156103a457600080fd5b6103af8482856105bd565b509392505050565b600082601f8301126103c857600080fd5b81356103d8848260208601610379565b91505092915050565b6000813590506103f0816106d1565b92915050565b60006020828403121561040857600080fd5b600082013567ffffffffffffffff81111561042257600080fd5b61042e848285016103b7565b91505092915050565b60006020828403121561044957600080fd5b6000610457848285016103e1565b91505092915050565b61046981610581565b82525050565b600061047a82610565565b6104848185610570565b93506104948185602086016105cc565b61049d816106c0565b840191505092915050565b6104b1816105b3565b82525050565b60006020820190506104cc6000830184610460565b92915050565b600060208201905081810360008301526104ec818461046f565b905092915050565b600060208201905061050960008301846104a8565b92915050565b600061051961052a565b90506105258282610631565b919050565b6000604051905090565b600067ffffffffffffffff82111561054f5761054e610691565b5b610558826106c0565b9050602081019050919050565b600081519050919050565b600082825260208201905092915050565b600061058c82610593565b9050919050565b600073ffffffffffffffffffffffffffffffffffffffff82169050919050565b6000819050919050565b82818337600083830152505050565b60005b838110156105ea5780820151818401526020810190506105cf565b838111156105f9576000848401525b50505050565b6000600282049050600182168061061757607f821691505b6020821081141561062b5761062a610662565b5b50919050565b61063a826106c0565b810181811067ffffffffffffffff8211171561065957610658610691565b5b80604052505050565b7f4e487b7100000000000000000000000000000000000000000000000000000000600052602260045260246000fd5b7f4e487b7100000000000000000000000000000000000000000000000000000000600052604160045260246000fd5b6000601f19601f8301169050919050565b6106da816105b3565b81146106e557600080fd5b5056fea2646970667358221220c7b2430b307e6d282ac4e0f7aac8415bd21c2dbc5a324a4516af762cff78399464736f6c63430008040033",
  "immutableReferences": {},
  "source": "// SPDX-License-Identifier: MIT\npragma solidity ^0.8.4;\n\nimport \"@openzeppelin/contracts/utils/Counters.sol\";\nimport \"@openzeppelin/contracts/token/ERC721/ERC721.sol\";\n\ncontract TaskVideos {\n    using Counters for Counters.Counter;\n    Counters.Counter public totalSupply;\n    mapping (uint256 => address) public tokenOwner;\n    mapping (uint256 => string) public tokenData;\n\n    address public owner;\n\n    constructor() {\n        owner = msg.sender;\n    }\n\n    function mint(string memory _video) public {\n        totalSupply.increment();\n        tokenData[totalSupply.current()] = _video;\n        tokenOwner[totalSupply.current()] = msg.sender;\n    }\n}",
  "sourcePath": "/workspace/task-sama/truffle/contracts/TaskVideos.sol",
  "compiler": {
    "name": "solc",
    "version": "0.8.4+commit.c7e474f2.Emscripten.clang"
  },
  "schemaVersion": "3.4.11",
  "updatedAt": "2023-02-21T11:05:18.610Z",
  "devdoc": {
    "kind": "dev",
    "methods": {},
    "version": 1
  },
  "userdoc": {
    "kind": "user",
    "methods": {},
    "version": 1
  }
}