{
  "contractName": "TaskMarketplace",
  "abi": [
    {
      "inputs": [],
      "stateMutability": "nonpayable",
      "type": "constructor"
    },
    {
      "anonymous": false,
      "inputs": [
        {
          "indexed": true,
          "internalType": "uint256",
          "name": "itemId",
          "type": "uint256"
        },
        {
          "indexed": true,
          "internalType": "address",
          "name": "nftContract",
          "type": "address"
        },
        {
          "indexed": true,
          "internalType": "uint256",
          "name": "tokenId",
          "type": "uint256"
        },
        {
          "indexed": false,
          "internalType": "address",
          "name": "seller",
          "type": "address"
        },
        {
          "indexed": false,
          "internalType": "address",
          "name": "owner",
          "type": "address"
        },
        {
          "indexed": false,
          "internalType": "uint256",
          "name": "price",
          "type": "uint256"
        },
        {
          "indexed": false,
          "internalType": "bool",
          "name": "sold",
          "type": "bool"
        },
        {
          "indexed": false,
          "internalType": "string",
          "name": "ipfsHash",
          "type": "string"
        }
      ],
      "name": "MarketItemCreated",
      "type": "event"
    },
    {
      "anonymous": false,
      "inputs": [
        {
          "indexed": true,
          "internalType": "uint256",
          "name": "itemId",
          "type": "uint256"
        },
        {
          "indexed": false,
          "internalType": "address",
          "name": "owner",
          "type": "address"
        }
      ],
      "name": "MarketItemSold",
      "type": "event"
    },
    {
      "inputs": [],
      "name": "allowedNFTCollection",
      "outputs": [
        {
          "internalType": "address",
          "name": "",
          "type": "address"
        }
      ],
      "stateMutability": "view",
      "type": "function"
    },
    {
      "inputs": [],
      "name": "owner",
      "outputs": [
        {
          "internalType": "address",
          "name": "",
          "type": "address"
        }
      ],
      "stateMutability": "view",
      "type": "function"
    },
    {
      "inputs": [
        {
          "internalType": "address",
          "name": "nftContract",
          "type": "address"
        },
        {
          "internalType": "uint256",
          "name": "tokenId",
          "type": "uint256"
        },
        {
          "internalType": "uint256",
          "name": "price",
          "type": "uint256"
        },
        {
          "internalType": "string",
          "name": "ipfsHash",
          "type": "string"
        }
      ],
      "name": "createMarketItem",
      "outputs": [],
      "stateMutability": "payable",
      "type": "function"
    },
    {
      "inputs": [
        {
          "internalType": "address",
          "name": "nftContract",
          "type": "address"
        },
        {
          "internalType": "uint256",
          "name": "itemId",
          "type": "uint256"
        }
      ],
      "name": "createMarketSale",
      "outputs": [],
      "stateMutability": "payable",
      "type": "function"
    },
    {
      "inputs": [],
      "name": "fetchMarketItems",
      "outputs": [
        {
          "components": [
            {
              "internalType": "uint256",
              "name": "itemId",
              "type": "uint256"
            },
            {
              "internalType": "address",
              "name": "nftContract",
              "type": "address"
            },
            {
              "internalType": "uint256",
              "name": "tokenId",
              "type": "uint256"
            },
            {
              "internalType": "address payable",
              "name": "seller",
              "type": "address"
            },
            {
              "internalType": "address payable",
              "name": "owner",
              "type": "address"
            },
            {
              "internalType": "uint256",
              "name": "price",
              "type": "uint256"
            },
            {
              "internalType": "bool",
              "name": "sold",
              "type": "bool"
            },
            {
              "internalType": "string",
              "name": "ipfsHash",
              "type": "string"
            }
          ],
          "internalType": "struct TaskMarketplace.MarketItem[]",
          "name": "",
          "type": "tuple[]"
        }
      ],
      "stateMutability": "view",
      "type": "function"
    }
  ],
  "bytecode": "0x6080604052731234567890123456789012345678901234567890600360006101000a81548173ffffffffffffffffffffffffffffffffffffffff021916908373ffffffffffffffffffffffffffffffffffffffff16021790555034801561006557600080fd5b50600160008190555033600460006101000a81548173ffffffffffffffffffffffffffffffffffffffff021916908373ffffffffffffffffffffffffffffffffffffffff1602179055506115a4806100be6000396000f3fe60806040526004361061004a5760003560e01c80630f08efe01461004f5780638da5cb5b1461007a578063a6bfd945146100a5578063c23b139e146100d0578063ee45a711146100ec575b600080fd5b34801561005b57600080fd5b50610064610108565b60405161007191906110ef565b60405180910390f35b34801561008657600080fd5b5061008f610430565b60405161009c9190611041565b60405180910390f35b3480156100b157600080fd5b506100ba610456565b6040516100c79190611041565b60405180910390f35b6100ea60048036038101906100e59190610cce565b61047c565b005b61010660048036038101906101019190610d0a565b6106d8565b005b606060006101166001610ab0565b905060006101246002610ab0565b8261012f919061126d565b90506000808267ffffffffffffffff811115610174577f4e487b7100000000000000000000000000000000000000000000000000000000600052604160045260246000fd5b6040519080825280602002602001820160405280156101ad57816020015b61019a610b2e565b8152602001906001900390816101925790505b50905060005b848110156104255760006001826101ca9190611217565b905060006005600083815260200190815260200160002090508060405180610100016040529081600082015481526020016001820160009054906101000a900473ffffffffffffffffffffffffffffffffffffffff1673ffffffffffffffffffffffffffffffffffffffff1673ffffffffffffffffffffffffffffffffffffffff168152602001600282015481526020016003820160009054906101000a900473ffffffffffffffffffffffffffffffffffffffff1673ffffffffffffffffffffffffffffffffffffffff1673ffffffffffffffffffffffffffffffffffffffff1681526020016004820160009054906101000a900473ffffffffffffffffffffffffffffffffffffffff1673ffffffffffffffffffffffffffffffffffffffff1673ffffffffffffffffffffffffffffffffffffffff168152602001600582015481526020016006820160009054906101000a900460ff1615151515815260200160078201805461033b9061133d565b80601f01602080910402602001604051908101604052809291908181526020018280546103679061133d565b80156103b45780601f10610389576101008083540402835291602001916103b4565b820191906000526020600020905b81548152906001019060200180831161039757829003601f168201915b5050505050815250508486815181106103f6577f4e487b7100000000000000000000000000000000000000000000000000000000600052603260045260246000fd5b602002602001018190525060018561040e9190611217565b94505050808061041d9061136f565b9150506101b3565b508094505050505090565b600460009054906101000a900473ffffffffffffffffffffffffffffffffffffffff1681565b600360009054906101000a900473ffffffffffffffffffffffffffffffffffffffff1681565b610484610abe565b60006005600083815260200190815260200160002060050154905060006005600084815260200190815260200160002060020154905060006005600085815260200190815260200160002060060160009054906101000a900460ff169050823414610524576040517f08c379a000000000000000000000000000000000000000000000000000000000815260040161051b90611131565b60405180910390fd5b60011515811515141561056c576040517f08c379a000000000000000000000000000000000000000000000000000000000815260040161056390611151565b60405180910390fd5b837f2073b2706c235effb1e3840575370a51749afd8181b4018f93bff955d50792cb3360405161059c9190611041565b60405180910390a26005600085815260200190815260200160002060030160009054906101000a900473ffffffffffffffffffffffffffffffffffffffff1673ffffffffffffffffffffffffffffffffffffffff166108fc349081150290604051600060405180830381858888f19350505050158015610620573d6000803e3d6000fd5b508473ffffffffffffffffffffffffffffffffffffffff166323b872dd3033856040518463ffffffff1660e01b815260040161065e9392919061105c565b600060405180830381600087803b15801561067857600080fd5b505af115801561068c573d6000803e3d6000fd5b5050505061069a6002610b0e565b60016005600086815260200190815260200160002060060160006101000a81548160ff0219169083151502179055505050506106d4610b24565b5050565b6106e0610abe565b60008311610723576040517f08c379a000000000000000000000000000000000000000000000000000000000815260040161071a90611191565b60405180910390fd5b600360009054906101000a900473ffffffffffffffffffffffffffffffffffffffff1673ffffffffffffffffffffffffffffffffffffffff168573ffffffffffffffffffffffffffffffffffffffff16146107b3576040517f08c379a00000000000000000000000000000000000000000000000000000000081526004016107aa90611111565b60405180910390fd5b6107bd6001610b0e565b60006107c96001610ab0565b90506040518061010001604052808281526020018773ffffffffffffffffffffffffffffffffffffffff1681526020018681526020013373ffffffffffffffffffffffffffffffffffffffff168152602001600073ffffffffffffffffffffffffffffffffffffffff16815260200185815260200160001515815260200184848080601f016020809104026020016040519081016040528093929190818152602001838380828437600081840152601f19601f82011690508083019250505050505050815250600560008381526020019081526020016000206000820151816000015560208201518160010160006101000a81548173ffffffffffffffffffffffffffffffffffffffff021916908373ffffffffffffffffffffffffffffffffffffffff1602179055506040820151816002015560608201518160030160006101000a81548173ffffffffffffffffffffffffffffffffffffffff021916908373ffffffffffffffffffffffffffffffffffffffff16021790555060808201518160040160006101000a81548173ffffffffffffffffffffffffffffffffffffffff021916908373ffffffffffffffffffffffffffffffffffffffff16021790555060a0820151816005015560c08201518160060160006101000a81548160ff02191690831515021790555060e08201518160070190805190602001906109d1929190610bb7565b509050508573ffffffffffffffffffffffffffffffffffffffff166323b872dd3330886040518463ffffffff1660e01b8152600401610a129392919061105c565b600060405180830381600087803b158015610a2c57600080fd5b505af1158015610a40573d6000803e3d6000fd5b50505050848673ffffffffffffffffffffffffffffffffffffffff16827ff43f4d1dd4af5e9c4e4d49c5630db8740cd334975acc91a0309116cb3b169e5a3360008960008a8a604051610a9896959493929190611093565b60405180910390a450610aa9610b24565b5050505050565b600081600001549050919050565b60026000541415610b04576040517f08c379a0000000000000000000000000000000000000000000000000000000008152600401610afb90611171565b60405180910390fd5b6002600081905550565b6001816000016000828254019250508190555050565b6001600081905550565b60405180610100016040528060008152602001600073ffffffffffffffffffffffffffffffffffffffff16815260200160008152602001600073ffffffffffffffffffffffffffffffffffffffff168152602001600073ffffffffffffffffffffffffffffffffffffffff16815260200160008152602001600015158152602001606081525090565b828054610bc39061133d565b90600052602060002090601f016020900481019282610be55760008555610c2c565b82601f10610bfe57805160ff1916838001178555610c2c565b82800160010185558215610c2c579182015b82811115610c2b578251825591602001919060010190610c10565b5b509050610c399190610c3d565b5090565b5b80821115610c56576000816000905550600101610c3e565b5090565b600081359050610c6981611540565b92915050565b60008083601f840112610c8157600080fd5b8235905067ffffffffffffffff811115610c9a57600080fd5b602083019150836001820283011115610cb257600080fd5b9250929050565b600081359050610cc881611557565b92915050565b60008060408385031215610ce157600080fd5b6000610cef85828601610c5a565b9250506020610d0085828601610cb9565b9150509250929050565b600080600080600060808688031215610d2257600080fd5b6000610d3088828901610c5a565b9550506020610d4188828901610cb9565b9450506040610d5288828901610cb9565b935050606086013567ffffffffffffffff811115610d6f57600080fd5b610d7b88828901610c6f565b92509250509295509295909350565b6000610d968383610f73565b905092915050565b610da7816112b3565b82525050565b610db6816112a1565b82525050565b610dc5816112a1565b82525050565b6000610dd6826111c1565b610de081856111e4565b935083602082028501610df2856111b1565b8060005b85811015610e2e5784840389528151610e0f8582610d8a565b9450610e1a836111d7565b925060208a01995050600181019050610df6565b50829750879550505050505092915050565b610e49816112c5565b82525050565b610e58816112c5565b82525050565b6000610e6a8385611206565b9350610e778385846112fb565b610e8083611416565b840190509392505050565b6000610e96826111cc565b610ea081856111f5565b9350610eb081856020860161130a565b610eb981611416565b840191505092915050565b6000610ed1603483611206565b9150610edc82611427565b604082019050919050565b6000610ef4604083611206565b9150610eff82611476565b604082019050919050565b6000610f17601e83611206565b9150610f22826114c5565b602082019050919050565b6000610f3a601f83611206565b9150610f45826114ee565b602082019050919050565b6000610f5d601c83611206565b9150610f6882611517565b602082019050919050565b600061010083016000830151610f8c6000860182611023565b506020830151610f9f6020860182610dad565b506040830151610fb26040860182611023565b506060830151610fc56060860182610d9e565b506080830151610fd86080860182610d9e565b5060a0830151610feb60a0860182611023565b5060c0830151610ffe60c0860182610e40565b5060e083015184820360e08601526110168282610e8b565b9150508091505092915050565b61102c816112f1565b82525050565b61103b816112f1565b82525050565b60006020820190506110566000830184610dbc565b92915050565b60006060820190506110716000830186610dbc565b61107e6020830185610dbc565b61108b6040830184611032565b949350505050565b600060a0820190506110a86000830189610dbc565b6110b56020830188610dbc565b6110c26040830187611032565b6110cf6060830186610e4f565b81810360808301526110e2818486610e5e565b9050979650505050505050565b600060208201905081810360008301526111098184610dcb565b905092915050565b6000602082019050818103600083015261112a81610ec4565b9050919050565b6000602082019050818103600083015261114a81610ee7565b9050919050565b6000602082019050818103600083015261116a81610f0a565b9050919050565b6000602082019050818103600083015261118a81610f2d565b9050919050565b600060208201905081810360008301526111aa81610f50565b9050919050565b6000819050602082019050919050565b600081519050919050565b600081519050919050565b6000602082019050919050565b600082825260208201905092915050565b600082825260208201905092915050565b600082825260208201905092915050565b6000611222826112f1565b915061122d836112f1565b9250827fffffffffffffffffffffffffffffffffffffffffffffffffffffffffffffffff03821115611262576112616113b8565b5b828201905092915050565b6000611278826112f1565b9150611283836112f1565b925082821015611296576112956113b8565b5b828203905092915050565b60006112ac826112d1565b9050919050565b60006112be826112d1565b9050919050565b60008115159050919050565b600073ffffffffffffffffffffffffffffffffffffffff82169050919050565b6000819050919050565b82818337600083830152505050565b60005b8381101561132857808201518184015260208101905061130d565b83811115611337576000848401525b50505050565b6000600282049050600182168061135557607f821691505b60208210811415611369576113686113e7565b5b50919050565b600061137a826112f1565b91507fffffffffffffffffffffffffffffffffffffffffffffffffffffffffffffffff8214156113ad576113ac6113b8565b5b600182019050919050565b7f4e487b7100000000000000000000000000000000000000000000000000000000600052601160045260246000fd5b7f4e487b7100000000000000000000000000000000000000000000000000000000600052602260045260246000fd5b6000601f19601f8301169050919050565b7f4f6e6c79204e4654732066726f6d20746865205461736b53616d6120636f6c6c60008201527f656374696f6e2063616e206265206c6973746564000000000000000000000000602082015250565b7f506c65617365207375626d6974207468652061736b696e67207072696365206960008201527f6e206f7264657220746f20636f6d706c65746520746865207075726368617365602082015250565b7f546869732073616c652068617320616c72656164792066696e69736865640000600082015250565b7f5265656e7472616e637947756172643a207265656e7472616e742063616c6c00600082015250565b7f5072696365206d7573742062652067726561746572207468616e203000000000600082015250565b611549816112a1565b811461155457600080fd5b50565b611560816112f1565b811461156b57600080fd5b5056fea26469706673582212209c1c2d0c0acaf3a86bf3e00ca2c57447a23774d5b5f5afaaebbe3ccc040a54f764736f6c63430008040033",
  "immutableReferences": {},
  "source": "// SPDX-License-Identifier: MIT\npragma solidity ^0.8.4;\n\nimport \"@openzeppelin/contracts/utils/Counters.sol\";\nimport \"@openzeppelin/contracts/token/ERC721/ERC721.sol\";\nimport \"@openzeppelin/contracts/security/ReentrancyGuard.sol\";\n\n\ncontract TaskMarketplace is ReentrancyGuard {\n    using Counters for Counters.Counter;\n    Counters.Counter private _itemsIds;\n    Counters.Counter private _itemsSold;\n\n    \n\n    address public allowedNFTCollection = 0x1234567890123456789012345678901234567890; // taskSama NFT collection address\n    address public owner;\n\n    constructor() {\n        owner = msg.sender;\n\n    }\n\n    struct MarketItem {\n        uint itemId;\n        address nftContract;\n        uint256 tokenId;\n        address payable seller;\n        address payable owner;\n        uint256 price;\n        bool sold;\n        string ipfsHash;\n    }\n\n    mapping(uint256 =>  MarketItem) private idToMarketItem;\n\n    event MarketItemCreated (\n        uint indexed itemId,\n        address indexed nftContract,\n        uint256 indexed tokenId,\n        address seller,\n        address owner,\n        uint256 price,\n        bool sold,\n        string ipfsHash\n    );\n\n    event MarketItemSold (\n        uint indexed itemId,\n        address owner\n    );\n\n    function createMarketItem(address nftContract, uint256 tokenId, uint256 price, string calldata ipfsHash) public payable nonReentrant {\n        require(price > 0, \"Price must be greater than 0\");\n        require(nftContract == allowedNFTCollection, \"Only NFTs from the TaskSama collection can be listed\");\n\n        _itemsIds.increment();\n        uint256 itemId = _itemsIds.current();\n\n        idToMarketItem[itemId] = MarketItem (\n            itemId,\n            nftContract,\n            tokenId,\n            payable(msg.sender),  //seller\n            payable(address(0)), //owner, address(0) is a null contract with no balance or code\n            price,\n            false,\n            ipfsHash\n        );\n\n        IERC721(nftContract).transferFrom(msg.sender, address(this), tokenId);\n\n        emit MarketItemCreated(\n            itemId,\n            nftContract,\n            tokenId,\n            msg.sender,\n            address(0),\n            price,\n            false,\n            ipfsHash\n        );\n    }\n\n    function createMarketSale(address nftContract, uint256 itemId) public payable nonReentrant {\n        uint price = idToMarketItem[itemId].price;\n        uint tokenId = idToMarketItem[itemId].tokenId;\n        bool sold = idToMarketItem[itemId].sold;\n\n        require(msg.value == price, \"Please submit the asking price in order to complete the purchase\");\n        require(sold != true, \"This sale has already finished\");\n\n        emit MarketItemSold(itemId, msg.sender);\n\n        //idToMarketItem[itemId].seller = seller address\n        //msg.sender = buyer address\n        idToMarketItem[itemId].seller.transfer(msg.value);  //the 'seller' is receiving the ethers (msg.value), from the contract call (buyer).\n        IERC721(nftContract).transferFrom(address(this), msg.sender, tokenId); //this transfers the ownership from the taskMarketplace contract to the buyer\n        _itemsSold.increment();\n        idToMarketItem[itemId].sold = true;\n    }\n\n    function fetchMarketItems() public view returns (MarketItem[] memory) {\n        uint itemCount = _itemsIds.current();\n        uint unsoldItemCount = itemCount - _itemsSold.current();\n        uint currentIndex = 0;\n\n        MarketItem[] memory items = new MarketItem[](unsoldItemCount);\n        for (uint i = 0; i < itemCount; i++) {\n            uint currentId = i + 1;\n            MarketItem storage currentItem = idToMarketItem[currentId];\n            items[currentIndex] = currentItem;\n            currentIndex +=1;\n        }\n        return items;\n    }\n\n}",
  "sourcePath": "/workspace/task-sama/truffle/contracts/TaskMarketplace.sol",
  "compiler": {
    "name": "solc",
    "version": "0.8.4+commit.c7e474f2.Emscripten.clang"
  },
  "schemaVersion": "3.4.11",
  "updatedAt": "2023-02-21T11:05:18.601Z",
  "devdoc": {
    "kind": "dev",
    "methods": {},
    "version": 1
  },
  "userdoc": {
    "kind": "user",
    "methods": {},
    "version": 1
  }
}