{
  "contractName": "Tasks",
  "abi": [
    {
      "inputs": [],
      "stateMutability": "nonpayable",
      "type": "constructor"
    },
    {
      "inputs": [],
      "name": "owner",
      "outputs": [
        {
          "internalType": "address",
          "name": "",
          "type": "address"
        }
      ],
      "stateMutability": "view",
      "type": "function"
    },
    {
      "inputs": [
        {
          "internalType": "uint256",
          "name": "",
          "type": "uint256"
        }
      ],
      "name": "tasks",
      "outputs": [
        {
          "internalType": "string",
          "name": "description",
          "type": "string"
        },
        {
          "internalType": "uint256",
          "name": "rewardAmount",
          "type": "uint256"
        },
        {
          "internalType": "address",
          "name": "ownerAddress",
          "type": "address"
        },
        {
          "internalType": "address",
          "name": "winner",
          "type": "address"
        }
      ],
      "stateMutability": "view",
      "type": "function"
    },
    {
      "inputs": [],
      "name": "totalTasks",
      "outputs": [
        {
          "internalType": "uint256",
          "name": "_value",
          "type": "uint256"
        }
      ],
      "stateMutability": "view",
      "type": "function"
    },
    {
      "inputs": [
        {
          "internalType": "string",
          "name": "_description",
          "type": "string"
        },
        {
          "internalType": "uint256",
          "name": "_rewardAmount",
          "type": "uint256"
        }
      ],
      "name": "createTask",
      "outputs": [],
      "stateMutability": "nonpayable",
      "type": "function"
    },
    {
      "inputs": [
        {
          "internalType": "uint256",
          "name": "_taskId",
          "type": "uint256"
        }
      ],
      "name": "submitTask",
      "outputs": [],
      "stateMutability": "nonpayable",
      "type": "function"
    },
    {
      "inputs": [
        {
          "internalType": "uint256",
          "name": "_taskId",
          "type": "uint256"
        },
        {
          "internalType": "address",
          "name": "_winner",
          "type": "address"
        }
      ],
      "name": "chooseWinner",
      "outputs": [],
      "stateMutability": "nonpayable",
      "type": "function"
    }
  ],
  "bytecode": "0x608060405234801561001057600080fd5b5033600160006101000a81548173ffffffffffffffffffffffffffffffffffffffff021916908373ffffffffffffffffffffffffffffffffffffffff160217905550610c17806100616000396000f3fe608060405234801561001057600080fd5b50600436106100625760003560e01c806304fe2b341461006757806330a939fe146100835780635a60105d1461009f5780638d977672146100bb5780638da5cb5b146100ee578063d22c81e51461010c575b600080fd5b610081600480360381019061007c91906107cd565b61012a565b005b61009d60048036038101906100989190610821565b6102ec565b005b6100b960048036038101906100b4919061084a565b610366565b005b6100d560048036038101906100d09190610821565b6104c0565b6040516100e5949392919061091b565b60405180910390f35b6100f66105b8565b6040516101039190610900565b60405180910390f35b6101146105de565b6040516101219190610987565b60405180910390f35b6040518060a001604052808381526020018281526020013373ffffffffffffffffffffffffffffffffffffffff168152602001600067ffffffffffffffff81111561019e577f4e487b7100000000000000000000000000000000000000000000000000000000600052604160045260246000fd5b6040519080825280602002602001820160405280156101cc5781602001602082028036833780820191505090505b508152602001600073ffffffffffffffffffffffffffffffffffffffff16815250600260006101fb60006105ea565b8152602001908152602001600020600082015181600001908051906020019061022592919061060e565b506020820151816001015560408201518160020160006101000a81548173ffffffffffffffffffffffffffffffffffffffff021916908373ffffffffffffffffffffffffffffffffffffffff1602179055506060820151816003019080519060200190610293929190610694565b5060808201518160040160006101000a81548173ffffffffffffffffffffffffffffffffffffffff021916908373ffffffffffffffffffffffffffffffffffffffff1602179055509050506102e860006105f8565b5050565b60026000828152602001908152602001600020600301339080600181540180825580915050600190039060005260206000200160009091909190916101000a81548173ffffffffffffffffffffffffffffffffffffffff021916908373ffffffffffffffffffffffffffffffffffffffff16021790555050565b6002600083815260200190815260200160002060020160009054906101000a900473ffffffffffffffffffffffffffffffffffffffff1673ffffffffffffffffffffffffffffffffffffffff163373ffffffffffffffffffffffffffffffffffffffff161461040a576040517f08c379a000000000000000000000000000000000000000000000000000000000815260040161040190610967565b60405180910390fd5b806002600084815260200190815260200160002060040160006101000a81548173ffffffffffffffffffffffffffffffffffffffff021916908373ffffffffffffffffffffffffffffffffffffffff1602179055508073ffffffffffffffffffffffffffffffffffffffff166108fc60026000858152602001908152602001600020600101549081150290604051600060405180830381858888f193505050501580156104bb573d6000803e3d6000fd5b505050565b60026020528060005260406000206000915090508060000180546104e390610a92565b80601f016020809104026020016040519081016040528092919081815260200182805461050f90610a92565b801561055c5780601f106105315761010080835404028352916020019161055c565b820191906000526020600020905b81548152906001019060200180831161053f57829003601f168201915b5050505050908060010154908060020160009054906101000a900473ffffffffffffffffffffffffffffffffffffffff16908060040160009054906101000a900473ffffffffffffffffffffffffffffffffffffffff16905084565b600160009054906101000a900473ffffffffffffffffffffffffffffffffffffffff1681565b60008060000154905081565b600081600001549050919050565b6001816000016000828254019250508190555050565b82805461061a90610a92565b90600052602060002090601f01602090048101928261063c5760008555610683565b82601f1061065557805160ff1916838001178555610683565b82800160010185558215610683579182015b82811115610682578251825591602001919060010190610667565b5b509050610690919061071e565b5090565b82805482825590600052602060002090810192821561070d579160200282015b8281111561070c5782518260006101000a81548173ffffffffffffffffffffffffffffffffffffffff021916908373ffffffffffffffffffffffffffffffffffffffff160217905550916020019190600101906106b4565b5b50905061071a919061071e565b5090565b5b8082111561073757600081600090555060010161071f565b5090565b600061074e610749846109c7565b6109a2565b90508281526020810184848401111561076657600080fd5b610771848285610a50565b509392505050565b60008135905061078881610bb3565b92915050565b600082601f83011261079f57600080fd5b81356107af84826020860161073b565b91505092915050565b6000813590506107c781610bca565b92915050565b600080604083850312156107e057600080fd5b600083013567ffffffffffffffff8111156107fa57600080fd5b6108068582860161078e565b9250506020610817858286016107b8565b9150509250929050565b60006020828403121561083357600080fd5b6000610841848285016107b8565b91505092915050565b6000806040838503121561085d57600080fd5b600061086b858286016107b8565b925050602061087c85828601610779565b9150509250929050565b61088f81610a14565b82525050565b60006108a0826109f8565b6108aa8185610a03565b93506108ba818560208601610a5f565b6108c381610b53565b840191505092915050565b60006108db603283610a03565b91506108e682610b64565b604082019050919050565b6108fa81610a46565b82525050565b60006020820190506109156000830184610886565b92915050565b600060808201905081810360008301526109358187610895565b905061094460208301866108f1565b6109516040830185610886565b61095e6060830184610886565b95945050505050565b60006020820190508181036000830152610980816108ce565b9050919050565b600060208201905061099c60008301846108f1565b92915050565b60006109ac6109bd565b90506109b88282610ac4565b919050565b6000604051905090565b600067ffffffffffffffff8211156109e2576109e1610b24565b5b6109eb82610b53565b9050602081019050919050565b600081519050919050565b600082825260208201905092915050565b6000610a1f82610a26565b9050919050565b600073ffffffffffffffffffffffffffffffffffffffff82169050919050565b6000819050919050565b82818337600083830152505050565b60005b83811015610a7d578082015181840152602081019050610a62565b83811115610a8c576000848401525b50505050565b60006002820490506001821680610aaa57607f821691505b60208210811415610abe57610abd610af5565b5b50919050565b610acd82610b53565b810181811067ffffffffffffffff82111715610aec57610aeb610b24565b5b80604052505050565b7f4e487b7100000000000000000000000000000000000000000000000000000000600052602260045260246000fd5b7f4e487b7100000000000000000000000000000000000000000000000000000000600052604160045260246000fd5b6000601f19601f8301169050919050565b7f596f752063616e6e6f742063686f6f736520612077696e6e6572206f6620612060008201527f7461736b20796f7520646f6e2774206f776e0000000000000000000000000000602082015250565b610bbc81610a14565b8114610bc757600080fd5b50565b610bd381610a46565b8114610bde57600080fd5b5056fea2646970667358221220458d3606f41c7b5ed58e3a8d1df326912aa5c17d62184887ae8a99d14bf7bd7d64736f6c63430008040033",
  "immutableReferences": {},
  "source": "// SPDX-License-Identifier: MIT\npragma solidity ^0.8.4;\n\nimport \"@openzeppelin/contracts/utils/Counters.sol\";\n\ncontract Tasks {\n    using Counters for Counters.Counter;\n    Counters.Counter public totalTasks;\n    address public owner;\n\n    struct Task {\n        string description;\n        uint256 rewardAmount;\n        address ownerAddress;\n        address[] submissions;\n        address winner;\n    }\n\n    mapping (uint256 => Task) public tasks;\n\n    constructor() {\n        owner = msg.sender;\n    }\n\n    function createTask(string memory _description, uint256 _rewardAmount) public {\n        tasks[totalTasks.current()] = Task(_description, _rewardAmount, msg.sender, new address[](0), address(0));\n        totalTasks.increment();\n    }\n\n    function submitTask(uint256 _taskId) public {\n        tasks[_taskId].submissions.push(msg.sender);\n    }\n\n    function chooseWinner(uint256 _taskId, address _winner) public {\n        require(msg.sender == tasks[_taskId].ownerAddress, \"You cannot choose a winner of a task you don't own\");\n        tasks[_taskId].winner = _winner;\n        payable(_winner).transfer(tasks[_taskId].rewardAmount);\n    }\n}\n",
  "sourcePath": "/workspace/task-sama/truffle/contracts/Tasks.sol",
  "compiler": {
    "name": "solc",
    "version": "0.8.4+commit.c7e474f2.Emscripten.clang"
  },
  "schemaVersion": "3.4.11",
  "updatedAt": "2023-02-21T11:05:18.613Z",
  "devdoc": {
    "kind": "dev",
    "methods": {},
    "version": 1
  },
  "userdoc": {
    "kind": "user",
    "methods": {},
    "version": 1
  }
}